:1000000048EF00F00000000000EF00F000000000EA
:0A0010000000000000000000F3D71C
:10001C001550800A15E015C000F00036009000C0A5
:10002C0015F000C08BFF030E0B6E080E0C6E770ED6
:10003C000D6E0D2EFED70C2EFCD70B2EFAD7E8D753
:02004C001200A0
:10004E001550010A15E015C000F00032009E00C0E8
:10005E0015F000C08BFF030E0B6E080E0C6E770EA4
:10006E000D6E0D2EFED70C2EFCD70B2EFAD7E8D721
:02007E0012006E
:100080000900F5CFE6FF0006FBE10106F9E11200E9
:10009000156A166A176A946A8B6A010E156E010E4C
:1000A0008B6E000E171802E1010E161804E1B6DF80
:1000B000166A176A05D0CBDF010E166E000E176E9A
:0400C000F0D7FFD79F
:020000040030CA
:0D000100231F3CFFBF81FF0FC00FE00F4029
:00000001FF
