:1000000054EF04F00000000000EF00F000000000DA
:0A0010000000000000000000F3D71C
:06001C00000000001200CC
:100022000F0E0C6E470E0D6E0D2EFED70C2EFCD74A
:06003200000000001200B6
:0A003800210E0D6E0D2EFED71200F2
:10004200030155BF02D0819601D0818655BD02D0F1
:10005200819401D0818455BB02D0819201D08182EA
:1000620055B902D0819001D08180020142B102D003
:10007200818801D08198818AD0DF819A030155B7A6
:1000820002D0819601D0818655B502D0819401D0EB
:10009200818455B302D0819201D0818255B102D0C0
:1000A200819001D08180020142B102D0818801D0C9
:1000B2008198818AB2DF819A42A102D0B1DF01D058
:0400C200BADF12008F
:1000C600086A096A100E0C6E0134083609360450A7
:1000D600085E0550D8A0053C095ED8B007D004508C
:1000E60008260550D8B0053C0926D89000360136BA
:0600F6000C2EEAD71200F7
:0E00FC000201429154C355F39EDF428112006F
:0C010A000E0E0D6E0D2EFED70000120030
:10011600020E0C6E490E0D6E0D2EFED70C2EFCD760
:06012600000000001200C1
:10012C000301516B050E515D0AE251514F25E16EF1
:10013C00000E5021E26E200EE66E512BF3D751517A
:10014C004F25E16E000E5021E26EE66A51075151C7
:10015C004F25526F000E5021536F0A0E046E000E85
:10016C00056E4DC300F04EC301F0A7DF08C000F0D0
:10017C0009C001F0300E002652C3E1FF53C3E2FF69
:10018C0000C0E6FF0A0E046E000E056E4DC300F0B3
:10019C004EC301F092DF00C04DF301C04EF3000ED0
:1001AC00011802E1000E001801E102D05107CFD76F
:0201BC0012002F
:1001BE0010D0800E03014D6F1AD0C00E4D6F17D0A8
:1001CE00940E4D6F14D0D40E4D6F11D0800E4D6F16
:1001DE000ED003014D51010AECE04D51020AEDE043
:1001EE004D51030AEDE04D51040AEDE0EFD74E05F7
:1001FE00006E4D51002600C04DF300C055F31ADFBE
:10020E0042910301516B51514F25E96E000E502161
:10021E00EA6EEE520CE051514F25E96E000E502160
:10022E00EA6EEECF54F363DF0301512BECD70201DC
:04023E0042811200E7
:1002420003014651445D02E14551435D0AE2020E5B
:100252004D6F0C0E4E6F1B0E4F6F010E506FAEDFC7
:100262001BD003014451465D02E14351455D0AE260
:10027200020E4D6F0C0E4E6F210E4F6F010E506F1E
:100282009DDF0AD0020E03014D6F0C0E4E6F150E4C
:0A0292004F6F000E506F92DF120054
:10029C000301496B4A6B43C34BF344C34CF3800ECD
:1002AC004419006E800E005C02E1000E435D0BE20F
:1002BC00010E496F000E4A6F435100084B6F44C347
:1002CC004CF3000E4C574BC34DF34CC34EF345C38C
:1002DC004FF346C350F324DF060E476F000E486FF2
:1002EC00000E006E4851005C02E14751000819E213
:1002FC0047514525E16E48514621E26E010E475D9E
:10030C00006E000E4859016E00504525E96E0150F3
:10031C004621EA6EEECFE6FF010E475F000E485B0A
:10032C00DFD745C3E1FF46C3E2FF200EE66E49511D
:10033C004A111AE0476B486B47514525E96E485105
:10034C004621EA6EEE50200A03E1474B482BF4D7C6
:10035C00010E475F000E485B47514525E16E485141
:0A036C004621E26E2D0EE66E12002F
:1003760044C300F00032009E0032009E0032009E10
:100386000032009EDD0E0024F66E0A0EF76E000E99
:10039600F722000EF86E000EF8220900F5CF00F0E5
:1003A60045C3E1FF46C3E2FF00C0E6FF010E0301BD
:1003B6004525E16E000E4621E26E0F0E4415006ED5
:1003C600DD0E0024F66E0A0EF76E000EF722000E02
:1003D600F86E000EF8220900F5CF00F000C0E6FF27
:1003E600020E4525E16E000E4621E26E43C300F083
:1003F6000032009E0032009E0032009E0032009EB7
:10040600DD0E0024F66E0A0EF76E000EF722000EC1
:10041600F86E000EF8220900F5CF00F000C0E6FFE6
:10042600030E4525E16E000E4621E26E0F0E4315C2
:10043600006EDD0E0024F66E0A0EF76E000EF72231
:10044600000EF86E000EF8220900F5CF00F000C08D
:10045600E6FF040E4525E16E000E4621E26EE66AD1
:02046600120082
:10046800FF0E02013E6FFF0E3F6FFF0E406FFF0E43
:10047800416FC26A271D006E0050C1160F0EC012D0
:06048800C08EC2801200CC
:10048E000301496B45C301F0010E006E015004E0FB
:10049E0000360090FF0FFBD700C048F343C3E9FFBF
:1004AE0044C3EAFF0050EE14016E0152010ED8A4AF
:1004BE00000E006E4751001A18E04651000804E283
:1004CE0023DE22DE4607F9D743C3E9FF44C3EAFF22
:1004DE004851EE14016E0152010ED8A4000E006EAA
:1004EE004751001A02E0FF0E496F49C300F0120097
:1004FE00C26A0201271D006E0050C1160F0EC012F7
:10050E00C08E43C300F000360090003600900050BD
:10051E00C212C280F3DDC282C2A201D0FDD7C4CF07
:10052E0001F0006A00C044F301C045F3C35000124D
:10053E00000E011200C044F301C045F3C290000E3C
:10054E000014026E0150800B036E000E031802E1C0
:10055E00000E021803E00301446B456B44C300F028
:06056E0045C301F012007C
:10057400939A93989390939293949396819A819853
:1005840081968194819281904ADD49DD48DD8182A2
:100594008180818A41DD819A42DD818A3DDD819AB3
:1005A4003EDD818A39DD819A3ADD8190818A34DDAC
:1005B400819A35DD818A30DD819A81928186818AB2
:1005C4002BDD819A2CDD81968180818A25DD819ABB
:1005D4008190818A21DD819A22DD818A1DDD819AC3
:1005E4008180818A19DD819A1ADD8190818A14DDE6
:1005F400819A8186818481828180818A0DDD819ABC
:080604000EDD0201428112002B
:10060C000900F5CFE6FF0006FBE10106F9E1120057
:10061C000F01386B396B010E3B6F799E789E0F0E74
:10062C00926E010E956E1ADF9FDF010E0301556F5E
:10063C0002DD0C0E0301556FFEDC010E03014D6F44
:10064C00010E4E6F280E4F6F020E506FB2DD0B0E67
:10065C000B6E260E0C6E5D0E0D6E0D2EFED70C2E37
:10066C00FCD70B2EFAD700000000010E0301556FCA
:10067C00E2DC010E03014D6F010E4E6F300E4F6F19
:10068C00020E506F96DD020E03014D6F010E4E6F80
:0C069C00360E4F6F020E506F8CDD120006
:1006A800140E0301436F27DF00C03CF201C03DF286
:0206B80012002E
:1006BA003AC243F33BC244F3430E0301456F020EB1
:1006CA00466F54DE800E436F0F0E446F456B010E6A
:1006DA00466F476BD7DE005223E00A0E02013A2525
:1006EA00016E000E3B21026E800E030A006E800E20
:1006FA000218005C02E10150FF0812E30A0E3A27D1
:10070A00000E3B23040E0B6E0C0E0C6E330E0D6E98
:10071A000D2EFED70C2EFCD70B2EFAD700000000A8
:10072A00800E0301436F0F0E446F010E456F010ED9
:10073A00466F476BA7DE005222E00A0E02013A5DBD
:10074A00016E000E3B59026E800E0218006E800E7A
:10075A00005C02E1000E015C12E30A0E3A5F000E31
:10076A003B5B040E0B6E0C0E0C6E330E0D6E0D2ED3
:10077A00FED70C2EFCD70B2EFAD700000000800EF5
:10078A000301436F0F0E446F020E456F010E466F51
:10079A00476B78DE005223E0640E02013A25016EAF
:1007AA00000E3B21026E800E030A006E800E0218B4
:1007BA00005C02E10150FF0812E3640E3A27000EC2
:1007CA003B23040E0B6E0C0E0C6E330E0D6E0D2EAB
:1007DA00FED70C2EFCD70B2EFAD700000000800E95
:1007EA000301436F0F0E446F030E456F010E466FF0
:1007FA00476B48DE005222E0640E02013A5D016E48
:10080A00000E3B59026E800E0218006E800E005CCC
:10081A0002E1000E015C12E3640E3A5F000E3B5BDC
:10082A00040E0B6E0C0E0C6E330E0D6E0D2EFED7D3
:0E083A000C2EFCD70B2EFAD700000000120087
:100848003AC243F33BC244F31B0E0301456F000E4B
:10085800466F20DD010E4D6F070E4E6F1B0E4F6F5A
:10086800000E506FA8DC3CC243F33DC244F3270E90
:100878000301456F010E466F0DDD020E4D6F040E2C
:100888004E6F270E4F6F010E506F95DC3AC243F33F
:100898003BC244F33CC245F33DC246F3CEDC1200F2
:1008A80077EC05F0B7DE05DFFBDECADFFCD7FFD744
:100AEE0010EE15F0250E006E030E016EB80EF66EAA
:0E0AFE00080EF76E000EF86E06EC03F0120004
:0608B800533D41444300E2
:1008BE00000000000000000000000000000000002A
:1008CE00000000000000000000000000000000001A
:1008DE00000000000000000000000000000000000A
:1008EE0000000000000000000000000000000000FA
:1008FE0000000000000000000000000000000000EA
:10090E0000000000000000000000000000000000D9
:10091E0000000000000000000000000000000000C9
:10092E0000000000000000000000000000000000B9
:10093E0000000000000000000000000000000000A9
:10094E000000000000000000000000000000000099
:10095E000000000000000000000000000000000089
:10096E000000000000000000000000000000000079
:10097E000000000000000000000000000000000069
:10098E000000000000000000000000000000000059
:10099E000000000000000000000000000000000049
:1009AE000000000000000000000000000000000039
:0609BE00533C41444300DC
:0609C400533E41444300D4
:1009CA00000000000000000000000000000000001D
:1009DA00000000000000000000000000000000000D
:1009EA0000000000000000000000000000000000FD
:1009FA0000000000000000000000000000000000ED
:100A0A0000000000000000000000000000000000DC
:100A1A0000000000000000000000000000000000CC
:100A2A0000000000000000000000000000000000BC
:100A3A0000000000000000000000000000000000AC
:100A4A00000000000000000000000000000000009C
:100A5A00000000000000000000000000000000008C
:100A6A00000000000000000000000000000000007C
:100A7A00000000000000000000000000000000006C
:100A8A00000000000000000000000000000000005C
:100A9A00000000000000000000000000000000004C
:100AAA00000000000000000000000000000000003C
:100ABA00000000000000000000000000000000002C
:010ACA000F1C
:080ACB00426F6E6A6F75720044
:060AD300536575696C001B
:040AD9004144430051
:100ADD003031323334353637383941424344454667
:020000040030CA
:0D000100231F3CFFBF81FF0FC00FE00F4029
:00000001FF
