:0400000088EF22F073
:10000800F2A409D0F2940B0ED76EDC0ED66E000166
:080018006EA701D0332A11008C
:080020000AAE029E000E120060
:100028000B840BAE1FEF00F0010E036E026A016A2B
:0A003800006A0A360232FF0E1200C1
:0E004200026A016A006A086A036A000E120070
:100050000B820BAE32EF00F00368026801680068A3
:080060000A360232FF0E120005
:100068000CB076EF00F00CA21CEF01F00E6A000E47
:1000780002648DEF00F0F00E0214D8A458EF00F0DF
:10008800023A01380F0B02260138F00B016E0038D6
:100098000F0B01260038F00B006E08380F0B0026F6
:1000A8000838F00B086E0E84D89002BE71EF00F08D
:1000B80008360036013602360E2A02BE71EF00F00D
:1000C80008360036013602360E2A02BE71EF00F0FD
:1000D80008360036013602360E2A0E50036412EF37
:1000E80001F0035E0BBC08AE17EF01F0D880800E5C
:1000F80008640030000E002201220222D8A017EF67
:1001080001F0023201320032034A1CEF01F017EF0E
:1001180001F001C002F000C001F008C000F0086A58
:10012800000E0E860264C4EF00F0F00E0214D8A48C
:10013800ACEF00F0023A01380F0B02260138F00B41
:10014800016E00380F0B01260038F00B006E0E848C
:10015800D89002BE71EF00F00036013602360E2A42
:1001680002BE71EF00F00036013602360E2A02BEDA
:1001780071EF00F00036013602360E2A71EF00F0FA
:1001880001C002F000C001F0006A000E0E960E8851
:100198000264F1EF00F0F00E0214D8A4DCEF00F0D6
:1001A800023A01380F0B02260138F00B016E0E845B
:1001B800D89002BE71EF00F0013602360E2A02BE58
:1001C80071EF00F0013602360E2A02BE71EF00F020
:1001D800013602360E2A71EF00F001C002F0016A02
:1001E800000E0E86026421EF01F0F00E0214D8A46E
:1001F80000EF01F0023A0E84D89002BE71EF00F0D1
:1002080002360E2A02BE71EF00F002360E2A02BE36
:1002180071EF00F002360E2A71EF00F0010E0C6E3D
:10022800FFDE24EF01F0020E0C6EF6DE24EF01F083
:10023800040E0C6E09DF24EF01F0080E0C6EFDDED3
:020248001200A2
:0A024A00210E0D6E0D2EFED71200DE
:100254000F0E0C6E470E0D6E0D2EFED70C2EFCD716
:0602640000000000120082
:06026A000000000012007C
:100270000B800BAE44EF01F0026A0AAEFF0E026E75
:0C028000016E006E0A360232FF0E120002
:08028C000B6A0B86FF0E120045
:0C02940072B201D0FDD7E9C073FF120068
:0E02A000ACB202D00000FCD7E9C0ADFF1200E6
:1002AE000001E9BF02D0819601D08186E9BD02D05E
:1002BE00819401D08184E9BB02D0819201D08182E8
:1002CE00E9B902D0819001D081806EB902D08188C7
:1002DE0001D08198818AC2DF819AE9B702D08196D6
:1002EE0001D08186E9B502D0819401D08184E9B331
:1002FE0002D0819201D08182E9B102D0819001D0E9
:10030E0081806EB902D0818801D08198818AA6DF62
:0E031E00819A6EA902D097DF01D090DF120005
:10032C00086A096A000E076203641BEF02F00250B0
:10033C0006180A6E075003267E0ED8A0ACEF01F00B
:10034C00035ED8B01FEF02F0B0EF01F0035ED8A04F
:10035C0023EF02F0028E068E02C00EF001C00BF0ED
:10036C0000C00DF000500402F4CF0CF00150050257
:10037C00F4CF00F0F3CF08F00402F3500C26F45045
:10038C000822000E00220D500502F3500C26F450EA
:10039C000822000E002202500402F3500826F450EA
:1003AC00002202500502016A000E0122F3500026C1
:1003BC00F45001220D500602F3500826F45000228E
:1003CC00026A000E012202220B500602F350002694
:1003DC00F4500122000E02220E500602F3500126A8
:1003EC00F450022202BE03EF02F00836003601364A
:1003FC0002360306D8B423EF02F016EF02F0D880D1
:10040C00800E08640030000E002201220222D8A0C7
:10041C0016EF02F0023201320032034A1FEF02F0F3
:10042C000AAE029E000E25EF02F0010E04DE25EF4F
:10043C0002F0020E07DE25EF02F0040EEFDD1200D3
:10044C000D6A086A0050D8B4000C04180A6E0ABE73
:10045C000D1E0B6A04AE02D0041E042A00AE02D09C
:10046C00001E002A005004100A6E0ABE1FD0045051
:10047C00085E003600340836045008260036060E96
:10048C000C6E00340836045000B0085E00A008263C
:10049C0000360C2EF6D700A008260BB015D00DAEEA
:1004AC00000C001E002A081E082A000C04AE09D0FD
:1004BC0000BE04D00050086E006AF1D7006A002A12
:1004CC00000C001E0B2AD3D7082A0450085CD8A4B1
:0E04DC00E6D7086A002A00AEE2D7FF0C120035
:1004EA000134083609360450085E0550D8A0053C88
:1004FA00095E003601360F0E0C6E013408360936D5
:10050A00045000A006D0085E0550D8A0053C095E3C
:10051A0005D008260550D8B0053C09260036013614
:10052A000C2EEBD700B006D0045008260550D8B0E0
:08053A00053C09260000120037
:10054200025006180E6E086A096A0B6A03500764A5
:1005520094EF03F006500A6E068E028E03500B6E65
:100562000750036E000E0B64E4EF02F00B50075EBF
:10057200D8B485EF03F0070E076453EF03F0075E6C
:1005820000C008F001C000F002C001F0026A074E8C
:1005920085EF03F0076428EF03F0075E00C008F060
:1005A20001C000F0016A074E85EF03F0076406EF11
:1005B20003F0075E00C008F0006A074E85EF03F003
:1005C2000764EDEF02F00AC002F005C001F004C0BA
:1005D20000F0086AB1EF04F0030E0764F8EF02F0CE
:1005E200075E08380F0B086E074E85EF03F0D890B0
:1005F2000832074E85EF03F0D8900832074E85EF98
:1006020003F0D890083285EF03F0030E076417EF6A
:1006120003F0075E08380F0B086E0038F00B08264F
:1006220000380F0B006E074E85EF03F0D8900032B2
:100632000832074E85EF03F0D89000320832074E99
:1006420085EF03F0D8900032083285EF03F0030EF5
:1006520007643FEF03F0075E08380F0B086E00389F
:10066200F00B082600380F0B006E0138F00B002645
:1006720001380F0B016E074E85EF03F0D89001325F
:1006820000320832074E85EF03F0D8900132003273
:100692000832074E85EF03F0D8900132003208325B
:1006A20085EF03F0030E076470EF03F0075E08386E
:1006B2000F0B086E0038F00B082600380F0B006E87
:1006C2000138F00B002601380F0B016E0238F00BD7
:1006D200012602380F0B026E074E85EF03F0D89009
:1006E2000232013200320832074E85EF03F0D89011
:1006F2000232013200320832074E85EF03F0D89001
:100702000232013200320832096A000E0EAE79EF6F
:1007120004F0081E001E011E021E082A00220122E9
:10072200022279EF04F00750D8A49AEF03F0B1EF58
:1007320004F0096A02C00AF0028E068E0750035CBA
:10074200076ED8B46CEF04F0070E07643AEF04F0BA
:10075200075E0450096E0550046E0650056E066A67
:10076200074E6CEF04F0070E07640FEF04F0075E0C
:100772000450096E0550046E056A074E6CEF04F0D2
:10078200070E0764EDEF03F0075E0450096E046A7A
:10079200074E6CEF04F0070E0764D4EF03F00AC0B3
:1007A20002F0B1EF04F0030E0764DFEF03F0075E1F
:1007B20009380F0B096E074E6CEF04F0D89009321E
:1007C200074E6CEF04F0D8900932074E6CEF04F03C
:1007D200D89009326CEF04F0030E0764FEEF03F0C9
:1007E200075E09380F0B096E0438F00B092604382E
:1007F2000F0B046E074E6CEF04F0D89004320932EE
:10080200074E6CEF04F0D89004320932074E6CEFB9
:1008120004F0D890043209326CEF04F0030E07643E
:1008220026EF04F0075E09380F0B096E0438F00B4F
:10083200092604380F0B046E0538F00B0426053820
:100842000F0B056E074E6CEF04F0D89005320432A0
:100852000932074E6CEF04F0D890053204320932A7
:10086200074E6CEF04F0D8900532043209326CEF77
:1008720004F0030E076457EF04F0075E09380F0B0C
:10088200096E0438F00B092604380F0B046E053884
:10089200F00B042605380F0B056E0638F00B052603
:1008A20006380F0B066E074E6CEF04F0D890063236
:1008B200053204320932074E6CEF04F0D89006324A
:1008C200053204320932074E6CEF04F0D89006323A
:1008D200053204320932086A000E0EAE79EF04F0D6
:1008E200091E041E051E061E092A042205220622CE
:1008F2000950082604500022055001220650022207
:100902000EBE90EF04F0D8A09FEF04F00232013245
:1009120000320832033E9FEF04F0ABEF04F0D8B090
:10092200A5EF04F0000E081E001E011E021E082A7A
:100932000022012202220A7EA5EF04F0010E0C6EB3
:1009420034EC00F0B3EF04F0020E0C6E34EC00F065
:10095200B3EF04F0040E0C6E28EC00F0B3EF04F0D9
:06096200000E0C6E1200F5
:10096800086A080E0C6E003408360450085ED8B0C9
:0E09780002D00826D89000360C2EF5D71200BB
:100986000A6A0350D8A40A800750D8A40A820A50DB
:10099600D8B426EF05F0030AD8B4DFEF04F00AB0A6
:1009A600DAEF04F006AE24EF05F022EF05F002AE12
:1009B60022EF05F024EF05F00250800B0A6E029E2E
:1009C6000650800B069E0A18D8B4F0EF04F00A50C1
:1009D600D8B422EF05F024EF05F00750035CD8B435
:1009E600FAEF04F0D8A016EF05F01CEF05F006505C
:1009F600025CD8B404EF05F0D8A016EF05F01CEFA2
:100A060005F00550015CD8B40EEF05F0D8A016EF3E
:100A160005F01CEF05F00450005CD8B426EF05F095
:100A2600D8B01CEF05F00A52D8B424EF05F022EF37
:100A360005F00A52D8B422EF05F024EF05F0D8806D
:0E0A46001200D8901200D880D884120012003E
:100A54000450000A08E10550000A05E1FF0E006E8B
:100A64007F0E016E57D00D6A096A086A01500010A2
:100A7400D8B4000C015005180A6E0ABE0D1E0B6A8C
:100A840005AE05D0041E051E042AD8B4052A01AEFD
:100A940005D0001E011E002AD8B4012A01500510F9
:100AA4000A6E0ABE10D01FDD0BB020D00DAE000CB4
:100AB400001E011E002AD8B4012A081E091E082A95
:100AC400D8B4092A000C05AE0DD001BE07D00150E0
:100AD400096E0050086E016A006AE8D7016A006A6C
:100AE400002A000C011E001E0B2ADDD7082AD8B4E8
:100AF400092A0450085CD8A4D9D70550095CD8A4A5
:100B0400D5D7096A086A002AD8B4012A01AECED71B
:060B14000000FF0C1200BE
:100B1A000B6A0C6A086A0350D8B411EF06F002C0D7
:100B2A000AF0028E9E0E035E03AE01EF06F0036C1E
:100B3A00080E035CD8A0CEEF05F0036E083600C09D
:100B4A0008F001C000F002C001F0026A080E035C5E
:100B5A00D8A0CEEF05F0036E083600C008F001C039
:100B6A0000F0016A080E035CD8A0CEEF05F0036E10
:100B7A00083600C008F0006A080E035CD8A0CEEF61
:100B8A0005F0036E0836086A0350D8A4D890DAEF45
:100B9A0005F00350D8B4DAEF05F0D89002320132EA
:100BAA0000320832032ED2EF05F00BBC08A0EBEF9F
:100BBA0005F0D8A0EBEF05F0082AD8B4002AD8B47B
:100BCA00012AD8B4022A02BE15EF06F00AAE11EFC6
:100BDA0006F0021E011E001E081E082AD8B4002AAA
:100BEA00D8B4012AD8B4022A11EF06F0026A016ABF
:100BFA00006A086A11EF06F00B800BAE1CEF06F0D4
:100C0A00026A0AAE1CEF06F0026E016E006E086EF2
:100C1A000A3602321CEF06F00C6A000E1DEF06F0CF
:100C2A00010E0C6E000E38EC01F01DEF06F0FF0EFF
:100C3A000250036E0150026E0050016E0850006EA1
:020C4A00120096
:100C4C000001E451390806E3300EE45D03E3010EC4
:080C5C00006E01D0006A1200D5
:100C640000016E99E4C0E9F057EC01F06E891200BE
:100C740003500718D8A44EEF06F002500618D8A463
:100C84004EEF06F001500518D8A44EEF06F00050C0
:0E0C94000418D8B4D8841200D89412001200AC
:100CA2000B6A0A6A096A00500402F4CF09F0F3CF12
:100CB20008F001500502F4CF0BF0F3CF0AF0005018
:100CC2000502F3500926F4500A22E86A0B22015069
:100CD2000402F3500926F4500A22E86A0B2208C0E3
:100CE20000F009C001F00AC002F00BC003F01200CC
:100CF2000B6A0A6A096A086A0E6A033408360450E3
:100D0200085E0550D8A0053C095E0650D8A0063CF6
:100D12000A5E0750D8A0073C0B5EE86AD8A0010E15
:100D22000E5E0336070E0C6E0334083609360A3699
:100D32000B360E36045003A012D0085E0550D8A020
:100D4200053C095E0650D8A0063C0A5E0750D8A0B2
:100D5200073C0B5EE86AD8A0010E0E5E11D0082691
:100D62000550D8B0053C09260650D8B0063C0A26E4
:100D72000750D8B0073C0B26E86AD8B0010E0E2601
:100D820003360C2ED1D70234083609360A360B3612
:100D92000E36045003A012D0085E0550D8A0053CC0
:100DA200095E0650D8A0063C0A5E0750D8A0073C50
:100DB2000B5EE86AD8A0010E0E5E11D0082605501F
:100DC200D8B0053C09260650D8B0063C0A26075082
:100DD200D8B0073C0B26E86AD8B0010E0E260236C0
:100DE200070E0C6E0234083609360A360B360E36FA
:100DF200045002A012D0085E0550D8A0053C095E3E
:100E02000650D8A0063C0A5E0750D8A0073C0B5EED
:100E1200E86AD8A0010E0E5E11D008260550D8B09F
:100E2200053C09260650D8B0063C0A260750D8B021
:100E3200073C0B26E86AD8B0010E0E2602360C2EAD
:100E4200D1D70134083609360A360B360E3604502D
:100E520002A012D0085E0550D8A0053C095E0650DB
:100E6200D8A0063C0A5E0750D8A0073C0B5EE86A91
:100E7200D8A0010E0E5E11D008260550D8B0053C50
:100E820009260650D8B0063C0A260750D8B0073CBF
:100E92000B26E86AD8B0010E0E260136070E0C6E3C
:100EA2000134083609360A360B360E36045001A0D4
:100EB20012D0085E0550D8A0053C095E0650D8A0A5
:100EC200063C0A5E0750D8A0073C0B5EE86AD8A031
:100ED200010E0E5E11D008260550D8B0053C092639
:100EE2000650D8B0063C0A260750D8B0073C0B265D
:100EF200E86AD8B0010E0E2601360C2ED1D7003486
:100F0200083609360A360B360E36045001A012D0C6
:100F1200085E0550D8A0053C095E0650D8A0063CE4
:100F22000A5E0750D8A0073C0B5EE86AD8A0010E03
:100F32000E5E11D008260550D8B0053C0926065091
:100F4200D8B0063C0A260750D8B0073C0B26E86A00
:100F5200D8B0010E0E260036070E0C6E003408368D
:100F620009360A360B360E36045000A012D0085E3F
:100F72000550D8A0053C095E0650D8A0063C0A5E82
:100F82000750D8A0073C0B5EE86AD8A0010E0E5E9F
:100F920011D008260550D8B0053C09260650D8B015
:100FA200063C0A260750D8B0073C0B26E86AD8B0A0
:100FB200010E0E2600360C2ED1D700B00ED00450F2
:100FC20008260550D8B0053C09260650D8B0063C84
:0C0FD2000A260750D8B0073C0B2612007E
:100FDE000050086E0150006E0250016E0350026EFA
:100FEE00036A0B6A0C6A9E0E036E0A6A020E0C6E80
:060FFE0034EC00F01200CB
:101004000B6A0C6A0A6A086A0350D8B48AEF08F0BB
:10101400028E9E0E035E03BE15EF08F0D8B415EFE2
:1010240008F07AEF08F0036C080E035CD8A047EFD1
:1010340008F0036E083600C008F001C000F002C0DA
:1010440001F0026A080E035CD8A047EF08F0036EB3
:10105400083600C008F001C000F0016A080E035C05
:10106400D8A047EF08F0036E083600C008F0006A05
:10107400080E035CD8A047EF08F0036E0836086A30
:101084000350D8A4D89053EF08F00350D8B453EFCA
:1010940008F0D8900232013200320832032E4BEFAE
:1010A40008F00BBC08A064EF08F0D8A064EF08F0C7
:1010B400082AD8B4002AD8B4012AD8B4022A02BE15
:1010C4008EEF08F00AAE8AEF08F0021E011E001E21
:1010D400081E082AD8B4002AD8B4012AD8B4022A8F
:1010E4008AEF08F0026A016A006A086A8AEF08F067
:1010F4000B800BAE94EF08F0026A0AAE94EF08F08E
:10110400026E016E006E086E0A36023294EF08F029
:10111400000E0C6A95EF08F0010E0C6E38EC01F02D
:1011240095EF08F0FF0E0250036E0150026E00505E
:08113400016E0850006E12006C
:08113C00067EA1EC02F0120096
:10114400800E0001E419006E800E000A005CD8B025
:101154006DD1E4510008016E01C0E4F0800E011865
:10116400006E800E6E0A005CD8A0C0D0640E046EBF
:10117400E4C000F026EC02F0120E0024056E000E0E
:1011840000BEFF0E066E000E062205C000F006C06B
:1011940001F0000E06BEFF0E026E036E00360090D4
:1011A4000136023603360036009001360236033625
:1011B400AD0E0024F66E450E0120F76E000E0220DF
:1011C400F86E0900F5CFE5F00900F5CFE6F0090067
:1011D400F5CFE7F00900F5CFE8F0640E046EE4C043
:1011E40000F026EC02F008C000F00A0E046E26ECB3
:1011F40002F0090E0024056E000E00BEFF0E066EFE
:10120400000E062205C000F006C001F0000E06BE66
:10121400FF0E026E036E003600900136023603366E
:1012240000360090013602360336AD0E0024F66E09
:10123400450E0120F76E000E0220F86E0900F5CF6E
:1012440000F00900F5CF01F00900F5CF02F0090024
:10125400F5CF03F0E5C004F0E6C005F0E7C006F002
:10126400E8C007F096EC01F000C0E5F001C0E6F03C
:1012740002C0E7F003C0E8F00A0E046EE4C000F018
:1012840026EC02F008C000F000C001F0000E00BE21
:10129400FF0E026E036E046E0136019002360336B1
:1012A400043601360190023603360436AD0E0124AD
:1012B400F66E450E0220F76E000E0320F86E09004C
:1012C400F5CF00F00900F5CF01F00900F5CF02F0E9
:1012D4000900F5CF03F0E5C004F0E6C005F0E7C06F
:1012E40006F0E8C007F096EC01F007D2800E0A0A77
:1012F400006E800EE419005C71E20A0E046EE4C014
:1013040000F026EC02F0090E0024056E000E00BE6B
:10131400FF0E066E000E062205C000F006C001F0A6
:10132400000E06BEFF0E026E036E003600900136FC
:101334000236033600360090013602360336AD0E0F
:101344000024F66E450E0120F76E000E0220F86EA2
:101354000900F5CFE5F00900F5CFE6F00900F5CF77
:10136400E7F00900F5CFE8F00A0E046EE4C000F0DF
:1013740026EC02F008C000F000C001F0000E00BE30
:10138400FF0E026E036E046E0136019002360336C0
:10139400043601360190023603360436AD0E0124BC
:1013A400F66E450E0220F76E000E0320F86E09005B
:1013B400F5CF00F00900F5CF01F00900F5CF02F0F8
:1013C4000900F5CF03F0E5C004F0E6C005F0E7C07E
:1013D40006F0E8C007F096EC01F08FD1E4C000F00D
:1013E400000EE4BFFF0E016E026E036E0036009025
:1013F40001360236033600360090013602360336D3
:10140400AD0E0024F66E450E0120F76E000E02208C
:10141400F86E0900F5CF00F00900F5CF01F00900DE
:10142400F5CF02F00900F5CF03F067D1800EE4197F
:10143400006E800E6E0A005CD8A0C0D0640E046EEC
:10144400E4C000F026EC02F0120E0024056E000E3B
:1014540000BEFF0E066E000E062205C000F006C098
:1014640001F0000E06BEFF0E026E036E0036009001
:101474000136023603360036009001360236033652
:10148400790E0024F66E450E0120F76E000E022040
:10149400F86E0900F5CFE5F00900F5CFE6F0090094
:1014A400F5CFE7F00900F5CFE8F0640E046EE4C070
:1014B40000F026EC02F008C000F00A0E046E26ECE0
:1014C40002F0090E0024056E000E00BEFF0E066E2B
:1014D400000E062205C000F006C001F0000E06BE94
:1014E400FF0E026E036E003600900136023603369C
:1014F40000360090013602360336790E0024F66E6B
:10150400450E0120F76E000E0220F86E0900F5CF9B
:1015140000F00900F5CF01F00900F5CF02F0090051
:10152400F5CF03F0E5C004F0E6C005F0E7C006F02F
:10153400E8C007F096EC01F000C0E5F001C0E6F069
:1015440002C0E7F003C0E8F00A0E046EE4C000F045
:1015540026EC02F008C000F000C001F0000E00BE4E
:10156400FF0E026E036E046E0136019002360336DE
:10157400043601360190023603360436790E01240E
:10158400F66E450E0220F76E000E0320F86E090079
:10159400F5CF00F00900F5CF01F00900F5CF02F016
:1015A4000900F5CF03F0E5C004F0E6C005F0E7C09C
:1015B40006F0E8C007F096EC01F09FD0800E0A0A0E
:1015C400006E800EE419005C71E20A0E046EE4C041
:1015D40000F026EC02F0090E0024056E000E00BE99
:1015E400FF0E066E000E062205C000F006C001F0D4
:1015F400000E06BEFF0E026E036E0036009001362A
:101604000236033600360090013602360336790E70
:101614000024F66E450E0120F76E000E0220F86ECF
:101624000900F5CFE5F00900F5CFE6F00900F5CFA4
:10163400E7F00900F5CFE8F00A0E046EE4C000F00C
:1016440026EC02F008C000F000C001F0000E00BE5D
:10165400FF0E026E036E046E0136019002360336ED
:10166400043601360190023603360436790E01241D
:10167400F66E450E0220F76E000E0320F86E090088
:10168400F5CF00F00900F5CF01F00900F5CF02F025
:101694000900F5CF03F0E5C004F0E6C005F0E7C0AB
:1016A40006F0E8C007F096EC01F027D0E4C000F0A3
:1016B400000EE4BFFF0E016E026E036E0036009052
:1016C4000136023603360036009001360236033600
:1016D400790E0024F66E450E0120F76E000E0220EE
:1016E400F86E0900F5CF00F00900F5CF01F009000C
:0C16F400F5CF02F00900F5CF03F0120062
:101700006E0E0001E45DD8A0CAD0640E046EE4C081
:1017100000F0B4EC04F0120E0024056E066A000E10
:10172000062205C000F006C001F0000E06BEFF0E46
:10173000026E036E00360090013602360336003624
:101740000090013602360336AD0E0024F66E450ECB
:101750000120F76E000E0220F86E0900F5CF00F0B0
:101760000900F5CF01F00900F5CF02F00900F5CF2F
:1017700003F0000E046E000E056E000E066E7E0E67
:10178000076E96EC01F000C0E5F001C0E6F002C083
:10179000E7F003C0E8F0640E046EE4C000F0B4ECBF
:1017A00004F008C000F00A0E046EB4EC04F0090E58
:1017B0000024056E066A000E062205C000F006C071
:1017C00001F0000E06BEFF0E026E036E00360090A2
:1017D00001360236033600360090013602360336F3
:1017E000AD0E0024F66E450E0120F76E000E0220AD
:1017F000F86E0900F5CF00F00900F5CF01F00900FF
:10180000F5CF02F00900F5CF03F0E5C004F0E6C023
:1018100005F0E7C006F0E8C007F096EC01F000C064
:10182000E5F001C0E6F002C0E7F003C0E8F00A0E00
:10183000046EE4C000F0B4EC04F008C000F000C096
:1018400001F0000E026E036E046E01360190023646
:101850000336043601360190023603360436AD0EE7
:101860000124F66E450E0220F76E000E0320F86E7E
:101870000900F5CF00F00900F5CF01F00900F5CF20
:1018800002F00900F5CF03F0E5C004F0E6C005F072
:10189000E7C006F0E8C007F096EC01F0B1D0E451E3
:1018A0000A08D8B07ED00A0E046EE4C000F0B4EC92
:1018B00004F0090E0024056E066A000E062205C01B
:1018C00000F006C001F0000E06BEFF0E026E036EB1
:1018D000003600900136023603360036009001369D
:1018E00002360336AD0E0024F66E450E0120F76E6B
:1018F000000E0220F86E0900F5CF00F00900F5CFC8
:1019000001F00900F5CF02F00900F5CF03F0000E59
:10191000046E000E056E000E066E7E0E076E96ECCF
:1019200001F000C0E5F001C0E6F002C0E7F003C03E
:10193000E8F00A0E046EE4C000F0B4EC04F008C055
:1019400000F000C001F0000E026E036E046E01365E
:101950000190023603360436013601900236033612
:101960000436AD0E0124F66E450E0220F76E000E11
:101970000320F86E0900F5CF00F00900F5CF01F063
:101980000900F5CF02F00900F5CF03F0E5C004F03F
:10199000E6C005F0E7C006F0E8C007F096EC01F0FD
:1019A0002FD0E4C000F0000E016E026E036E003610
:1019B00000900136023603360036009001360236BA
:1019C0000336AD0E0024F66E450E0120F76E000EB4
:1019D0000220F86E0900F5CF00F00900F5CF01F004
:1019E0000900F5CF02F00900F5CF03F0000E046EF8
:1019F000000E056E000E066E7E0E076E96EC01F070
:021A00001200D2
:101A02000450000A12E10550000A0FE10650000AD4
:101A12000CE10750000A09E1FF0E006EFF0E016E95
:101A22007F0E026EFF0E036EA8D0086A096A075085
:101A3200D8B4ACEF0DF00350D8B4B1EF0DF00250B2
:101A420006180A6E028E068E0E6A02C008F001C0E7
:101A52000CF000C00DF004500D5E0550D8A0053CFE
:101A62000C5E0650D8A0063C085E086A0C6A0D6A35
:101A7200D8A043EF0DF0D890023201320032083282
:101A8200010E0E6E0750035ED8A050EF0DF07E0ED1
:101A92000E240326D8B0B6EF0DF056EF0DF07E0EF1
:101AA2000E240326D8A0BBEF0DF0180E0B6E0D36D8
:101AB2000C3608360036013602360E360450005E09
:101AC2000550D8A0053C015E0650D8A0063C025E37
:101AD20006340E120EA071EF0DF00D807CEF0DF0AA
:101AE200045000260550D8B0053C01260650D8B057
:101AF200062802260D900B2E58EF0DF0A2EF0DF0E6
:101B0200D8900036013602360E360450005E05507B
:101B1200D8A0053C015E0650D8A0063C025E063401
:101B22000E10010B0D26D8B00C2AD8B4082AD8A45E
:101B3200A2EF0DF008320C320D32032AD8B4B6EF00
:101B42000DF00AAE089E0850026E0C50016E0D5048
:101B5200006EBEEF0DF0010E46EC01F0BEEF0DF08F
:101B6200020E21EC00F0BEEF0DF0040E28EC00F0A6
:0C1B7200BEEF0DF0080E14EC00F01200A5
:101B7E00F250026EF29E0500FF6A0150FE6E00509A
:081B8E00FD6E02BEF28E120092
:101B9600C7B409D01F0EC514016E0150000A03E137
:0A1BA600010E006E01D0006A12006B
:101BB000020E0C6E490E0D6E0D2EFED70C2EFCD7AC
:061BC0000000000012000D
:101BC60063C0BEF064C0BFF065C0C0F066C0C1F0BF
:101BD6009E96C5869EB61FD000016351641165119D
:101BE600661118E0BE51BF11C011C1110CE179C0D8
:101BF600E1FF7AC0E2FF030EE66E77C000F078C020
:101C060001F0BADF08D0010E0001BE5F000EBF5B17
:101C1600C05BC15BDFD70001C9CFBDF0BC51000A74
:101C260002E1C58A01D0C59A9E96C58863C0BEF0FA
:101C360064C0BFF065C0C0F066C0C1F09EB61ED0DD
:101C4600635164116511661118E0BE51BF11C011D0
:101C5600C1110CE179C0E1FF7AC0E2FF030EE66E26
:101C660077C000F078C001F087DF08D0010E0001D0
:101C7600BE5F000EBF5BC05BC15BE0D7BDC000F0BE
:021C860012004A
:0C1C88000E0E0D6E0D2EFED70000120097
:101C940063C0BEF064C0BFF065C0C0F066C0C1F0F0
:101CA4000001BC6BBD6BBD51120802E1BC518E0832
:101CB40008E36FDF005201E004D00001BC4BBD2BF0
:101CC400F2D70001120EBD5D02E18F0EBC5D03E38D
:101CD4007B0E006E24D0C580C5A020D06351641152
:101CE400651166111AE0BE51BF11C011C1110EE198
:101CF40079C0E1FF7AC0E2FF050EE66E77C000F01E
:101D040078C001F03ADF010E006E09D0010E000127
:101D1400BE5F000EBF5BC05BC15BDED7006A120012
:101D240063C0BCF064C0BDF065C0BEF066C0BFF067
:101D3400C582C5A21FD000016351641165116611EB
:101D440018E0BC51BD11BE11BF110CE179C0E1FF17
:101D54007AC0E2FF060EE66E77C000F078C001F0AC
:101D64000CDF08D0010E0001BC5F000EBD5BBE5B42
:061D7400BF5BDFD7120087
:101D7A009E96BCC0C9FF63C0BDF064C0BEF065C01A
:101D8A00BFF066C0C0F0C7A421D00001635164113E
:101D9A00651166111AE0BD51BE11BF11C0110EE1E5
:101DAA0079C0E1FF7AC0E2FF040EE66E77C000F068
:101DBA0078C001F0DFDE010E006E3AD0010E00019C
:101DCA00BD5F000EBE5BBF5BC05BDDD763C0BDF00D
:101DDA0064C0BEF065C0BFF066C0C0F09EB621D038
:101DEA00000163516411651166111AE0BD51BE11FB
:101DFA00BF11C0110EE179C0E1FF7AC0E2FF040E03
:101E0A00E66E77C000F078C001F0B4DE010E006E15
:101E1A000FD0010E0001BD5F000EBE5BBF5BC05B51
:101E2A00DDD7C5BC02D0006A03D0C584020E006E9D
:021E3A00120094
:101E3C000001C26BBEC001F0010E006E015004E047
:101E4C0000360090FF0FFBD700C0C1F0BCC0E9FF0B
:101E5C00BDC0EAFF0050EE14016E0152010ED8A471
:101E6C00000E006EC051001A18E0BF51000804E2C9
:101E7C0099DE98DEBF07F9D7BCC0E9FFBDC0EAFF09
:101E8C00C151EE14016E0152010ED8A4000E006E69
:101E9C00C051001A02E0FF0EC26FC2C000F0120067
:101EAC000001BF6BBCC0E9FFBDC0EAFFEECFBEF0C6
:101EBC00BE51000A0FE0BEC0E9F050EC01F0000189
:101ECC00BF2BBF51BC25E96E000EBD21EA6EEECFD3
:061EDC00BEF0EED712007B
:101EE2000001DC6BDD6BD06BD16BBEC000F0BFC0FC
:101EF20001F0C0C002F0010EBE27000EBF23C023B6
:101F020000C0F6FF01C0F7FF02C0F8FF0900F5CFDD
:101F120000F000C0CDF00052D8B47FEF1FF0CD51D9
:101F2200250A0BE0BCC0E1FFBDC0E2FFCDC0E6FF69
:101F3200BC4BBD2BDC4BDD2BD8D7CE6BCF6BD06B24
:101F4200D16B23D0D087010EBE27000EBF23C02342
:101F520059D0D081010EBE27000EBF23C02352D01C
:101F6200D083010EBE27000EBF23C0234BD0D187E2
:101F7200010EBE27000EBF23C02344D0D085010E20
:101F8200BE27000EBF23C0233DD0BEC0F6FFBFC098
:101F9200F7FFC0C0F8FF0900F5CF01F001502D0A8C
:101FA200D1E0BEC0F6FFBFC0F7FFC0C0F8FF090016
:101FB200F5CF01F00150200ACCE0BEC0F6FFBFC051
:101FC200F7FFC0C0F8FF0900F5CF01F001502B0A5E
:101FD200C7E0BEC0F6FFBFC0F7FFC0C0F8FF0900F0
:101FE200F5CF01F00150230AC2E0BEC0F6FFBFC028
:101FF200F7FFC0C0F8FF0900F5CF01F00150300A29
:10200200BDE001D09ED7D0A301D0D091D0A701D0FE
:10201200D095BEC0F6FFBFC0F7FFC0C0F8FF0900F1
:10202200F5CF00F0000E016E00C0E4F026EC06F0E1
:10203200005236E0CE6BCF6BCEC000F0CFC001F0C5
:102042000A0E046E000E056E51EC06F0BEC0F6FFDD
:10205200BFC0F7FFC0C0F8FF0900F5CF02F0025081
:102062000024CE6F000E0120CF6F300ECE5F000E27
:10207200CF5B010EBE27000EBF23C023BEC0F6FFFA
:10208200BFC0F7FFC0C0F8FF0900F5CF00F0000E97
:10209200016E00C0E4F026EC06F00052CDE133D030
:1020A200BEC0F6FFBFC0F7FFC0C0F8FF0900F5CF02
:1020B20001F001502A0A27E1C1C0E9FFC2C0EAFFCC
:1020C200EECF00F0EECF01F000C0E9FF01C0EAFF61
:1020D200EECFCEF0EECFCFF0C1C0E9FFC2C0EAFF33
:1020E200020EEE24006E000EEE20016EC1C0E1FF72
:1020F200C2C0E2FF00C0E6FF01C0E6FF010EBE273C
:10210200000EBF23C023BEC0F6FFBFC0F7FFC0C092
:10211200F8FF0900F5CF01F001502E0A70E1010E1F
:10212200BE27000EBF23C023BEC0F6FFBFC0F7FF0D
:10213200C0C0F8FF0900F5CF01F001502A0A28E1DA
:10214200C1C0E9FFC2C0EAFFEECF00F0EECF01F05E
:1021520000C0E9FF01C0EAFFEECFCBF0EECFCCF03A
:10216200C1C0E9FFC2C0EAFF020EEE24006E000EFB
:10217200EE20016EC1C0E1FFC2C0E2FF00C0E6FF77
:1021820001C0E6FF010EBE27000EBF23C02336D0DA
:10219200CB6BCC6BBEC0F6FFBFC0F7FFC0C0F8FF71
:1021A2000900F5CF00F0000E016E00C0E4F026EC4D
:1021B20006F0005223E0CBC000F0CCC001F00A0EC2
:1021C200046E000E056E51EC06F0BEC0F6FFBFC0F5
:1021D200F7FFC0C0F8FF0900F5CF02F0025000245B
:1021E200CB6F000E0120CC6F300ECB5F000ECC5BAC
:1021F200010EBE27000EBF23C023CCD703D0CB6B6A
:10220200CC6BD189BEC000F0BFC001F0C0C002F0EB
:10221200010EBE27000EBF23C02300C0F6FF01C07F
:10222200F7FF02C0F8FF0900F5CFCDF0F9D0DCC00E
:1022320000F0DDC001F083EF1FF0D089E3D7D18534
:102242002ED1D08BD1812BD1D18329D1D08D27D141
:1022520026D1D08BD08F23D1C1C0E9FFC2C0EAFF03
:10226200EECF00F0EECF01F000C0E9FF01C0EAFFBF
:10227200EECFD8F0EECFD9F0C1C0E9FFC2C0EAFF7D
:10228200020EEE24006E000EEE20016EC1C0E1FFD0
:10229200C2C0E2FF00C0E6FF01C0E6FF000ED9198E
:1022A20002E1000ED81904E1670ED86F000ED96F53
:1022B200DA6BDB6BDA51D825E96EDB51D921EA6E94
:1022C200EE520BE0010EDA25006E000EDB21016EEC
:1022D20000C0DAF001C0DBF0EDD7CB51CC110AE03F
:1022E200DB51CC5D02E1DA51CB5D04E2CBC0DAF026
:1022F200CCC0DBF0CF51DB5D02E1CE51DA5D05E20D
:10230200DA51CE5FDB51CF5B02D0CE6BCF6BD0B751
:1023120016D0CEC000F0CFC001F0010ECE5F000E8D
:10232200CF5B005001100BE0BCC0E1FFBDC0E2FF7B
:10233200200EE66EBC4BBD2BDC4BDD2BEAD7DAC0A0
:1023420002F0DBC003F0010EDA5D006E000EDB5915
:10235200016E00C0DAF001C0DBF00250031019E098
:10236200D8C0E9FFD9C0EAFFBCC0E1FFBDC0E2FFAF
:10237200EECFE6FFBC4BBD2B010ED825006E000E42
:10238200D921016E00C0D8F001C0D9F0DC4BDD2BA1
:10239200D6D7D0A716D0CEC000F0CFC001F0010E24
:1023A200CE5F000ECF5B005001100BE0BCC0E1FF1E
:1023B200BDC0E2FF200EE66EBC4BBD2BDC4BDD2B1D
:1023C200EAD793D5C1C0E9FFC2C0EAFFEECF00F061
:1023D200EECF01F000C0E9FF01C0EAFFEECFCDF081
:1023E200C1C0E9FFC2C0EAFF020EEE24006E000E79
:1023F200EE20016EC1C0E1FFC2C0E2FF00C0E6FFF5
:1024020001C0E6FFCD0ED86F000ED96F010EDA6F54
:10241200000EDB6F62D7C00ED013000ED1133FD077
:10242200CD51000AD8B403D7CD516C0AD8B405D720
:10243200CD514C0AD8B401D7CD51660AD8B4FFD6D3
:10244200CD51450AD8B4FDD6CD51650AD8B4FAD6D5
:10245200CD51670AD8B4F8D6CD516F0AD8B4F6D6A2
:10246200CD51640AD8B4F4D6CD51690AD8B4F0D6A5
:10247200CD51700AD8B4EDD6CD51580AD8B4E9D6A8
:10248200CD51780AD8B4E6D6CD51730AD8B4E4D681
:10249200CD51630A97E0CD51750ABDE0B3D7000E66
:1024A200D015006ED151070B016E00500110D8B447
:1024B20026EF1BF0D1A904D0060ECB6F000ECC6F15
:1024C200C1C0E9FFC2C0EAFFEECF00F0EECF01F0DB
:1024D20000C0E9FF01C0EAFFEECFD2F0EECFD3F0A9
:1024E200EECFD4F0EECFD5F0C1C0E9FFC2C0EAFF13
:1024F200040EEE24006E000EEE20016EC1C0E1FF5C
:10250200C2C0E2FF00C0E6FF01C0E6FF046A056A3E
:10251200066A076AD2C000F0D3C001F0D4C002F04C
:10252200D5C003F0C3EC04F0010ED8B0000E006E6B
:10253200005205E0D47F030ED013000ED113D66BE8
:10254200D76BD2C000F0D3C001F0D4C002F0D5C026
:1025520003F0046A056A066A076A3AEC06F0000E9E
:10256200D8A4010E006E0052D8B48AD0D5C000F0B3
:10257200016A026A036AFF0E0016000E01167E0E41
:10258200005E000E015A00C0D6F001C0D7F0010E65
:10259200005E000E015A00C0D6F001C0D7F0030E53
:1025A200046E000E056E51EC06F000C0D6F001C0BC
:1025B200D7F00A0E046E000E056E2AEC05F000C07C
:1025C200D6F001C0D7F0800E0118026E800E025CB8
:1025D20002E1000E005C05E2010E0001D65F000E72
:1025E200D75B0001D6510008E46FA2EC08F0D2C01C
:1025F20004F0D3C005F0D4C006F0D5C007F096ECC5
:1026020001F000C0D8F001C0D9F002C0DAF003C076
:10261200DBF0000E046E000E056E000E066E7F0EDD
:10262200076ED8C000F0D9C001F0DAC002F0DBC0FA
:1026320003F0C3EC04F0010ED8B0000E006E00529D
:1026420005E0010ED65F000ED75B1AD0000E046EB5
:10265200000E056E200E066E820E076ED8C000F0C8
:10266200D9C001F0DAC002F0DBC003F0C3EC04F021
:10267200000ED8B0010E006E005202E0D64BD72BEE
:10268200800E006E800ED719005C02E1D651000860
:1026920003E3010ECD6F02D0D6C0CDF0D1B118D078
:1026A200D1A315D0800ED719006E7F0E005C02E117
:1026B200FC0ED65D0BE3800ED719006E800ECC198E
:1026C200005C02E1CB51D65D01E201D001D0EFD333
:1026D200CB51CC1106E0D1A304D0010ECB5F000E8A
:1026E200CC5BCC51000802E1CB51080803E2080E92
:1026F200CD6F02D0CBC0CDF0D2C000F0D3C001F07C
:10270200D4C002F0D5C003F0046A056A066A076AFB
:102712003AEC06F0000ED8A4010E006E0052D8B4B6
:102722004BD1D6C0E4F0A2EC08F000C004F001C026
:1027320005F002C006F003C007F0D2C000F0D3C01B
:1027420001F0D4C002F0D5C003F001EC0DF000C0DE
:10275200D2F001C0D3F002C0D4F003C0D5F0000122
:10276200CD510008E46FA2EC08F000C004F001C0F3
:1027720005F002C006F003C007F0D2C000F0D3C0DB
:1027820001F0D4C002F0D5C003F001EC0DF000C09E
:10279200DEF001C0DFF002C0E0F003C0E1F0DEC015
:1027A200D2F0DFC0D3F0E0C0D4F0E1C0D5F0DEC09B
:1027B20000F0DFC001F0E0C002F0E1C003F002EC83
:1027C20008F0EFEC07F000C004F001C005F002C011
:1027D20006F003C007F0DEC000F0DFC001F0E0C089
:1027E20002F0E1C003F09EEC08F0000E046E000E51
:1027F200056E000E066E7E0E076EC3EC04F0000E30
:10280200D8B0010E006E00521AE0D2C000F0D3C060
:1028120001F0D4C002F0D5C003F0000E046E000E29
:10282200056E000E066E7E0E076EA1EC02F000C071
:10283200D2F001C0D3F002C0D4F003C0D5F0D2C0B0
:1028420000F0D3C001F0D4C002F0D5C003F002EC16
:1028520008F00001CD51010F096E0A6A000E0A222A
:1028620009C004F00AC005F0000E0ABEFF0E066E93
:10287200076E043604900536063607360436049091
:10288200053606360736110E0424F66E460E05206E
:10289200F76E000E0620F86E0900F5CF05F009006C
:1028A200F5CF06F00900F5CF07F00900F5CF08F0E3
:1028B2000850035C08E10750025C05E10650015C28
:1028C20002E10550005C1EE30001D2C000F0D3C05B
:1028D20001F0D4C002F0D5C003F0CD0E046ECC0ED0
:1028E200056E4C0E066E7B0E076E96EC01F000C074
:1028F200D2F001C0D3F002C0D4F003C0D5F0D64B61
:10290200D72B5AD0D2C000F0D3C001F0D4C002F00D
:10291200D5C003F002EC08F0CDC004F0000E056E45
:10292200066E076E04360490053606360736043600
:102932000490053606360736110E0424F66E460E4E
:102942000520F76E000E0620F86E0900F5CF05F09F
:102952000900F5CF06F00900F5CF07F00900F5CF21
:1029620008F00850035C08E10750025C05E10650DC
:10297200015C02E10550005C1FE20001D2C000F0E0
:10298200D3C001F0D4C002F0D5C003F0000E046E33
:10299200000E056E200E066E820E076E96EC01F09A
:1029A20000C0D2F001C0D3F002C0D4F003C0D5F011
:1029B200010ED65F000ED75B0001D1A393D0D1B731
:1029C20091D0800E000A006E800ECC19005C02E1EC
:1029D200CB510A0804E20A0ECB6F000ECC6FD2C0B4
:1029E20000F0D3C001F0D4C002F0D5C003F002EC75
:1029F20008F000C0D8F001C0D9F002C0DAF003C07C
:102A0200DBF0D851D911DA11DB1142E00A0E046E63
:102A1200000E056E066E076ED8C000F0D9C001F038
:102A2200DAC002F0DBC003F079EC06F008C000F077
:102A320009C001F00AC002F00BC003F0000E046EE0
:102A4200031808E10450021805E10450011802E1DC
:102A52000050000A1DE1010ECB5F000ECC5B0A0E96
:102A6200046E000E056E066E076ED8C000F0D9C067
:102A720001F0DAC002F0DBC003F079EC06F000C02E
:102A8200D8F001C0D9F002C0DAF003C0DBF0B9D748
:102A9200800ECC19006E800E005C02E1CD51CB5D40
:102AA20021E2CB51CD5DE46FA2EC08F000C004F04E
:102AB20001C005F002C006F003C007F0D2C000F06A
:102AC200D3C001F0D4C002F0D5C003F001EC0DF088
:102AD20000C0D2F001C0D3F002C0D4F003C0D5F0E0
:102AE200CBC0CDF0050E0001CB25006E000ECC212F
:102AF200016E0050CE5F0150CF5BCB51CC1103E190
:102B0200D1B701D004D0010ECE5F000ECF5B030E11
:102B1200D015006ED1C001F0000E01160050011058
:102B220004E0010ECE5F000ECF5BD0A539D0D0A35A
:102B320012D0D0A103D02D0EC36F02D02B0EC36FC3
:102B4200BCC0E1FFBDC0E2FFC3C0E6FFBC4BBD2B72
:102B5200DC4BDD2B0CD0D0A10AD0BCC0E1FFBDC044
:102B6200E2FF200EE66EBC4BBD2BDC4BDD2B800E54
:102B7200006E800ECF19005C02E1CE5100080FE218
:102B8200BCC0E1FFBDC0E2FF300EE66EBC4BBD2B08
:102B9200DC4BDD2B010ECE5F000ECF5BE8D73AD0C7
:102BA200D0B718D0800E006E800ECF19005C02E103
:102BB200CE5100080FE2BCC0E1FFBDC0E2FF200E13
:102BC200E66EBC4BBD2BDC4BDD2B010ECE5F000E47
:102BD200CF5BE8D7D0A312D0D0A103D02D0EC46F03
:102BE20002D02B0EC46FBCC0E1FFBDC0E2FFC4C067
:102BF200E6FFBC4BBD2BDC4BDD2B0CD0D0A10AD0A9
:102C0200BCC0E1FFBDC0E2FF200EE66EBC4BBD2B97
:102C1200DC4BDD2BD2C000F0D3C001F0D4C002F0F7
:102C2200D5C003F002EC08F000C0D8F001C0D9F022
:102C320002C0DAF003C0DBF0CDC000F0000E016E7E
:102C4200026E036E003600900136023603360036FD
:102C52000090013602360336110E0024F66E460E3F
:102C62000120F76E000E0220F86E0900F5CF04F085
:102C72000900F5CF05F00900F5CF06F00900F5CF00
:102C820007F0D8C000F0D9C001F0DAC002F0DBC012
:102C920003F079EC06F0300E0026BCC0E1FFBDC0A7
:102CA200E2FF00C0E6FFBC4BBD2BDC4BDD2BCB5162
:102CB200CC1103E1D1B701D06FD0BCC0E1FFBDC0E0
:102CC200E2FF2E0EE66EBC4BBD2BDC4BDD2BCD5155
:102CD200CB5F000ECC5BCD534DE0CD07CDC000F0F5
:102CE200000E016E026E036E00360090013602364F
:102CF200033600360090013602360336110E0024E8
:102D0200F66E460E0120F76E000E0220F86E0900E4
:102D1200F5CF04F00900F5CF05F00900F5CF06F074
:102D22000900F5CF07F0D8C000F0D9C001F0DAC031
:102D320002F0DBC003F079EC06F00A0E046E000E1E
:102D4200056E066E076E79EC06F008C000F009C049
:102D520001F00AC002F00BC003F0300E0026BCC026
:102D6200E1FFBDC0E2FF00C0E6FFBC4BBD2BDC4B68
:102D7200DD2BB1D7CB51CC110FE0BCC0E1FFBDC000
:102D8200E2FF300EE66EBC4BBD2BDC4BDD2B010EA1
:102D9200CB5F000ECC5BEED7D0AB0BD0BCC0E1FF5B
:102DA200BDC0E2FF450EE66EBC4BBD2BDC4BDD2BFE
:102DB2000AD0BCC0E1FFBDC0E2FF650EE66EBC4BAF
:102DC200BD2BDC4BDD2B800ED719006E800E005C14
:102DD20002E1000ED65D11E2D6510008D66FD7513E
:102DE200000ED757BCC0E1FFBDC0E2FF2D0EE66E5C
:102DF200BC4BBD2BDC4BDD2B0AD0BCC0E1FFBDC000
:102E0200E2FF2B0EE66EBC4BBD2BDC4BDD2B0A0E1C
:102E1200046E000E056ED6C000F0D7C001F02AEC99
:102E220005F0300E0026BCC0E1FFBDC0E2FF00C0CD
:102E3200E6FF0001BC4BBD2BDC4BDD2B0A0E046E02
:102E4200000E056ED6C000F0D7C001F02AEC05F0E6
:102E520008C000F009C001F0300E0026BCC0E1FF3E
:102E6200BDC0E2FF00C0E6FF0001BC4BBD2BDC4B46
:102E7200DD2BD0A71AD0800E006E800ECF19005C19
:102E820002E1CE51000811E2BCC0E1FFBDC0E2FF89
:102E9200200EE66EBC4BBD2BDC4BDD2B010ECE5F54
:102EA200000ECF5BCE51CF11EFE176EF0FF0D1A341
:102EB200F3D0800ED719006E800E005C02E1000E86
:102EC200D65D0AE2010ED65D006E000ED759016E84
:102ED2000050CB5F0150CC5BD2C000F0D3C001F0F8
:102EE200D4C002F0D5C003F002EC08F000C0D8F064
:102EF20001C0D9F002C0DAF003C0DBF0010ECD6FE1
:102F0200CD510A0A34E0CDC000F0000E016E026E0F
:102F1200036E00360090013602360336003600900A
:102F2200013602360336110E0024F66E460E0120DB
:102F3200F76E000E0220F86E0900F5CF01F00900CD
:102F4200F5CF02F00900F5CF03F00900F5CF04F048
:102F52000450DB5D08E10350DA5D05E10250D95D02
:102F620002E10150D85D01E202D0CD2BC9D7CD518B
:102F7200CB5DE26F000ECC59E36FE2C0CBF0E3C051
:102F8200CCF0D8C000F0D9C001F0DAC002F0DBC04A
:102F920003F0EFEC07F000C004F001C005F002C03E
:102FA20006F003C007F0D2C000F0D3C001F0D4C0D5
:102FB20002F0D5C003F09EEC08F000C0DEF001C0C4
:102FC200DFF002C0E0F003C0E1F0E2C0E4F0A2EC06
:102FD20008F0DEC004F0DFC005F0E0C006F0E1C09A
:102FE20007F096EC01F0000E046E000E056E000E66
:102FF200066E7E0E076EA1EC02F002EC08F000C035
:10300200D8F001C0D9F002C0DAF003C0DBF0CB5136
:10301200CC1142E00A0E046E000E056E066E076EBB
:10302200D8C000F0D9C001F0DAC002F0DBC003F072
:1030320079EC06F008C000F009C001F00AC002F005
:103042000BC003F0000E046E031808E104500218CE
:1030520005E10450011802E10050000A1DE10A0EC8
:10306200046E000E056E066E076ED8C000F0D9C061
:1030720001F0DAC002F0DBC003F079EC06F000C028
:10308200D8F001C0D9F002C0DAF003C0DBF0010EC3
:10309200CB5F000ECC5BBBD7800E006E800ECC19CE
:1030A200005C02E1CB510C0816E3CBC0E4F080ECEB
:1030B2000BF0D2C004F0D3C005F0D4C006F0D5C0E6
:1030C20007F0A1EC02F000C0D2F001C0D3F002C0C0
:1030D200D4F003C0D5F0D2C000F0D3C001F0D4C008
:1030E20002F0D5C003F0046A056A066A076A3AEC80
:1030F20006F0000ED8A4010E006E0052D8B477D0AC
:10310200D2C000F0D3C001F0D4C002F0D5C003F0A9
:1031120002EC08F0000E046E031808E104500218D5
:1031220005E10450011802E10050000A60E1800E3E
:10313200006E800ED719005C02E1D651010857E2F9
:10314200D6C0E4F0A2EC08F000C004F001C005F023
:1031520002C006F003C007F0D2C000F0D3C001F0F5
:10316200D4C002F0D5C003F001EC0DF05F0E046E86
:10317200700E056E090E066E810E076EC3EC04F02A
:10318200010ED8B0000E006E005206E0090E0001DA
:10319200D65F000ED75B05D00001080ED65F000E89
:1031A200D75BD6C0E4F0A2EC08F000C004F001C086
:1031B20005F002C006F003C007F0D2C000F0D3C091
:1031C20001F0D4C002F0D5C003F001EC0DF002EC26
:1031D20008F000C0D8F001C0D9F002C0DAF003C094
:1031E200DBF00001D26BD36BD46BD56B38D0D2C07D
:1031F20000F0D3C001F0D4C002F0D5C003F002EC5D
:1032020008F000C0D8F001C0D9F002C0DAF003C063
:10321200DBF0D8C000F0D9C001F0DAC002F0DBC0A8
:1032220003F0EFEC07F000C004F001C005F002C0AB
:1032320006F003C007F0D2C000F0D3C001F0D4C042
:1032420002F0D5C003F09EEC08F000C0D2F001C03D
:10325200D3F002C0D4F003C0D5F0D66BD76B010E09
:10326200CD6FCD510A0A34E0CDC000F0000E016EE0
:10327200026E036E003600900136023603360036C7
:103282000090013602360336110E0024F66E460E09
:103292000120F76E000E0220F86E0900F5CF01F052
:1032A2000900F5CF02F00900F5CF03F00900F5CFD0
:1032B20004F00450DB5D08E10350DA5D05E10250E1
:1032C200D95D02E10150D85D01E202D0CD2BC9D710
:1032D200CD51CB25006E000ECC21016ED6510026B9
:1032E200D75101220050CE5F0150CF5BD1B704D03D
:1032F200CB51CC1101E104D0010ECE5F000ECF5BA9
:10330200030ED015006ED1C001F0000E0116005060
:10331200011004E0010ECE5F000ECF5BD0A539D0C4
:10332200D0A312D0D0A103D02D0EC56F02D02B0E88
:10333200C56FBCC0E1FFBDC0E2FFC5C0E6FFBC4B2C
:10334200BD2BDC4BDD2B0CD0D0A10AD0BCC0E1FFE1
:10335200BDC0E2FF200EE66EBC4BBD2BDC4BDD2B6D
:10336200800E006E800ECF19005C02E1CE51000883
:103372000FE2BCC0E1FFBDC0E2FF300EE66EBC4B07
:10338200BD2BDC4BDD2B010ECE5F000ECF5BE8D7F1
:103392003AD0D0B718D0800E006E800ECF19005CE4
:1033A20002E1CE5100080FE2BCC0E1FFBDC0E2FF66
:1033B200200EE66EBC4BBD2BDC4BDD2B010ECE5F2F
:1033C200000ECF5BE8D7D0A312D0D0A103D02D0E30
:1033D200C66F02D02B0EC66FBCC0E1FFBDC0E2FFBC
:1033E200C6C0E6FFBC4BBD2BDC4BDD2B0CD0D0A105
:1033F2000AD0BCC0E1FFBDC0E2FF200EE66EBC4BAE
:10340200BD2BDC4BDD2BCDC000F0CD0700524CE0D4
:10341200CDC000F0000E016E026E036E0036009009
:103422000136023603360036009001360236033684
:10343200110E0024F66E460E0120F76E000E0220D9
:10344200F86E0900F5CF04F00900F5CF05F0090088
:10345200F5CF06F00900F5CF07F0D8C000F0D9C0CB
:1034620001F0DAC002F0DBC003F079EC06F00A0EDC
:10347200046E000E056E066E076E79EC06F008C04B
:1034820000F009C001F00AC002F00BC003F0300ED8
:103492000026BCC0E1FFBDC0E2FF00C0E6FFBC4B9E
:1034A200BD2BDC4BDD2BAFD7800E006E800ED71903
:1034B200005C02E1D65100080FE2BCC0E1FFBDC0D2
:1034C200E2FF300EE66EBC4BBD2BDC4BDD2B010E5A
:1034D200D65F000ED75BE8D7800E000A006E800E22
:1034E200CC19005C02E1CB51080803E2080ECD6F53
:1034F20002D0CBC0CDF0CD51CB5F000ECC5BCD5313
:1035020003E1D1B701D00AD0BCC0E1FFBDC0E2FFE8
:103512002E0EE66EBC4BBD2BDC4BDD2BCDC0E4F09A
:10352200A2EC08F0D2C004F0D3C005F0D4C006F07B
:10353200D5C007F096EC01F08DEC05F000C0D8F094
:1035420001C0D9F002C0DAF003C0DBF0CD534DE088
:10355200CD07CDC000F0000E016E026E036E003684
:1035620000900136023603360036009001360236EC
:103572000336110E0024F66E460E0120F76E000E81
:103582000220F86E0900F5CF04F00900F5CF05F02E
:103592000900F5CF06F00900F5CF07F0D8C000F01A
:1035A200D9C001F0DAC002F0DBC003F079EC06F01A
:1035B2000A0E046E000E056E066E076E79EC06F0BA
:1035C20008C000F009C001F00AC002F00BC003F00D
:1035D200300E0026BCC0E1FFBDC0E2FF00C0E6FF26
:1035E200BC4BBD2BDC4BDD2BB1D7CB51CC110FE04B
:1035F200BCC0E1FFBDC0E2FF300EE66EBC4BBD2B8E
:10360200DC4BDD2B010ECB5F000ECC5BEED7D0A7DF
:103612001AD0800E006E800ECF19005C02E1CE51EE
:10362200000811E2BCC0E1FFBDC0E2FF200EE66E61
:10363200BC4BBD2BDC4BDD2B010ECE5F000ECF5BF6
:10364200CE51CF11EFE176EF0FF0C00ED015016E23
:10365200D1C002F0000E0216000E021802E1000EA6
:103662000118D8A480D0D0A927D0C1C0E9FFC2C018
:10367200EAFFEECF00F0EECF01F000C0E9FF01C09B
:10368200EAFFEECFD8F0EECFD9F0EECFDAF0EECF00
:10369200DBF0C1C0E9FFC2C0EAFF040EEE24006EF7
:1036A200000EEE20016EC1C0E1FFC2C0E2FF00C009
:1036B200E6FF01C0E6FF2FD0C1C0E9FFC2C0EAFFAA
:1036C200EECF00F0EECF01F000C0E9FF01C0EAFF4B
:1036D200EECF00F0EECF01F0000E01BEFF0E026E43
:1036E200036E00C0D8F001C0D9F002C0DAF003C006
:1036F200DBF0C1C0E9FFC2C0EAFF020EEE24006E99
:10370200000EEE20016EC1C0E1FFC2C0E2FF00C0A8
:10371200E6FF01C0E6FF800EDB19006E800E005C42
:1037220008E1000EDA5D05E1000ED95D02E1000E4E
:10373200D85D18E2030ED013000ED113006A016A9D
:10374200026A036AD851005ED951015ADA51025A0B
:10375200DB51035A00C0D8F001C0D9F002C0DAF040
:1037620003C0DBF04ED0D0A927D0C1C0E9FFC2C050
:10377200EAFFEECF00F0EECF01F000C0E9FF01C09A
:10378200EAFFEECFD8F0EECFD9F0EECFDAF0EECFFF
:10379200DBF0C1C0E9FFC2C0EAFF040EEE24006EF6
:1037A200000EEE20016EC1C0E1FFC2C0E2FF00C008
:1037B200E6FF01C0E6FF25D0C1C0E9FFC2C0EAFFB3
:1037C200EECF00F0EECF01F000C0E9FF01C0EAFF4A
:1037D200EECFD8F0EECFD9F0000EDA6FDB6FC1C0BA
:1037E200E9FFC2C0EAFF020EEE24006E000EEE20D8
:1037F200016EC1C0E1FFC2C0E2FF00C0E6FF01C02E
:10380200E6FF000ECC1902E1000ECB190FE1000E0B
:10381200006EDB1908E10050DA1905E10050D919F0
:1038220002E1D851000A02E1CB4BCC2BC00ED015DD
:10383200006E00C005F0AED0010ECD6FCD510A0A68
:1038420034E0CDC000F0000E016E026E036E003651
:1038520000900136023603360036009001360236F9
:103862000336110E0024F66E460E0120F76E000E8E
:103872000220F86E0900F5CF01F00900F5CF02F041
:103882000900F5CF03F00900F5CF04F00450DB5D29
:1038920008E10350DA5D05E10250D95D02E1015011
:1038A200D85D01E202D0CD2BC9D782D0010ECD6FF7
:1038B200CD51080A34E0CDC000F0000E016E026E58
:1038C200036E003600900136023603360036009051
:1038D200013602360336390E0024F66E460E0120FA
:1038E200F76E000E0220F86E0900F5CF01F0090014
:1038F200F5CF02F00900F5CF03F00900F5CF04F08F
:103902000450DB5D08E10350DA5D05E10250D95D48
:1039120002E10150D85D01E202D0CD2BC9D748D0D7
:10392200010ECD6FCD510C0A34E0CDC000F0000E77
:10393200016E026E036E00360090013602360336C7
:1039420000360090013602360336E10E0024F66E90
:10395200450E0120F76E000E0220F86E0900F5CF29
:1039620001F00900F5CF02F00900F5CF03F00900DC
:10397200F5CF04F00450DB5D08E10350DA5D05E1A8
:103982000250D95D02E10150D85D01E202D0CD2B97
:10399200C9D70ED00550000AD8B44ED70550C00A78
:1039A200D8B44AD70550800A81E00550400AB8E0F1
:1039B200800E006E800ECC19005C02E1CB51CD5D11
:1039C20003E2CBC0CDF00DD0800ECC19006E800E7C
:1039D200005C02E1CD51CB5D04E2CDC0CBF0000E24
:1039E200CC6FCE51CF110EE0030ED015006ED1C0B8
:1039F20001F0000E01160050011004E0010ECE5F2E
:103A0200000ECF5B800ECC19006E800ECF19005CC9
:103A120002E1CE51CB5D05E2CB51CE5FCC51CF5B03
:103A220002D0CE6BCF6BC40ED015016ED151080BF4
:103A3200026E0250080A02E1400E011808E1CE515E
:103A4200CF1104E0010ECE5F000ECF5B1CD0C00E82
:103A5200D015016ED151080B026E0250080A02E124
:103A6200800E011810E1800E006E800ECF19005CEE
:103A720002E1CE51020805E2020ECE5F000ECF5BDC
:103A820002D0CE6BCF6BD0A55DD0D0A312D0D0A187
:103A920003D02D0EC76F02D02B0EC76FBCC0E1FF43
:103AA200BDC0E2FFC7C0E6FFBC4BBD2BDC4BDD2B2C
:103AB20034D0D0A10BD0BCC0E1FFBDC0E2FF200ECC
:103AC200E66EBC4BBD2BDC4BDD2B27D0C00ED015D8
:103AD200016ED151080B026E0250080A02E1800EFB
:103AE20001181BE1BCC0E1FFBDC0E2FF300EE66E73
:103AF200BC4BBD2BDC4BDD2BD0AB03D0580EC86FBB
:103B020002D0780EC86FBCC0E1FFBDC0E2FFC8C0E2
:103B1200E6FFBC4BBD2BDC4BDD2BCE51CF1111E0B0
:103B2200BCC0E1FFBDC0E2FF300EE66EBC4BBD2B58
:103B3200DC4BDD2B010ECE5F000ECF5BCE51CF11E1
:103B4200EFE174D0CE51CF1113E0D0B711D0BCC089
:103B5200E1FFBDC0E2FF200EE66EBC4BBD2BDC4B8D
:103B6200DD2B010ECE5F000ECF5BCE51CF11EFE108
:103B7200D0A312D0D0A103D02D0EC96F02D02B0E2C
:103B8200C96FBCC0E1FFBDC0E2FFC9C0E6FFBC4BCC
:103B9200BD2BDC4BDD2B0CD0D0A10AD0BCC0E1FF89
:103BA200BDC0E2FF200EE66EBC4BBD2BDC4BDD2B15
:103BB200C00ED015016ED151080B026E0250080AD8
:103BC20002E1400E01180BE1BCC0E1FFBDC0E2FF03
:103BD200300EE66EBC4BBD2BDC4BDD2B27D0C00E6E
:103BE200D015016ED151080B026E0250080A02E193
:103BF200800E01181BE1BCC0E1FFBDC0E2FF300E28
:103C0200E66EBC4BBD2BDC4BDD2BD0AB03D0580E8C
:103C1200CA6F02D0780ECA6FBCC0E1FFBDC0E2FF1E
:103C2200CAC0E6FFBC4BBD2BDC4BDD2B800E006E09
:103C3200800ECC19005C02E1CB51CD5D0BE2BCC021
:103C4200E1FFBDC0E2FF300EE66EBC4BBD2BDC4B8C
:103C5200DD2BECD7CBC000F0CCC001F0010ECB5F66
:103C6200000ECC5B00500110D8B42AD1C00ED01582
:103C7200006E00C0DEF00AD1CBC000F0CCC001F073
:103C8200000ECCBFFF0E026E036E003600900136AE
:103C92000236033600360090013602360336110E24
:103CA2000024F66E460E0120F76E000E0220F86E1A
:103CB2000900F5CF04F00900F5CF05F00900F5CFB2
:103CC20006F00900F5CF07F0D8C000F0D9C001F026
:103CD200DAC002F0DBC003F079EC06F00A0E046EE3
:103CE200000E056E066E076E79EC06F008C000F055
:103CF20009C001F00AC002F00BC003F0300E00242C
:103D0200CD6FD3D0D0AB45D0CBC000F0CCC001F04A
:103D1200000ECCBFFF0E026E036E0036009001361D
:103D22000236033600360090013602360336390E6B
:103D32000024F66E460E0120F76E000E0220F86E89
:103D42000900F5CF04F00900F5CF05F00900F5CF21
:103D520006F00900F5CF07F0D8C000F0D9C001F095
:103D6200DAC002F0DBC003F079EC06F00F0E0016A9
:103D7200000E0116021603166A0E0024F66E460E97
:103D82000120F76E000E0220F86E0900F5CFCDF08B
:103D920044D0CBC000F0CCC001F0000ECCBFFF0E6F
:103DA200026E036E0036009001360236033600368C
:103DB2000090013602360336390E0024F66E460EA6
:103DC2000120F76E000E0220F86E0900F5CF04F014
:103DD2000900F5CF05F00900F5CF06F00900F5CF8F
:103DE20007F0D8C000F0D9C001F0DAC002F0DBC0A1
:103DF20003F079EC06F00F0E0016000E0116021603
:103E02000316590E0024F66E460E0120F76E000EC0
:103E12000220F86E0900F5CFCDF047D0CBC000F0FC
:103E2200CCC001F0000ECCBFFF0E026E036E003656
:103E32000090013602360336003600900136023613
:103E42000336E10E0024F66E450E0120F76E000ED9
:103E52000220F86E0900F5CF04F00900F5CF05F055
:103E62000900F5CF06F00900F5CF07F0D8C000F041
:103E7200D9C001F0DAC002F0DBC003F079EC06F041
:103E8200070E0014CD6F300ECD270FD0DE51000A81
:103E9200D8B4F2D6DE51C00AD8B4EED6DE51800ACA
:103EA200D8B430D7DE51400AB9E0BCC0E1FFBDC092
:103EB200E2FFCDC0E6FFBC4BBD2BDC4BDD2BCAD6EF
:103EC200D0A71AD0800E006E800ECF19005C02E1DE
:103ED200CE51000811E2BCC0E1FFBDC0E2FF200EDE
:103EE200E66EBC4BBD2BDC4BDD2B010ECE5F000E14
:103EF200CF5BCE51CF11EFE176EF0FF0DCC000F0D7
:063F0200DDC001F0120019
:103F080010D0800E0001BC6F1AD0C00EBC6F17D045
:103F1800940EBC6F14D0D40EBC6F11D0800EBC6F41
:103F28000ED00001BC51010AECE0BC51020AEDE0E0
:103F3800BC51030AEDE0BC51040AEDE0EFD7BD0522
:103F4800006EBC51002600C0BCF000C0E9F057EC80
:103F580001F06E99C06BC051BE25E96E000EBF21FD
:103F6800EA6EEE520CE0C051BE25E96E000EBF218C
:103F7800EA6EEECFE4F032EC06F0C02BECD76E8997
:023F8800120025
:043F8A00C5841200D8
:103F8E00FF0E00018B6FFF0E8C6FFF0E8D6FFF0EFD
:103F9E008E6FC26A621D006E0050C1160F0EC012E7
:063FAE00C08EC28012006B
:103FB400A00E00018F6F020E906FE90E916F000E3C
:103FC400926FFF0E936FFF0E946F000E956F000EAD
:103FD400966FFF0E9B6FFF0E9C6F000E9D6F000E81
:103FE4009E6FFF0E976FFF0E986F000E996F000E75
:103FF4009A6FAC8A900EAB6E948E949C9EAA03D05A
:08400400AECF00F0FBD7120063
:10400C00020E0B6E040E0C6EBA0E0D6E0D2EFED73C
:0C401C000C2EFCD70B2EFAD7000012006F
:10402800960E0001836F1B0E846F000E856F000EC5
:10403800866F940E7F6F1C0E806F000E816F000ECE
:10404800826F240E7B6F1D0E7C6F000E7D6F000E3D
:104058007E6FC60E6F6F1B0E706FBC0E716F000EF9
:10406800726F7A0E736F1D0E746FBC0E756F000E33
:10407800766F8A0E876F3F0E886F000E896F000E6D
:104088008A6F949894968B988B9694889486C79EFA
:08409800C79C380EC66E120031
:1040A000939A93989390939293949396819A8198EC
:1040B00081968194819281902AEC01F02AEC01F0A2
:1040C0002AEC01F081828180818A35EC01F0819AAD
:1040D0002AEC01F0818A35EC01F0819A2AEC01F09A
:1040E000818A35EC01F0819A2AEC01F08190818A75
:1040F00035EC01F0819A2AEC01F0818A35EC01F06F
:10410000819A81928186818A35EC01F0819A2AEC2C
:1041100001F081968180818A35EC01F0819A81904D
:10412000818A35EC01F0819A2AEC01F0818A35EC24
:1041300001F0819A8180818A35EC01F0819A2AEC24
:1041400001F08190818A35EC01F0819A8186818429
:1041500081828180818A35EC01F0819A2AEC01F01C
:0641600000016E8912004F
:10416600010E0001E96F57EC01F00C0EE96F57ECF8
:1041760001F0010EBC6F010EBD6F410EBE6F000E49
:10418600BF6FBFDE0B0E0B6E260E0C6E5D0E0D6E38
:104196000D2EFED70C2EFCD70B2EFAD700000000F2
:1041A600010EE96F57EC01F0020EBC6F010EBD6FF8
:0C41B600340EBE6F000EBF6FA4DE1200BE
:1041C2004AEC0EF0A00E0001BC6FBDEC0EF0B1C0C7
:1041D200BCF0BDEC0EF092EC0EF0A10E0001BC6F33
:1041E200BDEC0EF00001BC6BE3EC0DF000C0B2F0D0
:0841F200CBDEB2C000F01200A8
:1041FA00B60E0001BA6F000EBB6FB1C0BCF0B2C000
:10420A00BDF0B3C0BEF0B4C0BFF0B5C0C0F0BA0EC6
:10421A00C16F000EC26F71EC0FF000C0B8F001C0A0
:10422A00B9F00050B125E16E0150B221E26EE66AA2
:0A423A00B8C000F0B9C001F0120096
:104244002450331803E100016E91246A242A1200D9
:10425400020E0001E96F50EC01F0B1C0BCF0000E99
:104264000001BD6F56EC0FF0030EE96F50EC01F046
:104274000A0E0001E96F50EC01F00D0E0001E96F28
:0642840050EC01F01200F5
:10428A00830E0001BC6F0F0EBD6FBE6B010EBF6FB8
:10429A00010EC06F1EEC0FF00052D8A46E85830E7B
:1042AA00BC6F0F0EBD6FBE6B010EBF6FC06B1EECF5
:1042BA000FF0005204E06EA502D06E876E95830E51
:1042CA00BC6F0F0EBD6F010EBE6F010EBF6F010EE8
:1042DA00C06F1EEC0FF00052D8A46E83830EBC6F21
:1042EA000F0EBD6F010EBE6F010EBF6FC06B1EECCD
:1042FA000FF000520DE06EA30BD06E97020EBC6F4A
:10430A00060EBD6F250EBE6F000EBF6FF8DD6E93F1
:10431A00830EBC6F0F0EBD6F020EBE6F010EBF6F14
:10432A00010EC06F1EEC0FF00052D8A46E8B830EE4
:10433A00BC6F0F0EBD6F020EBE6F010EBF6FC06B5A
:10434A001EEC0FF0005204E06EAB02D06E816E9B41
:02435A0012004F
:10435C004AEC0EF0A00E0001BC6FBDEC0EF0B1C02B
:10436C00BCF0BDEC0EF0B2C0BCF0BDEC0EF007DE44
:02437C0012002D
:10437E00C26A0001621D006E0050C1160F0EC012FF
:10438E00C08EB1C000F00036009000360090005094
:10439E00C212C28044EC0EF0C282C2A201D0FDD77E
:1043AE00C4CF01F0006A00C0B2F001C0B3F0C35038
:1043BE000012000E011200C0B2F001C0B3F0C290A4
:1043CE00000E0014026E0150800B036E000E0318D7
:1043DE0002E1000E021802E0B26BB36BB2C000F045
:0643EE00B3C001F0120053
:1043F4001A0E0C6EF80E0D6E0D2EFED70C2EFCD779
:0444040000001200A2
:10440800010E0F01386F396B3B6B3A6B799E789EC2
:10441800070E956E010E926E936A00016E976E916B
:104428006E956E93850ED56E0B0ED76EDC0ED66E1E
:10443800F28EF28AA8DDB886B06ACF0EAF6EAC8471
:10444800B5DD2ADE140EC86EEBDDDCDD88DE120079
:104458000900F5CFE6FF0006FBE10106F9E11200CD
:1044680000016EA131D06EB72FD024C0B1F0A5DE07
:1044780000C0AFF0000E0001B06F9F0EB16F000ECC
:10448800B26F7B0EB36F460EB46F000EB56FAFC040
:10449800B6F0B0C0B7F0ADDE9F0EB16FD7DE010E3B
:1044A8000001BC6F010EBD6F9F0EBE6F000EBF6F87
:1044B80027DD020EBC6F060EBD6F150EBE6F000E17
:0A44C800BF6F1EDDBBDECCD7120073
:1044D20000016EA71BD03350640818E33250331822
:1044E20015E0B16B4BDF33C0B1F000C0B2F035DF85
:1044F20080DFCADE020EBC6F060EBD6F530EBE6FAA
:0E450200000EBF6F00DD33C032F0E2D71200B2
:1045100042EC23F079DFB9DEDCDFA6DFFCD7FFD782
:1046840010EE15F0590E006E010E016E200EF66E3E
:0E469400450EF76E000EF86E2CEC22F01200B0
:0F45200044756D70696E672E2E2E2020202000AE
:01452F00018A
:0D45300053746F70202020202020202000D8
:01453D00007D
:01453E00007C
:0D453F004D6F64653A417474656E746500DB
:10454C00496E697469616C69736174696F6E2E2E42
:02455C002E002F
:0F455E0053746172742020202020202020200020
:01456D000F3E
:04456E000000000049
:07457200286E756C6C290036
:104579000000007F000020820000488500007A8842
:1045890000401C8C0050438F00247492809618962A
:1045990020BC3E99286B6E9CF90215A0EC782DC1C0
:0445A900CAF249E227
:1045AD000000007FCDCC4C7B0AD723786F120375AA
:1045BD0017B75171ACC5276EBD37066B95BF5667E2
:1045CD0077CC2B645F700961FFE65B5D08E53C3CD1
:0445DD006042221BFB
:1045E100010000000800000040000000000200007F
:1045F1000010000000800000000004000000200006
:104601000000000100000008000000400000000060
:10461100010000000A00000064000000E80300003F
:1046210010270000A086010040420F0080969800EC
:0846310000E1F50500CA9A3B07
:10463900010000001000000000010000001000004F
:10464900000001000000100000000001000000103F
:1046590030313233343536373839616263646566EF
:014669000050
:10466A00303132333435363738394142434445469E
:01467A00003F
:09467B00446174613A20257500C8
:020000040030CA
:0D000100231F3CFFBF81FF0FC00FE00F4029
:00000001FF
