:040000001DEF24F0DC
:10000800F2A409D0F2940B0ED76EDC0ED66E000166
:0800180079A501D03C2A11007A
:080020000AAE029E000E120060
:100028000B820BAE1EEF00F00368026801680068DF
:080038000A360232FF0E12002D
:0E004000026A016A006A086A036A000E120072
:10004E000B840BAE32EF00F0010E036E026A016AF2
:0A005E00006A0A360232FF0E12009B
:100068000CB076EF00F00CA21CEF01F00E6A000E47
:1000780002648DEF00F0F00E0214D8A458EF00F0DF
:10008800023A01380F0B02260138F00B016E0038D6
:100098000F0B01260038F00B006E08380F0B0026F6
:1000A8000838F00B086E0E84D89002BE71EF00F08D
:1000B80008360036013602360E2A02BE71EF00F00D
:1000C80008360036013602360E2A02BE71EF00F0FD
:1000D80008360036013602360E2A0E50036412EF37
:1000E80001F0035E0BBC08AE17EF01F0D880800E5C
:1000F80008640030000E002201220222D8A017EF67
:1001080001F0023201320032034A1CEF01F017EF0E
:1001180001F001C002F000C001F008C000F0086A58
:10012800000E0E860264C4EF00F0F00E0214D8A48C
:10013800ACEF00F0023A01380F0B02260138F00B41
:10014800016E00380F0B01260038F00B006E0E848C
:10015800D89002BE71EF00F00036013602360E2A42
:1001680002BE71EF00F00036013602360E2A02BEDA
:1001780071EF00F00036013602360E2A71EF00F0FA
:1001880001C002F000C001F0006A000E0E960E8851
:100198000264F1EF00F0F00E0214D8A4DCEF00F0D6
:1001A800023A01380F0B02260138F00B016E0E845B
:1001B800D89002BE71EF00F0013602360E2A02BE58
:1001C80071EF00F0013602360E2A02BE71EF00F020
:1001D800013602360E2A71EF00F001C002F0016A02
:1001E800000E0E86026421EF01F0F00E0214D8A46E
:1001F80000EF01F0023A0E84D89002BE71EF00F0D1
:1002080002360E2A02BE71EF00F002360E2A02BE36
:1002180071EF00F002360E2A71EF00F0010E0C6E3D
:1002280012DF24EF01F0020E0C6EF6DE24EF01F06F
:10023800040E0C6EF5DE24EF01F0080E0C6EFCDEE9
:020248001200A2
:10024A000B800BAE31EF01F0026A0AAEFF0E026EAE
:0C025A00016E006E0A360232FF0E120028
:080266000B6A0B86FF0E12006B
:06026E0000000000120078
:100274000F0E0C6E470E0D6E0D2EFED70C2EFCD7F6
:0602840000000000120062
:0A028A00210E0D6E0D2EFED712009E
:10029400086A096A000E07620364CFEF01F0025096
:1002A40006180A6E075003267E0ED8A060EF01F0F0
:1002B400035ED8B0D3EF01F064EF01F0035ED8A081
:1002C400D7EF01F0028E068E02C00EF001C00BF0D3
:1002D40000C00DF000500402F4CF0CF001500502F0
:1002E400F4CF00F0F3CF08F00402F3500C26F450DE
:1002F4000822000E00220D500502F3500C26F45083
:100304000822000E002202500402F3500826F45082
:10031400002202500502016A000E0122F350002659
:10032400F45001220D500602F3500826F450002226
:10033400026A000E012202220B500602F35000262C
:10034400F4500122000E02220E500602F350012640
:10035400F450022202BEB7EF01F00836003601362F
:1003640002360306D8B4D7EF01F0CAEF01F0D88003
:10037400800E08640030000E002201220222D8A060
:10038400CAEF01F0023201320032034AD3EF01F026
:100394000AAE029E000ED9EF01F0010E4FDED9EF36
:1003A40001F0020E3FDED9EF01F0040E4EDE120022
:1003B4000D6A086A0050D8B4000C04180A6E0ABE0C
:1003C4000D1E0B6A04AE02D0041E042A00AE02D035
:1003D400001E002A005004100A6E0ABE1FD00450EA
:1003E400085E003600340836045008260036060E2F
:1003F4000C6E00340836045000B0085E00A00826D5
:1004040000360C2EF6D700A008260BB015D00DAE82
:10041400000C001E002A081E082A000C04AE09D095
:1004240000BE04D00050086E006AF1D7006A002AAA
:10043400000C001E0B2AD3D7082A0450085CD8A449
:0E044400E6D7086A002A00AEE2D7FF0C1200CD
:100452000134083609360450085E0550D8A0053C20
:10046200095E003601360F0E0C6E0134083609366D
:10047200045000A006D0085E0550D8A0053C095ED5
:1004820005D008260550D8B0053C092600360136AD
:100492000C2EEBD700B006D0045008260550D8B079
:0804A200053C092600001200D0
:1004AA00025006180E6E086A096A0B6A035007643E
:1004BA0048EF03F006500A6E068E028E03500B6E4A
:1004CA000750036E000E0B6498EF02F00B50075EA4
:1004DA00D8B439EF03F0070E076407EF03F0075E9D
:1004EA0000C008F001C000F002C001F0026A074E25
:1004FA0039EF03F00764DCEF02F0075E00C008F092
:10050A0001C000F0016A074E39EF03F00764BAEF41
:10051A0002F0075E00C008F0006A074E39EF03F0E8
:10052A000764A1EF02F00AC002F005C001F004C09E
:10053A0000F0086A65EF04F0030E0764ACEF02F0FE
:10054A00075E08380F0B086E074E39EF03F0D89094
:10055A000832074E39EF03F0D8900832074E39EFC8
:10056A0003F0D890083239EF03F0030E0764CBEF9B
:10057A0002F0075E08380F0B086E0038F00B0826E9
:10058A0000380F0B006E074E39EF03F0D890003297
:10059A000832074E39EF03F0D89000320832074E7E
:1005AA0039EF03F0D8900032083239EF03F0030E26
:1005BA000764F3EF02F0075E08380F0B086E003885
:1005CA00F00B082600380F0B006E0138F00B0026DE
:1005DA0001380F0B016E074E39EF03F0D890013244
:1005EA0000320832074E39EF03F0D8900132003258
:1005FA000832074E39EF03F0D89001320032083240
:10060A0039EF03F0030E076424EF03F0075E08389E
:10061A000F0B086E0038F00B082600380F0B006E1F
:10062A000138F00B002601380F0B016E0238F00B6F
:10063A00012602380F0B026E074E39EF03F0D890ED
:10064A000232013200320832074E39EF03F0D890F5
:10065A000232013200320832074E39EF03F0D890E5
:10066A000232013200320832096A000E0EAE2DEF54
:10067A0004F0081E001E011E021E082A0022012282
:10068A0002222DEF04F00750D8A44EEF03F065EFD5
:10069A0004F0096A02C00AF0028E068E0750035C53
:1006AA00076ED8B420EF04F0070E0764EEEF03F0EC
:1006BA00075E0450096E0550046E0650056E066A00
:1006CA00074E20EF04F0070E0764C3EF03F0075E3E
:1006DA000450096E0550046E056A074E20EF04F0B7
:1006EA00070E0764A1EF03F0075E0450096E046A5F
:1006FA00074E20EF04F0070E076488EF03F00AC0E4
:10070A0002F065EF04F0030E076493EF03F0075E4F
:10071A0009380F0B096E074E20EF04F0D890093202
:10072A00074E20EF04F0D8900932074E20EF04F06C
:10073A00D890093220EF04F0030E0764B2EF03F0F9
:10074A00075E09380F0B096E0438F00B09260438C6
:10075A000F0B046E074E20EF04F0D89004320932D2
:10076A00074E20EF04F0D89004320932074E20EFEA
:10077A0004F0D8900432093220EF04F0030E076423
:10078A00DAEF03F0075E09380F0B096E0438F00B35
:10079A00092604380F0B046E0538F00B04260538B9
:1007AA000F0B056E074E20EF04F0D8900532043285
:1007BA000932074E20EF04F0D8900532043209328C
:1007CA00074E20EF04F0D89005320432093220EFA8
:1007DA0004F0030E07640BEF04F0075E09380F0BF1
:1007EA00096E0438F00B092604380F0B046E05381D
:1007FA00F00B042605380F0B056E0638F00B05269C
:10080A0006380F0B066E074E20EF04F0D89006321A
:10081A00053204320932074E20EF04F0D89006322E
:10082A00053204320932074E20EF04F0D89006321E
:10083A00053204320932086A000E0EAE2DEF04F0BA
:10084A00091E041E051E061E092A04220522062266
:10085A00095008260450002205500122065002229F
:10086A000EBE44EF04F0D8A053EF04F00232013276
:10087A0000320832033E53EF04F05FEF04F0D8B0C1
:10088A0059EF04F0000E081E001E011E021E082A5F
:10089A000022012202220A7E59EF04F0010E0C6E98
:1008AA0034EC00F067EF04F0020E0C6E34EC00F04A
:1008BA0067EF04F0040E0C6E14EC00F067EF04F01E
:0608CA00000E0C6E12008E
:1008D000086A080E0C6E003408360450085ED8B062
:0E08E00002D00826D89000360C2EF5D7120054
:1008EE000A6A0350D8A40A800750D8A40A820A5074
:1008FE00D8B4DAEF04F0030AD8B493EF04F00AB0D8
:10090E008EEF04F006AED8EF04F0D6EF04F002AE90
:10091E00D6EF04F0D8EF04F00250800B0A6E029E60
:10092E000650800B069E0A18D8B4A4EF04F00A50A5
:10093E00D8B4D6EF04F0D8EF04F00750035CD8B467
:10094E00AEEF04F0D8A0CAEF04F0D0EF04F00650DA
:10095E00025CD8B4B8EF04F0D8A0CAEF04F0D0EF20
:10096E0004F00550015CD8B4C2EF04F0D8A0CAEF71
:10097E0004F0D0EF04F00450005CD8B4DAEF04F0C9
:10098E00D8B0D0EF04F00A52D8B4D8EF04F0D6EFB6
:10099E0004F00A52D8B4D6EF04F0D8EF04F0D880A1
:0E09AE001200D8901200D880D88412001200D7
:1009BC000450000A08E10550000A05E1FF0E006E24
:1009CC007F0E016E57D00D6A096A086A015000103B
:1009DC00D8B4000C015005180A6E0ABE0D1E0B6A25
:1009EC0005AE05D0041E051E042AD8B4052A01AE96
:1009FC0005D0001E011E002AD8B4012A0150051092
:100A0C000A6E0ABE10D01FDD0BB020D00DAE000C4C
:100A1C00001E011E002AD8B4012A081E091E082A2D
:100A2C00D8B4092A000C05AE0DD001BE07D0015078
:100A3C00096E0050086E016A006AE8D7016A006A04
:100A4C00002A000C011E001E0B2ADDD7082AD8B480
:100A5C00092A0450085CD8A4D9D70550095CD8A43D
:100A6C00D5D7096A086A002AD8B4012A01AECED7B4
:060A7C000000FF0C120057
:100A820003500718D8A455EF05F002500618D8A451
:100A920055EF05F001500518D8A455EF05F00050A8
:0E0AA2000418D8B4D8841200D89412001200A0
:100AB0000B6A0A6A096A00500402F4CF09F0F3CF06
:100AC00008F001500502F4CF0BF0F3CF0AF000500C
:100AD0000502F3500926F4500A22E86A0B2201505D
:100AE0000402F3500926F4500A22E86A0B2208C0D7
:100AF00000F009C001F00AC002F00BC003F01200C0
:0E0B0000ACB202D00000FCD74AC1ADFF12001B
:0C0B0E0072B201D0FDD74AC173FF120083
:100B1A0001014A51390806E3300E4A5D03E3010E2A
:080B2A00006E01D0006A120008
:100B320001014ABF02D0819601D081864ABD02D00E
:100B4200819401D081844ABB02D0819201D08182FA
:100B52004AB902D0819001D08180000179BB02D0D4
:100B6200818801D08198818A37EC01F0819A010154
:100B72004AB702D0819601D081864AB502D08194CB
:100B820001D081844AB302D0819201D081824AB1DC
:100B920002D0819001D08180000179BB02D081888E
:100BA20001D08198818A37EC01F0819A79AB03D028
:0C0BB2003AEC01F002D045EC01F012001A
:060BBE00067E74DC12004B
:100BC4000B6A0A6A096A086A0E6A03340836045012
:100BD400085E0550D8A0053C095E0650D8A0063C26
:100BE4000A5E0750D8A0073C0B5EE86AD8A0010E45
:100BF4000E5E0336070E0C6E0334083609360A36C9
:100C04000B360E36045003A012D0085E0550D8A04F
:100C1400053C095E0650D8A0063C0A5E0750D8A0E1
:100C2400073C0B5EE86AD8A0010E0E5E11D00826C0
:100C34000550D8B0053C09260650D8B0063C0A2613
:100C44000750D8B0073C0B26E86AD8B0010E0E2630
:100C540003360C2ED1D70234083609360A360B3641
:100C64000E36045003A012D0085E0550D8A0053CEF
:100C7400095E0650D8A0063C0A5E0750D8A0073C7F
:100C84000B5EE86AD8A0010E0E5E11D0082605504E
:100C9400D8B0053C09260650D8B0063C0A260750B1
:100CA400D8B0073C0B26E86AD8B0010E0E260236EF
:100CB400070E0C6E0234083609360A360B360E3629
:100CC400045002A012D0085E0550D8A0053C095E6D
:100CD4000650D8A0063C0A5E0750D8A0073C0B5E1D
:100CE400E86AD8A0010E0E5E11D008260550D8B0CF
:100CF400053C09260650D8B0063C0A260750D8B051
:100D0400073C0B26E86AD8B0010E0E2602360C2EDC
:100D1400D1D70134083609360A360B360E3604505C
:100D240002A012D0085E0550D8A0053C095E06500A
:100D3400D8A0063C0A5E0750D8A0073C0B5EE86AC0
:100D4400D8A0010E0E5E11D008260550D8B0053C7F
:100D540009260650D8B0063C0A260750D8B0073CEE
:100D64000B26E86AD8B0010E0E260136070E0C6E6B
:100D74000134083609360A360B360E36045001A003
:100D840012D0085E0550D8A0053C095E0650D8A0D4
:100D9400063C0A5E0750D8A0073C0B5EE86AD8A060
:100DA400010E0E5E11D008260550D8B0053C092668
:100DB4000650D8B0063C0A260750D8B0073C0B268C
:100DC400E86AD8B0010E0E2601360C2ED1D70034B5
:100DD400083609360A360B360E36045001A012D0F6
:100DE400085E0550D8A0053C095E0650D8A0063C14
:100DF4000A5E0750D8A0073C0B5EE86AD8A0010E33
:100E04000E5E11D008260550D8B0053C09260650C0
:100E1400D8B0063C0A260750D8B0073C0B26E86A2F
:100E2400D8B0010E0E260036070E0C6E00340836BC
:100E340009360A360B360E36045000A012D0085E6E
:100E44000550D8A0053C095E0650D8A0063C0A5EB1
:100E54000750D8A0073C0B5EE86AD8A0010E0E5ECE
:100E640011D008260550D8B0053C09260650D8B044
:100E7400063C0A260750D8B0073C0B26E86AD8B0CF
:100E8400010E0E2600360C2ED1D700B00ED0045021
:100E940008260550D8B0053C09260650D8B0063CB3
:0C0EA4000A260750D8B0073C0B261200AD
:100EB0000050086E0150006E0250016E0350026E29
:100EC000036A0B6A0C6A9E0E036E0A6A020E0C6EAF
:060ED00034EC00F01200FA
:100ED6000B6A0C6A0A6A086A0350D8B4F3EF07F083
:100EE600028E9E0E035E03BE7EEF07F0D8B47EEF41
:100EF60007F0E3EF07F0036C080E035CD8A0B0EF31
:100F060007F0036E083600C008F001C000F002C00A
:100F160001F0026A080E035CD8A0B0EF07F0036E7A
:100F2600083600C008F001C000F0016A080E035C34
:100F3600D8A0B0EF07F0036E083600C008F0006ACC
:100F4600080E035CD8A0B0EF07F0036E0836086AF7
:100F56000350D8A4D890BCEF07F00350D8B4BCEF28
:100F660007F0D8900232013200320832032EB4EF75
:100F760007F00BBC08A0CDEF07F0D8A0CDEF07F027
:100F8600082AD8B4002AD8B4012AD8B4022A02BE44
:100F9600F7EF07F00AAEF3EF07F0021E011E001E80
:100FA600081E082AD8B4002AD8B4012AD8B4022ABE
:100FB600F3EF07F0026A016A006A086AF3EF07F0C6
:100FC6000B800BAEFDEF07F0026A0AAEFDEF07F0ED
:100FD600026E016E006E086E0A360232FDEF07F0F1
:100FE600000E0C6AFEEF07F0010E0C6E25EC01F008
:100FF600FEEF07F0FF0E0250036E0150026E005026
:08100600016E0850006E12009B
:10100E00800E01014A19006E800E000A005CD8B0F5
:10101E006DD14A510008016E01C04AF1800E0118CF
:10102E00006E800E6E0A005CD8A0C0D0640E046EF6
:10103E004AC100F0DAEC01F0120E0024056E000E2B
:10104E0000BEFF0E066E000E062205C000F006C0A2
:10105E0001F0000E06BEFF0E026E036E003600900B
:10106E00013602360336003600900136023603365C
:10107E00260E0024F66E490E0120F76E000E022099
:10108E00F86E0900F5CF4BF10900F5CF4CF10900D0
:10109E00F5CF4DF10900F5CF4EF1640E046E4AC145
:1010AE0000F0DAEC01F008C000F00A0E046EDAEC83
:1010BE0001F0090E0024056E000E00BEFF0E066E36
:1010CE00000E062205C000F006C001F0000E06BE9E
:1010DE00FF0E026E036E00360090013602360336A6
:1010EE0000360090013602360336260E0024F66EC8
:1010FE00490E0120F76E000E0220F86E0900F5CFA2
:10110E0000F00900F5CF01F00900F5CF02F009005B
:10111E00F5CF03F04BC104F04CC105F04DC106F004
:10112E004EC107F04AEC01F000C04BF101C04CF18A
:10113E0002C04DF103C04EF10A0E046E4AC100F01A
:10114E00DAEC01F008C000F000C001F0000E00BEA5
:10115E00FF0E026E036E046E0136019002360336E8
:10116E00043601360190023603360436260E01246B
:10117E00F66E490E0220F76E000E0320F86E09007F
:10118E00F5CF00F00900F5CF01F00900F5CF02F020
:10119E000900F5CF03F04BC104F04CC105F04DC171
:1011AE0006F04EC107F04AEC01F007D2800E0A0A93
:1011BE00006E800E4A19005C71E20A0E046E4AC17E
:1011CE0000F0DAEC01F0090E0024056E000E00BEF0
:1011DE00FF0E066E000E062205C000F006C001F0DE
:1011EE00000E06BEFF0E026E036E00360090013634
:1011FE000236033600360090013602360336260ECE
:10120E000024F66E490E0120F76E000E0220F86ED5
:10121E000900F5CF4BF10900F5CF4CF10900F5CFE0
:10122E004DF10900F5CF4EF10A0E046E4AC100F0E1
:10123E00DAEC01F008C000F000C001F0000E00BEB4
:10124E00FF0E026E036E046E0136019002360336F7
:10125E00043601360190023603360436260E01247A
:10126E00F66E490E0220F76E000E0320F86E09008E
:10127E00F5CF00F00900F5CF01F00900F5CF02F02F
:10128E000900F5CF03F04BC104F04CC105F04DC180
:10129E0006F04EC107F04AEC01F08FD14AC100F0C2
:1012AE00000E4ABFFF0E016E026E036E00360090F6
:1012BE00013602360336003600900136023603360A
:1012CE00260E0024F66E490E0120F76E000E022047
:1012DE00F86E0900F5CF00F00900F5CF01F0090016
:1012EE00F5CF02F00900F5CF03F067D1800E4A1951
:1012FE00006E800E6E0A005CD8A0C0D0640E046E24
:10130E004AC100F0DAEC01F0120E0024056E000E58
:10131E0000BEFF0E066E000E062205C000F006C0CF
:10132E0001F0000E06BEFF0E026E036E0036009038
:10133E000136023603360036009001360236033689
:10134E00F20E0024F66E480E0120F76E000E0220FB
:10135E00F86E0900F5CF4BF10900F5CF4CF10900FD
:10136E00F5CF4DF10900F5CF4EF1640E046E4AC172
:10137E0000F0DAEC01F008C000F00A0E046EDAECB0
:10138E0001F0090E0024056E000E00BEFF0E066E63
:10139E00000E062205C000F006C001F0000E06BECB
:1013AE00FF0E026E036E00360090013602360336D3
:1013BE0000360090013602360336F20E0024F66E29
:1013CE00480E0120F76E000E0220F86E0900F5CFD0
:1013DE0000F00900F5CF01F00900F5CF02F0090089
:1013EE00F5CF03F04BC104F04CC105F04DC106F032
:1013FE004EC107F04AEC01F000C04BF101C04CF1B8
:10140E0002C04DF103C04EF10A0E046E4AC100F047
:10141E00DAEC01F008C000F000C001F0000E00BED2
:10142E00FF0E026E036E046E013601900236033615
:10143E00043601360190023603360436F20E0124CC
:10144E00F66E480E0220F76E000E0320F86E0900AD
:10145E00F5CF00F00900F5CF01F00900F5CF02F04D
:10146E000900F5CF03F04BC104F04CC105F04DC19E
:10147E0006F04EC107F04AEC01F09FD0800E0A0A2A
:10148E00006E800E4A19005C71E20A0E046E4AC1AB
:10149E0000F0DAEC01F0090E0024056E000E00BE1D
:1014AE00FF0E066E000E062205C000F006C001F00B
:1014BE00000E06BEFF0E026E036E00360090013661
:1014CE000236033600360090013602360336F20E2F
:1014DE000024F66E480E0120F76E000E0220F86E04
:1014EE000900F5CF4BF10900F5CF4CF10900F5CF0E
:1014FE004DF10900F5CF4EF10A0E046E4AC100F00F
:10150E00DAEC01F008C000F000C001F0000E00BEE1
:10151E00FF0E026E036E046E013601900236033624
:10152E00043601360190023603360436F20E0124DB
:10153E00F66E480E0220F76E000E0320F86E0900BC
:10154E00F5CF00F00900F5CF01F00900F5CF02F05C
:10155E000900F5CF03F04BC104F04CC105F04DC1AD
:10156E0006F04EC107F04AEC01F027D04AC100F058
:10157E00000E4ABFFF0E016E026E036E0036009023
:10158E000136023603360036009001360236033637
:10159E00F20E0024F66E480E0120F76E000E0220A9
:1015AE00F86E0900F5CF00F00900F5CF01F0090043
:0C15BE00F5CF02F00900F5CF03F0120099
:1015CA000B6A0C6A086A0350D8B469EF0BF002C0C0
:1015DA000AF0028E9E0E035E03AE59EF0BF0036C07
:1015EA00080E035CD8A026EF0BF0036E083600C085
:1015FA0008F001C000F002C001F0026A080E035CA4
:10160A00D8A026EF0BF0036E083600C008F001C020
:10161A0000F0016A080E035CD8A026EF0BF0036EF7
:10162A00083600C008F0006A080E035CD8A026EF4E
:10163A000BF0036E0836086A0350D8A4D89032EF2C
:10164A000BF00350D8B432EF0BF0D89002320132CB
:10165A0000320832032E2AEF0BF00BBC08A043EF2E
:10166A000BF0D8A043EF0BF0082AD8B4002AD8B45C
:10167A00012AD8B4022A02BE6DEF0BF00AAE69EF56
:10168A000BF0021E011E001E081E082AD8B4002AEA
:10169A00D8B4012AD8B4022A69EF0BF0026A016AA7
:1016AA00006A086A69EF0BF00B800BAE74EF0BF05F
:1016BA00026A0AAE74EF0BF0026E016E006E086EDB
:1016CA000A36023274EF0BF00C6A000E75EF0BF05B
:1016DA00010E0C6E000E25EC01F075EF0BF0FF0EFB
:1016EA000250036E0150026E0050016E0850006EE7
:0216FA001200DC
:1016FC000450000A12E10550000A0FE10650000ADE
:10170C000CE10750000A09E1FF0E006EFF0E016E9E
:10171C007F0E026EFF0E036EA8D0086A096A07508E
:10172C00D8B429EF0CF00350D8B42EEF0CF00250C3
:10173C0006180A6E028E068E0E6A02C008F001C0F0
:10174C000CF000C00DF004500D5E0550D8A0053C07
:10175C000C5E0650D8A0063C085E086A0C6A0D6A3E
:10176C00D8A0C0EF0BF0D890023201320032083210
:10177C00010E0E6E0750035ED8A0CDEF0BF07E0E5F
:10178C000E240326D8B033EF0CF0D3EF0BF07E0E03
:10179C000E240326D8A038EF0CF0180E0B6E0D3665
:1017AC000C3608360036013602360E360450005E12
:1017BC000550D8A0053C015E0650D8A0063C025E40
:1017CC0006340E120EA0EEEF0BF00D80F9EF0BF0BD
:1017DC00045000260550D8B0053C01260650D8B060
:1017EC00062802260D900B2ED5EF0BF01FEF0CF0F8
:1017FC00D8900036013602360E360450005E055085
:10180C00D8A0053C015E0650D8A0063C025E06340A
:10181C000E10010B0D26D8B00C2AD8B4082AD8A467
:10182C001FEF0CF008320C320D32032AD8B433EF10
:10183C000CF00AAE089E0850026E0C50016E0D5052
:10184C00006E3BEF0CF0010E33EC01F03BEF0CF0B3
:10185C00020E20EC00F03BEF0CF0040E14EC00F048
:0C186C003BEF0CF0080E27EC00F012001F
:101878006E0E01014A5DD8A0CAD0640E046E4AC13A
:1018880000F068EC04F0120E0024056E066A000EE3
:10189800062205C000F006C001F0000E06BEFF0ECD
:1018A800026E036E003600900136023603360036AB
:1018B8000090013602360336260E0024F66E490ED5
:1018C8000120F76E000E0220F86E0900F5CF00F037
:1018D8000900F5CF01F00900F5CF02F00900F5CFB6
:1018E80003F0000E046E000E056E000E066E7E0EEE
:1018F800076E4AEC01F000C04BF101C04CF102C088
:101908004DF103C04EF1640E046E4AC100F068EC5C
:1019180004F008C000F00A0E046E68EC04F0090E2A
:101928000024056E066A000E062205C000F006C0F7
:1019380001F0000E06BEFF0E026E036E0036009028
:101948000136023603360036009001360236033679
:10195800260E0024F66E490E0120F76E000E0220B6
:10196800F86E0900F5CF00F00900F5CF01F0090085
:10197800F5CF02F00900F5CF03F04BC104F04CC1DC
:1019880005F04DC106F04EC107F04AEC01F000C069
:101998004BF101C04CF102C04DF103C04EF10A0EEB
:1019A800046E4AC100F068EC04F008C000F000C002
:1019B80001F0000E026E036E046E013601900236CD
:1019C8000336043601360190023603360436260EF5
:1019D8000124F66E490E0220F76E000E0320F86E01
:1019E8000900F5CF00F00900F5CF01F00900F5CFA7
:1019F80002F00900F5CF03F04BC104F04CC105F02B
:101A08004DC106F04EC107F04AEC01F0B1D04A5181
:101A18000A08D8B07ED00A0E046E4AC100F068ECFD
:101A280004F0090E0024056E066A000E062205C0A1
:101A380000F006C001F0000E06BEFF0E026E036E37
:101A48000036009001360236033600360090013623
:101A580002360336260E0024F66E490E0120F76E74
:101A6800000E0220F86E0900F5CF00F00900F5CF4E
:101A780001F00900F5CF02F00900F5CF03F0000EE0
:101A8800046E000E056E000E066E7E0E076E4AECA2
:101A980001F000C04BF101C04CF102C04DF103C090
:101AA8004EF10A0E046E4AC100F068EC04F008C05A
:101AB80000F000C001F0000E026E036E046E0136E5
:101AC8000190023603360436013601900236033699
:101AD8000436260E0124F66E490E0220F76E000E1B
:101AE8000320F86E0900F5CF00F00900F5CF01F0EA
:101AF8000900F5CF02F00900F5CF03F04BC104F05F
:101B08004CC105F04DC106F04EC107F04AEC01F09A
:101B18002FD04AC100F0000E016E026E036E00362F
:101B28000090013602360336003600900136023640
:101B38000336260E0024F66E490E0120F76E000EBD
:101B48000220F86E0900F5CF00F00900F5CF01F08A
:101B58000900F5CF02F00900F5CF03F0000E046E7E
:101B6800000E056E000E066E7E0E076E4AEC01F042
:021B7800120059
:101B7A000101426B436B366B376B24C100F025C100
:101B8A0001F026C102F0010E2427000E2523262388
:101B9A0000C0F6FF01C0F7FF02C0F8FF0900F5CF49
:101BAA0000F000C033F10052D8B4CBEF1DF033512E
:101BBA00250A0BE022C1E1FF23C1E2FF33C1E6FFA0
:101BCA00224B232B424B432BD8D7346B356B366BC6
:101BDA00376B23D03687010E2427000E25232623B0
:101BEA0059D03681010E2427000E2523262352D0F0
:101BFA003683010E2427000E252326234BD0378750
:101C0A00010E2427000E2523262344D03685010EF3
:101C1A002427000E252326233DD024C1F6FF25C103
:101C2A00F7FF26C1F8FF0900F5CF01F001502D0A90
:101C3A00D1E024C1F6FF25C1F7FF26C1F8FF09004C
:101C4A00F5CF01F00150200ACCE024C1F6FF25C1EE
:101C5A00F7FF26C1F8FF0900F5CF01F001502B0A62
:101C6A00C7E024C1F6FF25C1F7FF26C1F8FF090026
:101C7A00F5CF01F00150230AC2E024C1F6FF25C1C5
:101C8A00F7FF26C1F8FF0900F5CF01F00150300A2D
:101C9A00BDE001D09ED736A301D0369136A701D038
:101CAA00369524C1F6FF25C1F7FF26C1F8FF0900C2
:101CBA00F5CF00F0000E016E00C04AF18DEC05F080
:101CCA00005236E0346B356B34C100F035C101F097
:101CDA000A0E046E000E056E58EC05F024C1F6FFDC
:101CEA0025C1F7FF26C1F8FF0900F5CF02F002501F
:101CFA000024346F000E0120356F300E345F000E61
:101D0A00355B010E2427000E2523262324C1F6FF66
:101D1A0025C1F7FF26C1F8FF0900F5CF00F0000E34
:101D2A00016E00C04AF18DEC05F00052CDE133D0CE
:101D3A0024C1F6FF25C1F7FF26C1F8FF0900F5CF38
:101D4A0001F001502A0A27E127C1E9FF28C1EAFF69
:101D5A00EECF00F0EECF01F000C0E9FF01C0EAFFCC
:101D6A00EECF34F1EECF35F127C1E9FF28C1EAFF02
:101D7A00020EEE24006E000EEE20016E27C1E1FF76
:101D8A0028C1E2FF00C0E6FF01C0E6FF010E2427DA
:101D9A00000E2523262324C1F6FF25C1F7FF26C1FD
:101DAA00F8FF0900F5CF01F001502E0A70E1010E8B
:101DBA002427000E2523262324C1F6FF25C1F7FF79
:101DCA0026C1F8FF0900F5CF01F001502A0A28E1DF
:101DDA0027C1E9FF28C1EAFFEECF00F0EECF01F0FC
:101DEA0000C0E9FF01C0EAFFEECF31F1EECF32F1D8
:101DFA0027C1E9FF28C1EAFF020EEE24006E000E99
:101E0A00EE20016E27C1E1FF28C1E2FF00C0E6FF14
:101E1A0001C0E6FF010E2427000E2523262336D013
:101E2A00316B326B24C1F6FF25C1F7FF26C1F8FFDB
:101E3A000900F5CF00F0000E016E00C04AF18DECEA
:101E4A0005F0005223E031C100F032C101F00A0E60
:101E5A00046E000E056E58EC05F024C1F6FF25C18C
:101E6A00F7FF26C1F8FF0900F5CF02F0025000245F
:101E7A00316F000E0120326F300E315F000E325B7F
:101E8A00010E2427000E25232623CCD703D0316B3D
:101E9A00326B378924C100F025C101F026C102F056
:101EAA00010E2427000E2523262300C0F6FF01C0B9
:101EBA00F7FF02C0F8FF0900F5CF33F1F9D042C1AC
:101ECA0000F043C101F0CFEF1DF03689E3D7378523
:101EDA002ED1368B37812BD1378329D1368D27D115
:101EEA0026D1368B368F23D127C1E9FF28C1EAFFD5
:101EFA00EECF00F0EECF01F000C0E9FF01C0EAFF2B
:101F0A00EECF3EF1EECF3FF127C1E9FF28C1EAFF4C
:101F1A00020EEE24006E000EEE20016E27C1E1FFD4
:101F2A0028C1E2FF00C0E6FF01C0E6FF000E3F192C
:101F3A0002E1000E3E1904E1220E3E6F000E3F6FD1
:101F4A00406B416B40513E25E96E41513F21EA6E9B
:101F5A00EE520BE0010E4025006E000E4121016E8B
:101F6A0000C040F101C041F1EDD7315132110AE010
:101F7A004151325D02E14051315D04E231C140F12B
:101F8A0032C141F13551415D02E13451405D05E212
:101F9A004051345F4151355B02D0346B356B36B7F3
:101FAA0016D034C100F035C101F0010E345F000EC5
:101FBA00355B005001100BE022C1E1FF23C1E2FFB3
:101FCA00200EE66E224B232B424B432BEAD740C10D
:101FDA0002F041C103F0010E405D006E000E41594E
:101FEA00016E00C040F101C041F10250031019E036
:101FFA003EC1E9FF3FC1EAFF22C1E1FF23C1E2FF7F
:10200A00EECFE6FF224B232B010E3E25006E000E7B
:10201A003F21016E00C03EF101C03FF1424B432B0C
:10202A00D6D736A716D034C100F035C101F0010E5B
:10203A00345F000E355B005001100BE022C1E1FF56
:10204A0023C1E2FF200EE66E224B232B424B432B89
:10205A00EAD793D527C1E9FF28C1EAFFEECF00F0FE
:10206A00EECF01F000C0E9FF01C0EAFFEECF33F185
:10207A0027C1E9FF28C1EAFF020EEE24006E000E16
:10208A00EE20016E27C1E1FF28C1E2FF00C0E6FF92
:10209A0001C0E6FF330E3E6F010E3F6F010E406F27
:1020AA00000E416F62D7C00E3613000E37133FD0B1
:1020BA003351000AD8B403D733516C0AD8B405D7C0
:1020CA0033514C0AD8B401D73351660AD8B4FFD673
:1020DA003351450AD8B4FDD63351650AD8B4FAD675
:1020EA003351670AD8B4F8D633516F0AD8B4F6D642
:1020FA003351640AD8B4F4D63351690AD8B4F0D645
:10210A003351700AD8B4EDD63351580AD8B4E9D647
:10211A003351780AD8B4E6D63351730AD8B4E4D620
:10212A003351630A97E03351750ABDE0B3D7000E05
:10213A003615006E3751070B016E00500110D8B4E6
:10214A0072EF19F037A904D0060E316F000E326F04
:10215A0027C1E9FF28C1EAFFEECF00F0EECF01F078
:10216A0000C0E9FF01C0EAFFEECF38F1EECF39F146
:10217A00EECF3AF1EECF3BF127C1E9FF28C1EAFFE2
:10218A00040EEE24006E000EEE20016E27C1E1FF60
:10219A0028C1E2FF00C0E6FF01C0E6FF046A056A43
:1021AA00066A076A38C100F039C101F03AC102F083
:1021BA003BC103F077EC04F0010ED8B0000E006EBC
:1021CA00005205E03A7F030E3613000E37133C6BBC
:1021DA003D6B38C100F039C101F03AC102F03BC190
:1021EA0003F0046A056A066A076A41EC05F0000E04
:1021FA00D8A4010E006E0052D8B48AD03BC100F0B8
:10220A00016A026A036AFF0E0016000E01167E0EAC
:10221A00005E000E015A00C03CF101C03DF1010E02
:10222A00005E000E015A00C03CF101C03DF1030EF0
:10223A00046E000E056E58EC05F000C03CF101C0BA
:10224A003DF10A0E046E000E056EDEEC04F000C0CD
:10225A003CF101C03DF1800E0118026E800E025C55
:10226A0002E1000E005C05E2010E01013C5F000E76
:10227A003D5B01013C5100084A6F07EC08F038C188
:10228A0004F039C105F03AC106F03BC107F04AEC47
:10229A0001F000C03EF101C03FF102C040F103C0AD
:1022AA0041F1000E046E000E056E000E066E7F0EE2
:1022BA00076E3EC100F03FC101F040C102F041C1CA
:1022CA0003F077EC04F0010ED8B0000E006E005255
:1022DA0005E0010E3C5F000E3D5B1AD0000E046E55
:1022EA00000E056E200E066E820E076E3EC100F0CD
:1022FA003FC101F040C102F041C103F077EC04F0A4
:10230A00000ED8B0010E006E005202E03C4B3D2B8D
:10231A00800E006E800E3D19005C02E13C510008FF
:10232A0003E3010E336F02D03CC133F137B118D049
:10233A0037A315D0800E3D19006E7F0E005C02E1B6
:10234A00FC0E3C5D0BE3800E3D19006E800E3219C7
:10235A00005C02E131513C5D01E201D001D0EFD3D2
:10236A003151321106E037A304D0010E315F000E5D
:10237A00325B3251000802E13151080803E2080ECB
:10238A00336F02D031C133F138C100F039C101F0E5
:10239A003AC102F03BC103F0046A056A066A076A99
:1023AA0041EC05F0000ED8A4010E006E0052D8B41C
:1023BA004BD13CC14AF107EC08F000C004F001C05F
:1023CA0005F002C006F003C007F038C100F039C1B9
:1023DA0001F03AC102F03BC103F07EEC0BF000C001
:1023EA0038F101C039F102C03AF103C03BF10101F1
:1023FA00335100084A6F07EC08F000C004F001C02E
:10240A0005F002C006F003C007F038C100F039C178
:10241A0001F03AC102F03BC103F07EEC0BF000C0C0
:10242A0044F101C045F102C046F103C047F144C17D
:10243A0038F145C139F146C13AF147C13BF144C1CE
:10244A0000F045C101F046C102F047C103F06BEC50
:10245A0007F058EC07F000C004F001C005F002C014
:10246A0006F003C007F044C100F045C101F046C1BF
:10247A0002F047C103F0DFEC05F0000E046E000E17
:10248A00056E000E066E7E0E076E77EC04F0000EE7
:10249A00D8B0010E006E00521AE038C100F039C1FE
:1024AA0001F03AC102F03BC103F0000E046E000EC7
:1024BA00056E000E066E7E0E076E55EC02F000C029
:1024CA0038F101C039F102C03AF103C03BF138C119
:1024DA0000F039C101F03AC102F03BC103F06BECE4
:1024EA0007F001013351010F096E0A6A000E0A2230
:1024FA0009C004F00AC005F0000E0ABEFF0E066EFF
:10250A00076E0436049005360636073604360490FC
:10251A000536063607368A0E0424F66E490E05205D
:10252A00F76E000E0620F86E0900F5CF05F00900D7
:10253A00F5CF06F00900F5CF07F00900F5CF08F04E
:10254A000850035C08E10750025C05E10650015C93
:10255A0002E10550005C1EE3010138C100F039C1F7
:10256A0001F03AC102F03BC103F0CD0E046ECC0E6D
:10257A00056E4C0E066E7B0E076E4AEC01F000C02B
:10258A0038F101C039F102C03AF103C03BF13C4BCA
:10259A003D2B5AD038C100F039C101F03AC102F0DE
:1025AA003BC103F06BEC07F033C104F0000E056E7B
:1025BA00066E076E0436049005360636073604366C
:1025CA0004900536063607368A0E0424F66E490E3E
:1025DA000520F76E000E0620F86E0900F5CF05F00B
:1025EA000900F5CF06F00900F5CF07F00900F5CF8D
:1025FA0008F00850035C08E10750025C05E1065048
:10260A00015C02E10550005C1FE2010138C100F0E3
:10261A0039C101F03AC102F03BC103F0000E046E69
:10262A00000E056E200E066E820E076E4AEC01F051
:10263A0000C038F101C039F102C03AF103C03BF1E0
:10264A00010E3C5F000E3D5B010137A393D037B703
:10265A0091D0800E000A006E800E3219005C02E1F1
:10266A0031510A0804E20A0E316F000E326F38C186
:10267A0000F039C101F03AC102F03BC103F06BEC42
:10268A0007F000C03EF101C03FF102C040F103C0B3
:10269A0041F13E513F114011411142E00A0E046ED0
:1026AA00000E056E066E076E3EC100F03FC101F0D6
:1026BA0040C102F041C103F0E2EC05F008C000F0AD
:1026CA0009C001F00AC002F00BC003F0000E046E4C
:1026DA00031808E10450021805E10450011802E148
:1026EA000050000A1DE1010E315F000E325B0A0E36
:1026FA00046E000E056E066E076E3EC100F03FC105
:10270A0001F040C102F041C103F0E2EC05F000C063
:10271A003EF101C03FF102C040F103C041F1B9D717
:10272A00800E3219006E800E005C02E13351315D79
:10273A0021E23151335D4A6F07EC08F000C004F022
:10274A0001C005F002C006F003C007F038C100F06E
:10275A0039C101F03AC102F03BC103F07EEC0BF043
:10276A0000C038F101C039F102C03AF103C03BF1AF
:10277A0031C133F1050E01013125006E000E3221FF
:10278A00016E0050345F0150355B3151321103E163
:10279A0037B701D004D0010E345F000E355B030E4B
:1027AA003615006E37C101F0000E011600500110F7
:1027BA0004E0010E345F000E355B36A539D036A32E
:1027CA0012D036A103D02D0E296F02D02B0E296FFD
:1027DA0022C1E1FF23C1E2FF29C1E6FF224B232BDD
:1027EA00424B432B0CD036A10AD022C1E1FF23C1B0
:1027FA00E2FF200EE66E224B232B424B432B800E28
:10280A00006E800E3519005C02E1345100080FE2B7
:10281A0022C1E1FF23C1E2FF300EE66E224B232BD9
:10282A00424B432B010E345F000E355BE8D73AD09A
:10283A0036B718D0800E006E800E3519005C02E1A2
:10284A00345100080FE222C1E1FF23C1E2FF200E4A
:10285A00E66E224B232B424B432B010E345F000EB4
:10286A00355BE8D736A312D036A103D02D0E2A6FD6
:10287A0002D02B0E2A6F22C1E1FF23C1E2FF2AC137
:10288A00E6FF224B232B424B432B0CD036A10AD016
:10289A0022C1E1FF23C1E2FF200EE66E224B232B69
:1028AA00424B432B38C100F039C101F03AC102F062
:1028BA003BC103F06BEC07F000C03EF101C03FF1F1
:1028CA0002C040F103C041F133C100F0000E016EB5
:1028DA00026E036E00360090013602360336003669
:1028EA0000900136023603368A0E0024F66E490E2F
:1028FA000120F76E000E0220F86E0900F5CF04F0F1
:10290A000900F5CF05F00900F5CF06F00900F5CF6B
:10291A0007F03EC100F03FC101F040C102F041C1E1
:10292A0003F0E2EC05F0300E002622C1E1FF23C1DC
:10293A00E2FF00C0E6FF224B232B424B432B3151CF
:10294A00321103E137B701D06FD022C1E1FF23C1B1
:10295A00E2FF2E0EE66E224B232B424B432B3351C2
:10296A00315F000E325B33534DE0330733C100F061
:10297A00000E016E026E036E0036009001360236BA
:10298A000336003600900136023603368A0E0024DA
:10299A00F66E490E0120F76E000E0220F86E09004D
:1029AA00F5CF04F00900F5CF05F00900F5CF06F0E0
:1029BA000900F5CF07F03EC100F03FC101F040C168
:1029CA0002F041C103F0E2EC05F00A0E046E000EBB
:1029DA00056E066E076EE2EC05F008C000F009C04D
:1029EA0001F00AC002F00BC003F0300E002622C12B
:1029FA00E1FF23C1E2FF00C0E6FF224B232B424B3B
:102A0A00432BB1D7315132110FE022C1E1FF23C16B
:102A1A00E2FF300EE66E224B232B424B432B010E74
:102A2A00315F000E325BEED736AB0BD022C1E1FF2D
:102A3A0023C1E2FF450EE66E224B232B424B432B6A
:102A4A000AD022C1E1FF23C1E2FF650EE66E224BE6
:102A5A00232B424B432B800E3D19006E800E005CE7
:102A6A0002E1000E3C5D11E23C5100083C6F3D5111
:102A7A00000E3D5722C1E1FF23C1E2FF2D0EE66E93
:102A8A00224B232B424B432B0AD022C1E1FF23C105
:102A9A00E2FF2B0EE66E224B232B424B432B0A0EF0
:102AAA00046E000E056E3CC100F03DC101F0DEEC83
:102ABA0004F0300E002622C1E1FF23C1E2FF00C06C
:102ACA00E6FF0101224B232B424B432B0A0E046ED5
:102ADA00000E056E3CC100F03DC101F0DEEC04F0D1
:102AEA0008C000F009C001F0300E002622C1E1FF43
:102AFA0023C1E2FF00C0E6FF0101224B232B424B18
:102B0A00432B36A71AD0800E006E800E3519005C52
:102B1A0002E13451000811E222C1E1FF23C1E2FFC0
:102B2A00200EE66E224B232B424B432B010E345FC1
:102B3A00000E355B34513511EFE1C2EF0DF037A3CA
:102B4A00F3D0800E3D19006E800E005C02E1000E8B
:102B5A003C5D0AE2010E3C5D006E000E3D59016EBD
:102B6A000050315F0150325B38C100F039C101F0C9
:102B7A003AC102F03BC103F06BEC07F000C03EF132
:102B8A0001C03FF102C040F103C041F1010E336FB1
:102B9A0033510A0A34E033C100F0000E016E026EAE
:102BAA00036E003600900136023603360036009076
:102BBA000136023603368A0E0024F66E490E0120CB
:102BCA00F76E000E0220F86E0900F5CF01F0090039
:102BDA00F5CF02F00900F5CF03F00900F5CF04F0B4
:102BEA000450415D08E10350405D05E102503F5D3C
:102BFA0002E101503E5D01E202D0332BC9D73351C5
:102C0A00315D486F000E3259496F48C131F149C1EF
:102C1A0032F13EC100F03FC101F040C102F041C1B2
:102C2A0003F058EC07F000C004F001C005F002C040
:102C3A0006F003C007F038C100F039C101F03AC10B
:102C4A0002F03BC103F0DFEC05F000C044F101C023
:102C5A0045F102C046F103C047F148C14AF107EC09
:102C6A0008F044C104F045C105F046C106F047C169
:102C7A0007F04AEC01F0000E046E000E056E000E1D
:102C8A00066E7E0E076E55EC02F06BEC07F000C084
:102C9A003EF101C03FF102C040F103C041F13151A0
:102CAA00321142E00A0E046E000E056E066E076EC1
:102CBA003EC100F03FC101F040C102F041C103F042
:102CCA00E2EC05F008C000F009C001F00AC002F009
:102CDA000BC003F0000E046E031808E1045002183A
:102CEA0005E10450011802E10050000A1DE10A0E34
:102CFA00046E000E056E066E076E3EC100F03FC1FF
:102D0A0001F040C102F041C103F0E2EC05F000C05D
:102D1A003EF101C03FF102C040F103C041F1010E92
:102D2A00315F000E325BBBD7800E006E800E321907
:102D3A00005C02E131510C0816E331C14AF13CEC66
:102D4A000CF038C104F039C105F03AC106F03BC1B4
:102D5A0007F055EC02F000C038F101C039F102C0A9
:102D6A003AF103C03BF138C100F039C101F03AC170
:102D7A0002F03BC103F0046A056A066A076A41EC7D
:102D8A0005F0000ED8A4010E006E0052D8B477D018
:102D9A0038C100F039C101F03AC102F03BC103F079
:102DAA006BEC07F0000E046E031808E104500218D9
:102DBA0005E10450011802E10050000A60E1800EAA
:102DCA00006E800E3D19005C02E13C51010857E299
:102DDA003CC14AF107EC08F000C004F001C005F05C
:102DEA0002C006F003C007F038C100F039C101F093
:102DFA003AC102F03BC103F07EEC0BF05F0E046EA9
:102E0A00700E056E090E066E810E076E77EC04F0E1
:102E1A00010ED8B0000E006E005206E0090E010144
:102E2A003C5F000E3D5B05D00101080E3C5F000EC1
:102E3A003D5B3CC14AF107EC08F000C004F001C058
:102E4A0005F002C006F003C007F038C100F039C12E
:102E5A0001F03AC102F03BC103F07EEC0BF06BECDF
:102E6A0007F000C03EF101C03FF102C040F103C0CB
:102E7A0041F10101386B396B3A6B3B6B38D038C181
:102E8A0000F039C101F03AC102F03BC103F06BEC2A
:102E9A0007F000C03EF101C03FF102C040F103C09B
:102EAA0041F13EC100F03FC101F040C102F041C111
:102EBA0003F058EC07F000C004F001C005F002C0AE
:102ECA0006F003C007F038C100F039C101F03AC179
:102EDA0002F03BC103F0DFEC05F000C038F101C09D
:102EEA0039F102C03AF103C03BF13C6B3D6B010E74
:102EFA00336F33510A0A34E033C100F0000E016E19
:102F0A00026E036E00360090013602360336003632
:102F1A0000900136023603368A0E0024F66E490EF8
:102F2A000120F76E000E0220F86E0900F5CF01F0BD
:102F3A000900F5CF02F00900F5CF03F00900F5CF3B
:102F4A0004F00450415D08E10350405D05E1025080
:102F5A003F5D02E101503E5D01E202D0332BC9D749
:102F6A0033513125006E000E3221016E3C5100268C
:102F7A003D5101220050345F0150355B37B704D010
:102F8A003151321101E104D0010E345F000E355B7C
:102F9A00030E3615006E37C101F0000E01160050FF
:102FAA00011004E0010E345F000E355B36A539D0FE
:102FBA0036A312D036A103D02D0E2B6F02D02B0EC2
:102FCA002B6F22C1E1FF23C1E2FF2BC1E6FF224B97
:102FDA00232B424B432B0CD036A10AD022C1E1FF4E
:102FEA0023C1E2FF200EE66E224B232B424B432BDA
:102FFA00800E006E800E3519005C02E13451000823
:10300A000FE222C1E1FF23C1E2FF300EE66E224B3E
:10301A00232B424B432B010E345F000E355BE8D75E
:10302A003AD036B718D0800E006E800E3519005C83
:10303A0002E1345100080FE222C1E1FF23C1E2FF9D
:10304A00200EE66E224B232B424B432B010E345F9C
:10305A00000E355BE8D736A312D036A103D02D0E69
:10306A002C6F02D02B0E2C6F22C1E1FF23C1E2FF8D
:10307A002CC1E6FF224B232B424B432B0CD036A10B
:10308A000AD022C1E1FF23C1E2FF200EE66E224BE5
:10309A00232B424B432B33C100F0330700524CE041
:1030AA0033C100F0000E016E026E036E003600900E
:1030BA0001360236033600360090013602360336F0
:1030CA008A0E0024F66E490E0120F76E000E0220C9
:1030DA00F86E0900F5CF04F00900F5CF05F00900F4
:1030EA00F5CF06F00900F5CF07F03EC100F03FC169
:1030FA0001F040C102F041C103F0E2EC05F00A0E12
:10310A00046E000E056E066E076EE2EC05F008C04E
:10311A0000F009C001F00AC002F00BC003F0300E43
:10312A00002622C1E1FF23C1E2FF00C0E6FF224BD5
:10313A00232B424B432BAFD7800E006E800E3D19D6
:10314A00005C02E13C5100080FE222C1E1FF23C109
:10315A00E2FF300EE66E224B232B424B432B010E2D
:10316A003C5F000E3D5BE8D7800E000A006E800EC1
:10317A003219005C02E13151080803E2080E336F8C
:10318A0002D031C133F13351315F000E325B335318
:10319A0003E137B701D00AD022C1E1FF23C1E2FF20
:1031AA002E0EE66E224B232B424B432B33C14AF1A0
:1031BA0007EC08F038C104F039C105F03AC106F04D
:1031CA003BC107F04AEC01F0E5EC0AF000C03EF121
:1031DA0001C03FF102C040F103C041F133534DE059
:1031EA00330733C100F0000E016E026E036E003623
:1031FA000090013602360336003600900136023658
:10320A0003368A0E0024F66E490E0120F76E000E70
:10321A000220F86E0900F5CF04F00900F5CF05F099
:10322A000900F5CF06F00900F5CF07F03EC100F01E
:10323A003FC101F040C102F041C103F0E2EC05F0E8
:10324A000A0E046E000E056E066E076EE2EC05F0BD
:10325A0008C000F009C001F00AC002F00BC003F078
:10326A00300E002622C1E1FF23C1E2FF00C0E6FFC3
:10327A00224B232B424B432BB1D7315132110FE052
:10328A0022C1E1FF23C1E2FF300EE66E224B232B5F
:10329A00424B432B010E315F000E325BEED736A74D
:1032AA001AD0800E006E800E3519005C02E134518E
:1032BA00000811E222C1E1FF23C1E2FF200EE66EFF
:1032CA00224B232B424B432B010E345F000E355BFE
:1032DA0034513511EFE1C2EF0DF0C00E3615016E13
:1032EA0037C102F0000E0216000E021802E1000EAB
:1032FA000118D8A480D036A927D027C1E9FF28C150
:10330A00EAFFEECF00F0EECF01F000C0E9FF01C006
:10331A00EAFFEECF3EF1EECF3FF1EECF40F1EECF36
:10332A0041F127C1E9FF28C1EAFF040EEE24006E2D
:10333A00000EEE20016E27C1E1FF28C1E2FF00C0A6
:10334A00E6FF01C0E6FF2FD027C1E9FF28C1EAFF47
:10335A00EECF00F0EECF01F000C0E9FF01C0EAFFB6
:10336A00EECF00F0EECF01F0000E01BEFF0E026EAE
:10337A00036E00C03EF101C03FF102C040F103C03C
:10338A0041F127C1E9FF28C1EAFF020EEE24006ECF
:10339A00000EEE20016E27C1E1FF28C1E2FF00C046
:1033AA00E6FF01C0E6FF800E4119006E800E005C48
:1033BA0008E1000E405D05E1000E3F5D02E1000EEE
:1033CA003E5D18E2030E3613000E3713006A016AD7
:1033DA00026A036A3E51005E3F51015A4051025A45
:1033EA004151035A00C03EF101C03FF102C040F111
:1033FA0003C041F14ED036A927D027C1E9FF28C121
:10340A00EAFFEECF00F0EECF01F000C0E9FF01C005
:10341A00EAFFEECF3EF1EECF3FF1EECF40F1EECF35
:10342A0041F127C1E9FF28C1EAFF040EEE24006E2C
:10343A00000EEE20016E27C1E1FF28C1E2FF00C0A5
:10344A00E6FF01C0E6FF25D027C1E9FF28C1EAFF50
:10345A00EECF00F0EECF01F000C0E9FF01C0EAFFB5
:10346A00EECF3EF1EECF3FF1000E406F416F27C124
:10347A00E9FF28C1EAFF020EEE24006E000EEE20DC
:10348A00016E27C1E1FF28C1E2FF00C0E6FF01C0CB
:10349A00E6FF000E321902E1000E31190FE1000EAB
:1034AA00006E411908E10050401905E100503F192A
:1034BA0002E13E51000A02E1314B322BC00E3615B1
:1034CA00006E00C005F0AED0010E336F33510A0A08
:1034DA0034E033C100F0000E016E026E036E003656
:1034EA000090013602360336003600900136023665
:1034FA0003368A0E0024F66E490E0120F76E000E7E
:10350A000220F86E0900F5CF01F00900F5CF02F0AC
:10351A000900F5CF03F00900F5CF04F00450415D2E
:10352A0008E10350405D05E102503F5D02E10150B0
:10353A003E5D01E202D0332BC9D782D0010E336F30
:10354A003351080A34E033C100F0000E016E026EF6
:10355A00036E0036009001360236033600360090BC
:10356A00013602360336B20E0024F66E490E0120E9
:10357A00F76E000E0220F86E0900F5CF01F009007F
:10358A00F5CF02F00900F5CF03F00900F5CF04F0FA
:10359A000450415D08E10350405D05E102503F5D82
:1035AA0002E101503E5D01E202D0332BC9D748D077
:1035BA00010E336F33510C0A34E033C100F0000EB0
:1035CA00016E026E036E0036009001360236033633
:1035DA00003600900136023603365A0E0024F66E83
:1035EA00490E0120F76E000E0220F86E0900F5CF91
:1035FA0001F00900F5CF02F00900F5CF03F0090048
:10360A00F5CF04F00450415D08E10350405D05E147
:10361A0002503F5D02E101503E5D01E202D0332BD0
:10362A00C9D70ED00550000AD8B44ED70550C00AE3
:10363A00D8B44AD70550800A81E00550400AB8E05C
:10364A00800E006E800E3219005C02E13151335D4A
:10365A0003E231C133F10DD0800E3219006E800EB3
:10366A00005C02E13351315D04E233C131F1000EF5
:10367A00326F345135110EE0030E3615006E37C124
:10368A0001F0000E01160050011004E0010E345F33
:10369A00000E355B800E3219006E800E3519005C03
:1036AA0002E13451315D05E23151345F3251355B0B
:1036BA0002D0346B356BC40E3615016E3751080BC8
:1036CA00026E0250080A02E1400E011808E1345164
:1036DA00351104E0010E345F000E355B1CD0C00EBC
:1036EA003615016E3751080B026E0250080A02E1C4
:1036FA00800E011810E1800E006E800E3519005CF4
:10370A0002E13451020805E2020E345F000E355B15
:10371A0002D0346B356B36A55DD036A312D036A1F4
:10372A0003D02D0E2D6F02D02B0E2D6F22C1E1FF7B
:10373A0023C1E2FF2DC1E6FF224B232B424B432B31
:10374A0034D036A10BD022C1E1FF23C1E2FF200E03
:10375A00E66E224B232B424B432B27D0C00E361545
:10376A00016E3751080B026E0250080A02E1800E00
:10377A0001181BE122C1E1FF23C1E2FF300EE66E10
:10378A00224B232B424B432B36AB03D0580E2E6FC2
:10379A0002D0780E2E6F22C1E1FF23C1E2FF2EC1B3
:1037AA00E6FF224B232B424B432B3451351111E0B8
:1037BA0022C1E1FF23C1E2FF300EE66E224B232B2A
:1037CA00424B432B010E345F000E355B34513511E9
:1037DA00EFE174D03451351113E036B711D022C15C
:1037EA00E1FF23C1E2FF200EE66E224B232B424B60
:1037FA00432B010E345F000E355B34513511EFE176
:10380A0036A312D036A103D02D0E2F6F02D02B0E65
:10381A002F6F22C1E1FF23C1E2FF2FC1E6FF224B36
:10382A00232B424B432B0CD036A10AD022C1E1FFF5
:10383A0023C1E2FF200EE66E224B232B424B432B81
:10384A00C00E3615016E3751080B026E0250080A77
:10385A0002E1400E01180BE122C1E1FF23C1E2FFA0
:10386A00300EE66E224B232B424B432B27D0C00E41
:10387A003615016E3751080B026E0250080A02E132
:10388A00800E01181BE122C1E1FF23C1E2FF300EC5
:10389A00E66E224B232B424B432B36AB03D0580EFA
:1038AA00306F02D0780E306F22C1E1FF23C1E2FFF0
:1038BA0030C1E6FF224B232B424B432B800E006E76
:1038CA00800E3219005C02E13151335D0BE222C1F4
:1038DA00E1FF23C1E2FF300EE66E224B232B424B5F
:1038EA00432BECD731C100F032C101F0010E315F38
:1038FA00000E325B00500110D8B42AD1C00E361522
:10390A00006E00C044F10AD131C100F032C101F0A9
:10391A00000E32BFFF0E026E036E003600900136B3
:10392A0002360336003600900136023603368A0E16
:10393A000024F66E490E0120F76E000E0220F86E82
:10394A000900F5CF04F00900F5CF05F00900F5CF1D
:10395A0006F00900F5CF07F03EC100F03FC101F0C3
:10396A0040C102F041C103F0E2EC05F00A0E046E18
:10397A00000E056E066E076EE2EC05F008C000F058
:10398A0009C001F00AC002F00BC003F0300E002497
:10399A00336FD3D036AB45D031C100F032C101F01C
:1039AA00000E32BFFF0E026E036E00360090013623
:1039BA000236033600360090013602360336B20E5E
:1039CA000024F66E490E0120F76E000E0220F86EF2
:1039DA000900F5CF04F00900F5CF05F00900F5CF8D
:1039EA0006F00900F5CF07F03EC100F03FC101F033
:1039FA0040C102F041C103F0E2EC05F00F0E0016DF
:103A0A00000E011602160316E30E0024F66E490E86
:103A1A000120F76E000E0220F86E0900F5CF33F18F
:103A2A0044D031C100F032C101F0000E32BFFF0EA6
:103A3A00026E036E003600900136023603360036F7
:103A4A000090013602360336B20E0024F66E490E95
:103A5A000120F76E000E0220F86E0900F5CF04F07F
:103A6A000900F5CF05F00900F5CF06F00900F5CFFA
:103A7A0007F03EC100F03FC101F040C102F041C170
:103A8A0003F0E2EC05F00F0E0016000E0116021606
:103A9A000316D20E0024F66E490E0120F76E000EB0
:103AAA000220F86E0900F5CF33F147D031C100F09A
:103ABA0032C101F0000E32BFFF0E026E036E0036F5
:103ACA00009001360236033600360090013602367F
:103ADA0003365A0E0024F66E490E0120F76E000EC8
:103AEA000220F86E0900F5CF04F00900F5CF05F0C1
:103AFA000900F5CF06F00900F5CF07F03EC100F046
:103B0A003FC101F040C102F041C103F0E2EC05F00F
:103B1A00070E0014336F300E33270FD04451000ABA
:103B2A00D8B4F2D64451C00AD8B4EED64451800A69
:103B3A00D8B430D74451400AB9E022C1E1FF23C1C9
:103B4A00E2FF33C1E6FF224B232B424B432BCAD65B
:103B5A0036A71AD0800E006E800E3519005C02E17D
:103B6A003451000811E222C1E1FF23C1E2FF200E15
:103B7A00E66E224B232B424B432B010E345F000E81
:103B8A00355B34513511EFE1C2EF0DF042C100F05F
:063B9A0043C101F012001E
:103BA000F250026EF29E0500FF6A0150FE6E005058
:083BB000FD6E02BEF28E120050
:103BB800020E0C6E490E0D6E0D2EFED70C2EFCD784
:063BC800000000001200E5
:103BCE00C7B409D01F0EC514016E0150000A03E1DF
:0A3BDE00010E006E01D0006A120013
:103BE8000001799B22C14AF199EC05F0798B12000A
:103BF8009E9615C1C9FF5AC016F15BC017F15CC08B
:103C080018F15DC019F1C7A421D05A505B105C109F
:103C18005D101BE0010116511711181119110EE161
:103C280094C0E1FF95C0E2FF040EE66E92C000F07A
:103C380093C001F0B1DF010E006E3AD0010E010110
:103C4800165F000E175B185B195BDDD75AC016F1BB
:103C58005BC017F15CC018F15DC019F19EB621D0A8
:103C68005A505B105C105D101BE0010116511711D2
:103C7800181119110EE194C0E1FF95C0E2FF040E7E
:103C8800E66E92C000F093C001F086DF010E006E70
:103C98000FD0010E0101165F000E175B185B195B50
:103CA800DDD7C5BC02D0006A03D0C584020E006E01
:023CB8001200F8
:103CBA0010D0800E0101156F1AD0C00E156F17D0E3
:103CCA00940E156F14D0D40E156F11D0800E156F87
:103CDA000ED001011551010AECE01551020AEDE07E
:103CEA001551030AEDE01551040AEDE0EFD7160568
:103CFA00006E1551002600C015F100C04AF199EC7A
:103D0A0005F0799B0101196B19511725E96E000E0F
:103D1A001821EA6EEE520CE019511725E96E000ED1
:103D2A001821EA6EEECF22F15ADF0101192BECD7E6
:063D3A000001798B12006C
:0C3D40000E0E0D6E0D2EFED700001200BE
:103D4C005AC017F15BC018F15CC019F15DC01AF1D3
:103D5C000101156B166B1651120802E115518E08F4
:103D6C0008E32FDF005201E004D00101154B162BA4
:103D7C00F2D70101120E165D02E18F0E155D03E301
:103D8C007B0E006E24D0C580C5A020D05A505B108D
:103D9C005C105D101AE01751181119111A110EE16F
:103DAC0094C0E1FF95C0E2FF050EE66E92C000F0F4
:103DBC0093C001F0EFDE010E006E09D0010E01017F
:103DCC00175F000E185B195B1A5BDED7006A1200D6
:103DDC005AC017F15BC018F15CC019F15DC01AF143
:103DEC009E96C5869EB61FD05A505B105C105D1017
:103DFC0019E001011751181119111A110CE194C095
:103E0C00E1FF95C0E2FF030EE66E92C000F093C096
:103E1C0001F0C0DE08D0010E0101175F000E185B27
:103E2C00195B1A5BDFD70101C9CF16F11551000AD6
:103E3C0002E1C58A01D0C59A9E96C5885AC017F171
:103E4C005BC018F15CC019F15DC01AF19EB61FD0B1
:103E5C005A505B105C105D1019E0010117511811DC
:103E6C0019111A110CE194C0E1FF95C0E2FF030E89
:103E7C00E66E92C000F093C001F08CDE08D0010E0B
:103E8C000101175F000E185B195B1A5BDFD716C1B7
:043E9C0000F0120020
:103EA0005AC015F15BC016F15CC017F15DC018F186
:103EB000C582C5A21FD05A505B105C105D1019E07E
:103EC000010115511611171118110CE194C0E1FFF1
:103ED00095C0E2FF060EE66E92C000F093C001F0BE
:103EE0005FDE08D0010E0101155F000E165B175B47
:063EF000185BDFD7120091
:103EF6001A0E0101206F010E216F15C122F116C1A4
:103F060023F117C124F118C125F119C126F1200E9C
:103F1600276F010E286FBDEC0DF000C01EF101C029
:103F26001FF100501525E16E01501621E26EE66A7A
:0A3F36001EC100F01FC101F01200CF
:103F400015C102F016C103F018C100F019C101F04B
:103F5000010E0101185F000E195B0050011009E00D
:103F600002C0E1FF03C0E2FF17C1E6FF024A032AD5
:0C3F7000EBD715C100F016C101F01200E3
:103F7C000101186B15C1E9FF16C1EAFFEECF17F16D
:103F8C001751000A0FE017C14AF180EC05F001014E
:103F9C00182B18511525E96E000E1621EA6EEECF7E
:063FAC0017F1EED7120030
:103FB20001011B6B17C101F0010E006E015004E0FC
:103FC20000360090FF0FFBD700C01AF115C1E9FFC0
:103FD20016C1EAFF0050EE14016E0152010ED8A480
:103FE200000E006E1951001A18E01851000804E280
:103FF200E2DDE1DD1807F9D715C1E9FF16C1EAFFD5
:104002001A51EE14016E0152010ED8A4000E006E78
:104012001951001A02E0FF0E1B6F1BC100F01200C3
:04402200C58412003F
:10402600010E01014A6F99EC05F00C0E01014A6F71
:1040360099EC05F0010E0101156F010E166F290EA0
:10404600176F000E186F36DE0B0E0B6E260E0C6EFB
:104056005D0E0D6E0D2EFED70C2EFCD70B2EFAD74D
:1040660000000000010E01014A6F99EC05F0020EF6
:104076000101156F010E166F150E176F000E186FE2
:0440860019DE12002D
:10408A0059503C1803E100017991596A592A1200E2
:10409A00020E0B6E040E0C6EBA0E0D6E0D2EFED7AE
:0C40AA000C2EFCD70B2EFAD700001200E1
:1040B600000E0001826F0B0E836F4A0E846F010E95
:1040C600856FFF0E866FFF0E876F000E886F000EDE
:1040D600896FFF0E7A6FFF0E7B6F000E7C6F000EEE
:1040E6007D6FFF0E7E6FFF0E7F6F000E806F000EDE
:1040F600816FAC8A900EAB6E948E949C9EAA03D070
:08410600AECF00F0FBD7120060
:10410E00FF0E0001A86FFF0EA96FFF0EAA6FFF0E24
:10411E00AB6FC26A781D006E0050C1160F0EC01232
:06412E00C08EC2801200E9
:10413400CE0E00019E6F3B0E9F6F000EA06F000E0F
:10414400A16F4C0EA26F3D0EA36F000EA46F000E64
:10415400A56FA00E966F3E0E976F000E986F000E1F
:10416400996FDC0E9A6F3D0E9B6F150E9C6F010EBE
:104174009D6FF80E8E6F3B0E8F6F150E906F010EB4
:10418400916F220E8A6F400E8B6F000E8C6F000EA3
:104194008D6F949894968B988B9694889486C79EEA
:0841A400C79C380EC66E120024
:1041AC00939A93989390939293949396819A8198DF
:1041BC0081968194819281903AEC01F03AEC01F075
:1041CC003AEC01F081828180818A37EC01F0819A8E
:1041DC003AEC01F0818A37EC01F0819A3AEC01F06B
:1041EC00818A37EC01F0819A3AEC01F08190818A56
:1041FC0037EC01F0819A3AEC01F0818A37EC01F04E
:10420C00819A81928186818A37EC01F0819A3AEC0D
:10421C0001F081968180818A37EC01F0819A81903E
:10422C00818A37EC01F0819A3AEC01F0818A37EC03
:10423C0001F0819A8180818A37EC01F0819A3AEC05
:10424C0001F08190818A37EC01F0819A818681841A
:10425C0081828180818A37EC01F0819A3AEC01F0FD
:06426C000001798B120035
:10427200C26A0001781D006E0050C1160F0EC012F6
:10428200C08EC8C000F0003600900036009000508A
:10429200C212C28054DDC282C2A201D0FDD7C4CFF5
:1042A20001F0006A00C0C9F001C0CAF0C350001298
:1042B200000E011200C0C9F001C0CAF0C290000E87
:1042C2000014026E0150800B036E000E031802E10F
:1042D200000E021802E0C96BCA6BC9C000F0CAC066
:0442E20001F01200D5
:1042E60032DDA00E0101156F84DCC8C015F181DC3A
:0A42F600C9C015F17EDC92DE120053
:1043000025DDA00E0101156F77DCC8C015F174DC46
:10431000C7DDA10E0101156F6FDC0101156B5EDDBC
:0C43200000C0C9F07EDEC9C000F0120031
:10432C00830E0101156F0F0E166F176B010E186FB0
:10433C00010E196F38DE005202E000017983830E02
:10434C000101156F0F0E166F176B010E186F196B9D
:10435C002ADE005205E0000179A302D07985799319
:10436C00830E0101156F0F0E166F010E176F010EE4
:10437C00186F010E196F17DE005202E000017989E7
:10438C00830E0101156F0F0E166F010E176F010EC4
:10439C00186F196B08DE00520FE0000179A90CD0E0
:1043AC007995020E0101156F060E166F3D0E176FF3
:1043BC00000E186F7CDC7999830E0101156F0F0EBE
:1043CC00166F020E176F010E186F010E196FEBDDD1
:1043DC00005202E000017987830E0101156F0F0E68
:1043EC00166F020E176F010E186F196BDCDD005281
:0E43FC0005E0000179A702D0798179971200BF
:10440A00CAC0E1F0CBC0E2F0000E0001C91902E116
:10441A00000EC81924E0E30E0101156F000E166F95
:10442A00F40E176F490E186F000E196FCAC01AF1F1
:10443A00CBC01BF1C8C01CF1C9C01DF157DDE30E8A
:10444A00156F000E166F95DDE30E156F000E166FD1
:10445A00176B320E186F000E196F6DDD1FD0010138
:10446A00E30E156F000E166F270E176F4A0E186FA0
:10447A00000E196FCAC01AF1CBC01BF137DDE30E6B
:10448A00156F000E166F75DDE30E156F000E166FB1
:10449A00176B320E186F000E196F4DDD0001CE6BCF
:1044AA00CF6B800ECF19006E800ECD19005C02E131
:1044BA00CC51CE5DD8B0D1D0100E046E000E056E70
:1044CA00CEC000F0CFC001F0DEEC04F008C000F06E
:1044DA0009C001F0000E011802E1000E001836E1D1
:1044EA00000E0001CF1902E1000ECE1910E0E30E12
:1044FA000101156F000E166F0F0E176F4A0E186F17
:10450A00000E196FD00E1A6F000E1B6FEFDC01013F
:10451A00E30E156F000E166F070E176F4A0E186F0F
:10452A00000E196FCEC01AF1CFC01BF1DFDCE30E0B
:10453A00156F000E166F1DDDE30E156F000E166F58
:10454A00176B320E186F000E196FF5DC0101E30EBE
:10455A00156F000E166F160E176F4A0E186F000EA3
:10456A00196F0001CE51E125E96ECF51E221EA6EC1
:10457A00EECF1AF1BBDCE30E156F000E166FF9DCF5
:10458A00E30E156F000E166F176B320E186F000EC2
:10459A00196FD1DC0001CE51E125E96ECF51E2213C
:1045AA00EA6E200EEE5C0AE3CE51E125E96ECF51A8
:1045BA00E221EA6EEE507E0801E317D0100E046E77
:1045CA00000E056ECEC000F0CFC001F0DEEC04F0A4
:1045DA0008C000F009C001F0D00E0024E16E000E00
:1045EA000120E26E2E0EE66E1DD0100E046E000E35
:1045FA00056ECEC000F0CFC001F0DEEC04F008C0BA
:10460A0000F009C001F0D00E0024E16E000E012076
:10461A00E26E0001CE51E125E96ECF51E221EA6E48
:10462A00EECFE6FF100E046E000E056ECEC000F04F
:10463A00CFC001F0DEEC04F008C000F009C001F0C0
:10464A00004A012AD00E0024E16E000E0120E26E1B
:10465A00E66A0001CE4BCF2B24D7100E046E000E53
:10466A00056ECEC000F0CFC001F0DEEC04F008C049
:10467A0000F009C001F0000E011802E1000E001856
:10468A000AE05E0E0101156F000E166F72DC000162
:10469A00CE4BCF2BE2D7E30E0101156F000E166F3A
:1046AA001C0E176F4A0E186F000E196FD00E1A6F74
:1046BA00000E1B6F1BDCE30E156F000E166F59DC24
:1046CA00E30E156F000E166F176B320E186F000E81
:0646DA00196F31DC120033
:1046E0001A0E0C6EF80E0D6E0D2EFED70C2EFCD78A
:0446F00000001200B4
:1046F4000900F5CFE6FF0006FBE10106F9E112002F
:10470400010E0F01386F396B3B6B3A6B799E789EC3
:10471400070E956E010E926E936A00017995799158
:1047240079937999850ED56E0B0ED76EDC0ED66E05
:10473400F28EF28AEADCB886B06ACF0EAF6EAC8431
:10474400B8DC32DD140EC86EF3DCA5DC6ADC1200C2
:10475400000179A51DD03C5064081AE33B503C1875
:1047640017E0C86B84DD3CC0C8F000C0C9F0B9DDF7
:10477400B5DFDADD020E0101156F060E166F4A0E63
:10478400176F000E186F5DEC1EF03CC03BF0E0D7D5
:02479400120011
:10479600000179A14ED079B54CD059C0C8F0ADDD35
:1047A60000C0C6F0000E0001C76FC6C000F0C7C04B
:1047B60001F000360090013600360090013600C048
:1047C600C6F001C0C7F0B60E0101156F000E166FD8
:1047D600220E176F4A0E186F000E196F00C01AF1DD
:1047E60001C01BF17BEC1FF0620E0001C86F000ECA
:1047F600C96FB60ECA6F000ECB6F100ECC6F000ECF
:10480600CD6F00DE010E156F010E166FB60E176F17
:10481600000E186F5DEC1EF0020E0101156F060EFC
:10482600166F690E176F000E186F5DEC1EF02ADC0E
:04483600AFD71200E6
:10483A0016EC25F062DF0001C86B16DD00C0A6F099
:10484A0001C0A7F0AC0E0101156F000E166FFE0E27
:10485A00176F490E186F000E196F00C01AF101C0C8
:10486A001BF17BEC1FF0010E156F090E166FAC0ED3
:10487A00176F000E186F5DEC1EF053DD66DF86DFE2
:04488A00DAD7FFD7A3
:104A2C0010EE15F0640E006E010E016E8E0EF66E19
:0E4A3C00480EF76E000EF86E7AEC23F01200B2
:0D488E004D6F64653A417474656E74650089
:07489B00286E756C6C29000A
:1048A200496E697469616C69736174696F6E2E2EE9
:0248B2002E00D6
:0148B4000003
:0148B5000002
:0D48B60053746F702020202020202020004F
:0F48C300537461727420202020202020202000B8
:0148D20001E4
:0448D30000000000E1
:0448D700202020007D
:0748DB004672616D653A00B1
:0F48E20044756D70696E672E2E2E2020202000E9
:0148F1000FB7
:1048F2000000007F000020820000488500007A88C6
:1049020000401C8C0050438F0024749280961896AD
:1049120020BC3E99286B6E9CF90215A0EC782DC143
:04492200CAF249E2AA
:104926000000007FCDCC4C7B0AD723786F1203752D
:1049360017B75171ACC5276EBD37066B95BF566765
:1049460077CC2B645F700961FFE65B5D08E53C3C54
:044956006042221B7E
:10495A000100000008000000400000000002000002
:10496A000010000000800000000004000000200089
:10497A0000000001000000080000004000000000E4
:10498A00010000000A00000064000000E8030000C3
:10499A0010270000A086010040420F008096980070
:0849AA0000E1F50500CA9A3B8B
:1049B20001000000100000000001000000100000D3
:1049C20000000100000010000000000100000010C3
:1049D2003031323334353637383961626364656673
:0149E20000D4
:1049E3003031323334353637383941424344454622
:0149F30000C3
:0A49F400257020282573293A0A00D7
:0949FE004144433A2530347500B0
:084A0700202025303478200046
:074A0F00202025730A20009E
:064A16002025303278007B
:064A1C00202025730A00B2
:054A2200253034750091
:054A270025703A0A00B1
:020000040030CA
:0D000100231F3CFFBF81FF0FC00FE00F4029
:00000001FF
