:04000000E4EF01F038
:1000080000C016F001C015F0E9CF17F0EACF18F0DC
:10001800F2A41FD0F294D80ED76EF00ED66E896A6D
:10002800190EE96E000EEA6E2650E926D8B0EA2AC3
:10003800EECF8CFF26C001F0010E006E015004E0E7
:1000480000360090FF0FFBD700C089FF262A030E59
:10005800261616C000F015C001F017C0E9FF18C039
:04006800EAFF11009A
:10006C00020E0C6E490E0D6E0D2EFED70C2EFCD70B
:06007C000000000012006C
:10008200086A096A100E0C6E0134083609360450EB
:10009200085E0550D8A0053C095ED8B007D00450D0
:1000A20008260550D8B0053C0926D89000360136FE
:0600B2000C2EEAD712003B
:1000B800316A2DC001F0010E006E015004E00036D7
:1000C8000090FF0FFBD700C030F02BC0E9FF2CC019
:1000D800EAFF0050EE14016E0152010ED8A4000E82
:1000E800006E2F50001A18E02E50000804E2BADF04
:1000F800B9DF2E06F9D72BC0E9FF2CC0EAFF305034
:10010800EE14016E0152010ED8A4000E006E2F509D
:0E011800001A02E0FF0E316E31C000F012003E
:10012600000E2C1802E1000E2B180FE1010E2124FF
:10013600016E000E2220026E030E025C02E1E80E42
:10014600015C03E2214A222A7BD0000E2C1802E130
:10015600010E2B1813E1010E215C016E000E2258D0
:10016600026E000E006E0250005C02E101500008B3
:1001760005E2010E215E000E225A62D0000E2C18F6
:1001860002E1020E2B1811E10A0E2124016E000E67
:100196002220026E030E025C02E1E80E015C05E21B
:1001A6000A0E2126000E22224BD0000E2C1802E148
:1001B600030E2B1813E1010E215C016E000E22586E
:1001C600026E000E006E0250005C02E10150000853
:1001D60005E20A0E215E000E225A32D0000E2C18BD
:1001E60002E1040E2B1811E1640E2124016E000EAB
:1001F6002220026E030E025C02E1E80E015C05E2BB
:10020600640E2126000E22221BD0000E2C1802E1BD
:10021600050E2B1813E1010E215C016E000E22580B
:10022600026E000E006E0250005C02E101500008F2
:1002360005E2640E215E000E225A02D0216A226A6D
:020246001200A4
:100248000900F5CFE6FF0006FBE10106F9E112001F
:10025800E80E046E030E056E21C000F022C001F006
:100268000CDF0A0E046E000E056E07DF08C000F0F2
:1002780009C001F000C01FF001C020F01E0E0024CC
:10028800F66E040E0120F76E000EF86E000EF822CE
:100298000900F5CF1CF0640E046E000E056E21C037
:1002A80000F022C001F0E9DE0A0E046E000E056EB1
:1002B800E4DE08C000F009C001F000C01DF001C074
:1002C8001EF01E0E0024F66E040E0120F76E000EBE
:1002D800F86E000EF8220900F5CF1BF00A0E046E26
:1002E800000E056E21C000F022C001F0C6DE0A0E25
:1002F800046E000E056EC1DE08C000F009C001F0F2
:1003080000C023F001C024F01E0E0024F66E040E77
:100318000120F76E000EF86E000EF8220900F5CFE6
:100328001AF00A0E046E000E056E21C000F022C0FD
:1003380001F0A3DE08C000F009C001F000C027F0FA
:1003480001C028F01E0E0024F66E040E0120F76E80
:10035800000EF86E000EF8220900F5CF19F0120011
:10036800296A2A6A800E2A18006E800E005C02E153
:10037800060E295C24E2820E2B6E0F0E2C6E29C00D
:100388002DF0010E2E6E010E2F6E92DE0052D8A4B3
:100398002580820E2B6E0F0E2C6E29C02DF0010EBB
:1003A8002E6E2F6A85DE005207E025A005D029C0F1
:1003B8002BF02AC02CF0B3DE294A2A2AD3D7120000
:1003C800196A1A6A1B6A1C6A0F01386B3B6B926ABE
:1003D800896A956A7F0E946E3A6B25908C6A216AB9
:1003E800226A266A880ED56ED80ED76EF00ED66EA3
:1003F800F28EF28A2DDFB4DF020E0B6E040E0C6E45
:10040800BA0E0D6E0D2EFED70C2EFCD70B2EFAD77A
:060418000000F0D7FFD741
:0A041E003F065B4F666D7D077F6FA0
:020000040030CA
:0D000100231F3CFFBF81FF0FC00FE00F4029
:00000001FF
