:0400000039EF22F0C2
:1000080000C017F001C016F002C015F0E1CF18F0DB
:10001800E2CF19F09EAA2DD0EDEC21F000C023F11B
:1000280020D00101216B226B24D0010E2125006E06
:10003800000E2221016EF30E0024E16E000E012055
:10004800E26EE66A0001CA8514D0F30E010121258B
:10005800E16E000E2221E26E23C1E6FF214B222B26
:1000680008D0010123515B0ADCE023515D0ADDE081
:10007800ECD717C000F016C001F015C002F018C088
:08008800E1FF19C0E2FF1100C5
:100090000B820BAE52EF00F0036802680168006843
:0800A0000A360232FF0E1200C5
:0E00A800026A016A006A086A036A000E12000A
:0800B6000AAE029E000E1200CA
:1000BE000B840BAE6AEF00F0010E036E026A016A4A
:0A00CE00006A0A360232FF0E12002B
:1000D8000CB0AEEF00F00CA254EF01F00E6A000E67
:1000E8000264C5EF00F0F00E0214D8A490EF00F0FF
:1000F800023A01380F0B02260138F00B016E003866
:100108000F0B01260038F00B006E08380F0B002685
:100118000838F00B086E0E84D89002BEA9EF00F0E4
:1001280008360036013602360E2A02BEA9EF00F064
:1001380008360036013602360E2A02BEA9EF00F054
:1001480008360036013602360E2A0E5003644AEF8E
:1001580001F0035E0BBC08AE4FEF01F0D880800EB3
:1001680008640030000E002201220222D8A04FEFBE
:1001780001F0023201320032034A54EF01F04FEF2E
:1001880001F001C002F000C001F008C000F0086AE8
:10019800000E0E860264FCEF00F0F00E0214D8A4E4
:1001A800E4EF00F0023A01380F0B02260138F00B99
:1001B800016E00380F0B01260038F00B006E0E841C
:1001C800D89002BEA9EF00F00036013602360E2A9A
:1001D80002BEA9EF00F00036013602360E2A02BE32
:1001E800A9EF00F00036013602360E2AA9EF00F01A
:1001F80001C002F000C001F0006A000E0E960E88E1
:10020800026429EF01F0F00E0214D8A414EF01F0F3
:10021800023A01380F0B02260138F00B016E0E84EA
:10022800D89002BEA9EF00F0013602360E2A02BEAF
:10023800A9EF00F0013602360E2A02BEA9EF00F03F
:10024800013602360E2AA9EF00F001C002F0016A59
:10025800000E0E86026459EF01F0F00E0214D8A4C5
:1002680038EF01F0023A0E84D89002BEA9EF00F0F0
:1002780002360E2A02BEA9EF00F002360E2A02BE8E
:10028800A9EF00F002360E2AA9EF00F0010E0C6E5D
:1002980012DF5CEF01F0020E0C6E09DF5CEF01F07B
:1002A800040E0C6EF1DE5CEF01F0080E0C6EF8DE49
:0202B800120032
:0802BA000B6A0B86FF0E120017
:0602C20000000000120024
:1002C8000F0E0C6E470E0D6E0D2EFED70C2EFCD7A2
:0602D8000000000012000E
:1002DE00025006180E6E086A096A0B6A035007640C
:1002EE0062EF02F006500A6E068E028E03500B6EFF
:1002FE000750036E000E0B64B2EF01F00B50075E59
:10030E00D8B453EF02F0070E076421EF02F0075E38
:10031E0000C008F001C000F002C001F0026A074EF2
:10032E0053EF02F00764F6EF01F0075E00C008F02D
:10033E0001C000F0016A074E53EF02F00764D4EFDC
:10034E0001F0075E00C008F0006A074E53EF02F09E
:10035E000764BBEF01F00AC002F005C001F004C053
:10036E0000F0086A7CEF03F0030E0764C6EF01F09D
:10037E00075E08380F0B086E074E53EF02F0D89049
:10038E000832074E53EF02F0D8900832074E53EF63
:10039E0002F0D890083253EF02F0030E0764E5EF37
:1003AE0001F0075E08380F0B086E0038F00B0826B8
:1003BE0000380F0B006E074E53EF02F0D89000324C
:1003CE000832074E53EF02F0D89000320832074E33
:1003DE0053EF02F0D8900032083253EF02F0030EC2
:1003EE0007640DEF02F0075E08380F0B086E003839
:1003FE00F00B082600380F0B006E0138F00B0026AC
:10040E0001380F0B016E074E53EF02F0D8900132F8
:10041E0000320832074E53EF02F0D890013200320C
:10042E000832074E53EF02F0D890013200320832F4
:10043E0053EF02F0030E07643EEF02F0075E08383A
:10044E000F0B086E0038F00B082600380F0B006EED
:10045E000138F00B002601380F0B016E0238F00B3D
:10046E00012602380F0B026E074E53EF02F0D890A2
:10047E000232013200320832074E53EF02F0D890AA
:10048E000232013200320832074E53EF02F0D8909A
:10049E000232013200320832096A000E0EAE47EF08
:1004AE0003F0081E001E011E021E082A0022012251
:1004BE00022247EF03F00750D8A468EF02F07CEF5A
:1004CE0003F0096A02C00AF0028E068E0750035C22
:1004DE00076ED8B43AEF03F0070E076408EF03F087
:1004EE00075E0450096E0550046E0650056E066ACE
:1004FE00074E3AEF03F0070E0764DDEF02F0075EDA
:10050E000450096E0550046E056A074E3AEF03F06B
:10051E00070E0764BBEF02F0075E0450096E046A13
:10052E00074E3AEF03F0070E0764A2EF02F00AC07F
:10053E0002F07CEF03F0030E0764ADEF02F0075EEE
:10054E0009380F0B096E074E3AEF03F0D8900932B7
:10055E00074E3AEF03F0D8900932074E3AEF03F008
:10056E00D89009323AEF03F0030E0764CCEF02F095
:10057E00075E09380F0B096E0438F00B0926043894
:10058E000F0B046E074E3AEF03F0D8900432093287
:10059E00074E3AEF03F0D89004320932074E3AEF85
:1005AE0003F0D890043209323AEF03F0030E0764D9
:1005BE00F4EF02F0075E09380F0B096E0438F00BEA
:1005CE00092604380F0B046E0538F00B0426053887
:1005DE000F0B056E074E3AEF03F0D890053204323A
:1005EE000932074E3AEF03F0D89005320432093241
:1005FE00074E3AEF03F0D8900532043209323AEF43
:10060E0003F0030E076425EF03F0075E09380F0BA6
:10061E00096E0438F00B092604380F0B046E0538EA
:10062E00F00B042605380F0B056E0638F00B052669
:10063E0006380F0B066E074E3AEF03F0D8900632CF
:10064E00053204320932074E3AEF03F0D8900632E3
:10065E00053204320932074E3AEF03F0D8900632D3
:10066E00053204320932086A000E0EAE47EF03F06F
:10067E00091E041E051E061E092A04220522062234
:10068E00095008260450002205500122065002226D
:10069E000EBE5EEF03F0D8A06DEF03F00232013212
:1006AE0000320832033E6DEF03F077EF03F0D8B05F
:1006BE0072EF03F0000E081E001E011E021E082A15
:1006CE000022012202220A7E72EF03F0010E0C6E4E
:1006DE00FCDC7EEF03F0020E0C6EF7DC7EEF03F017
:1006EE00040E0C6ECEDC7EEF03F0000E0C6E1200CC
:1006FE00086A080E0C6E003408360450085ED8B036
:0E070E0002D00826D89000360C2EF5D7120027
:10071C000B800BAE9AEF03F0026A0AAEFF0E026E6C
:0C072C00016E006E0A360232FF0E120051
:100738000D6A086A0050D8B4000C04180A6E0ABE84
:100748000D1E0B6A04AE02D0041E042A00AE02D0AD
:10075800001E002A005004100A6E0ABE1FD0045062
:10076800085E003600340836045008260036060EA7
:100778000C6E00340836045000B0085E00A008264D
:1007880000360C2EF6D700A008260BB015D00DAEFB
:10079800000C001E002A081E082A000C04AE09D00E
:1007A80000BE04D00050086E006AF1D7006A002A23
:1007B800000C001E0B2AD3D7082A0450085CD8A4C2
:0E07C800E6D7086A002A00AEE2D7FF0C120046
:1007D6000134083609360450085E0550D8A0053C99
:1007E600095E003601360F0E0C6E013408360936E6
:1007F600045000A006D0085E0550D8A0053C095E4E
:1008060005D008260550D8B0053C09260036013625
:100816000C2EEBD700B006D0045008260550D8B0F1
:08082600053C09260000120048
:10082E00086A096A000E076203649CEF04F0025026
:10083E0006180A6E075003267E0ED8A02DEF04F080
:10084E00035ED8B0A1EF04F031EF04F0035ED8A040
:10085E00A6EF04F0028E068E02C00EF001C00BF061
:10086E0000C00DF000500402F4CF0CF00150050250
:10087E00F4CF00F0F3CF08F00402F3500C26F4503E
:10088E000822000E00220D500502F3500C26F450E3
:10089E000822000E002202500402F3500826F450E3
:1008AE00002202500502016A000E0122F3500026BA
:1008BE00F45001220D500602F3500826F450002287
:1008CE00026A000E012202220B500602F35000268D
:1008DE00F4500122000E02220E500602F3500126A1
:1008EE00F450022202BE84EF04F0083600360136C0
:1008FE0002360306D8B4A6EF04F097EF04F0D880C2
:10090E00800E08640030000E002201220222D8A0C0
:10091E0097EF04F0023201320032034AA1EF04F0E5
:10092E000AAE029E000EA9EF04F0010E54EC00F088
:10093E00A9EF04F0020E48EC00F0A9EF04F0040E4B
:06094E005FEC00F0120056
:0A095400210E0D6E0D2EFED71200CD
:10095E000B6A0A6A096A00500402F4CF09F0F3CF59
:10096E0008F001500502F4CF0BF0F3CF0AF000505F
:10097E000502F3500926F4500A22E86A0B220150B0
:10098E000402F3500926F4500A22E86A0B2208C02A
:10099E0000F009C001F00AC002F00BC003F0120013
:1009AE00010184BF02D0819601D0818684BD02D020
:1009BE00819401D0818484BB02D0819201D0818246
:1009CE0084B902D0819001D081800001CAB302D0D7
:1009DE00818801D08198818A6DDC819A010184B76A
:1009EE0002D0819601D0818684B502D0819401D047
:1009FE00818484B302D0819201D0818284B102D0ED
:100A0E00819001D081800001CAB302D0818801D0CB
:100A1E008198818A4FDC819ACAA302D04EDC01D024
:040A2E0092DF120041
:100A32000450000A08E10550000A05E1FF0E006EAD
:100A42007F0E016E57D00D6A096A086A01500010C4
:100A5200D8B4000C015005180A6E0ABE0D1E0B6AAE
:100A620005AE05D0041E051E042AD8B4052A01AE1F
:100A720005D0001E011E002AD8B4012A015005101B
:100A82000A6E0ABE10D0A6DE0BB020D00DAE000C4E
:100A9200001E011E002AD8B4012A081E091E082AB7
:100AA200D8B4092A000C05AE0DD001BE07D0015002
:100AB200096E0050086E016A006AE8D7016A006A8E
:100AC200002A000C011E001E0B2ADDD7082AD8B40A
:100AD200092A0450085CD8A4D9D70550095CD8A4C7
:100AE200D5D7096A086A002AD8B4012A01AECED73E
:060AF2000000FF0C1200E1
:100AF80001018451390806E3300E845D03E3010ED9
:080B0800006E01D0006A12002A
:100B100003500718D8A49CEF05F002500618D8A47B
:100B20009CEF05F001500518D8A49CEF05F000508B
:0E0B30000418D8B4D8841200D8941200120011
:100B3E000B6A0A6A096A086A0E6A03340836045098
:100B4E00085E0550D8A0053C095E0650D8A0063CAC
:100B5E000A5E0750D8A0073C0B5EE86AD8A0010ECB
:100B6E000E5E0336070E0C6E0334083609360A364F
:100B7E000B360E36045003A012D0085E0550D8A0D6
:100B8E00053C095E0650D8A0063C0A5E0750D8A068
:100B9E00073C0B5EE86AD8A0010E0E5E11D0082647
:100BAE000550D8B0053C09260650D8B0063C0A269A
:100BBE000750D8B0073C0B26E86AD8B0010E0E26B7
:100BCE0003360C2ED1D70234083609360A360B36C8
:100BDE000E36045003A012D0085E0550D8A0053C76
:100BEE00095E0650D8A0063C0A5E0750D8A0073C06
:100BFE000B5EE86AD8A0010E0E5E11D008260550D5
:100C0E00D8B0053C09260650D8B0063C0A26075037
:100C1E00D8B0073C0B26E86AD8B0010E0E26023675
:100C2E00070E0C6E0234083609360A360B360E36AF
:100C3E00045002A012D0085E0550D8A0053C095EF3
:100C4E000650D8A0063C0A5E0750D8A0073C0B5EA3
:100C5E00E86AD8A0010E0E5E11D008260550D8B055
:100C6E00053C09260650D8B0063C0A260750D8B0D7
:100C7E00073C0B26E86AD8B0010E0E2602360C2E63
:100C8E00D1D70134083609360A360B360E360450E3
:100C9E0002A012D0085E0550D8A0053C095E065091
:100CAE00D8A0063C0A5E0750D8A0073C0B5EE86A47
:100CBE00D8A0010E0E5E11D008260550D8B0053C06
:100CCE0009260650D8B0063C0A260750D8B0073C75
:100CDE000B26E86AD8B0010E0E260136070E0C6EF2
:100CEE000134083609360A360B360E36045001A08A
:100CFE0012D0085E0550D8A0053C095E0650D8A05B
:100D0E00063C0A5E0750D8A0073C0B5EE86AD8A0E6
:100D1E00010E0E5E11D008260550D8B0053C0926EE
:100D2E000650D8B0063C0A260750D8B0073C0B2612
:100D3E00E86AD8B0010E0E2601360C2ED1D700343B
:100D4E00083609360A360B360E36045001A012D07C
:100D5E00085E0550D8A0053C095E0650D8A0063C9A
:100D6E000A5E0750D8A0073C0B5EE86AD8A0010EB9
:100D7E000E5E11D008260550D8B0053C0926065047
:100D8E00D8B0063C0A260750D8B0073C0B26E86AB6
:100D9E00D8B0010E0E260036070E0C6E0034083643
:100DAE0009360A360B360E36045000A012D0085EF5
:100DBE000550D8A0053C095E0650D8A0063C0A5E38
:100DCE000750D8A0073C0B5EE86AD8A0010E0E5E55
:100DDE0011D008260550D8B0053C09260650D8B0CB
:100DEE00063C0A260750D8B0073C0B26E86AD8B056
:100DFE00010E0E2600360C2ED1D700B00ED00450A8
:100E0E0008260550D8B0053C09260650D8B0063C39
:0C0E1E000A260750D8B0073C0B26120033
:080E2A00067E6FEC01F01200DE
:100E3200800E01018419006E800E000A005CD8B099
:100E420068D184510008016E01C084F1800E01183E
:100E5200006E800E6E0A005CD8A0BBD0640E046ED9
:100E620084C100F068DC120E0024056E000E00BE84
:100E7200FF0E066E000E062205C000F006C001F04D
:100E8200000E06BEFF0E026E036E003600900136A3
:100E92000236033600360090013602360336340E2F
:100EA2000024F66E450E0120F76E000E0220F86E49
:100EB2000900F5CF85F10900F5CF86F10900F5CFDC
:100EC20087F10900F5CF88F1640E046E84C100F049
:100ED20032DC08C000F00A0E046E2DDC090E00247C
:100EE200056E000E00BEFF0E066E000E062205C045
:100EF20000F006C001F0000E06BEFF0E026E036E89
:100F02000036009001360236033600360090013674
:100F120002360336340E0024F66E450E0120F76EBB
:100F2200000E0220F86E0900F5CF00F00900F5CF9F
:100F320001F00900F5CF02F00900F5CF03F085C1F9
:100F420004F086C105F087C106F088C107F06EDCA7
:100F520000C085F101C086F102C087F103C088F1AB
:100F62000A0E046E84C100F09CEC03F008C000F08D
:100F720000C001F0000E00BEFF0E026E036E046E92
:100F820001360190023603360436013601900236EC
:100F920003360436340E0124F66E450E0220F76E37
:100FA200000E0320F86E0900F5CF00F00900F5CF1E
:100FB20001F00900F5CF02F00900F5CF03F085C179
:100FC20004F086C105F087C106F088C107F02EDC67
:100FD20007D2800E0A0A006E800E8419005C71E24C
:100FE2000A0E046E84C100F09CEC03F0090E00248A
:100FF200056E000E00BEFF0E066E000E062205C034
:1010020000F006C001F0000E06BEFF0E026E036E77
:101012000036009001360236033600360090013663
:1010220002360336340E0024F66E450E0120F76EAA
:10103200000E0220F86E0900F5CF85F10900F5CF08
:1010420086F10900F5CF87F10900F5CF88F10A0E84
:10105200046E84C100F09CEC03F008C000F000C0F4
:1010620001F0000E00BEFF0E026E036E046E01362A
:1010720001900236033604360136019002360336F9
:101082000436340E0124F66E450E0220F76E000E71
:101092000320F86E0900F5CF00F00900F5CF01F04A
:1010A2000900F5CF02F00900F5CF03F085C104F085
:1010B20086C105F087C106F088C107F017EC04F07D
:1010C2008FD184C100F0000E84BFFF0E016E026E4C
:1010D200036E003600900136023603360036009069
:1010E200013602360336340E0024F66E450E012018
:1010F200F76E000E0220F86E0900F5CF00F009002D
:10110200F5CF01F00900F5CF02F00900F5CF03F0A9
:1011120067D1800E8419006E800E6E0A005CD8A022
:10112200C0D0640E046E84C100F09CEC03F0120E79
:101132000024056E000E00BEFF0E066E000E062293
:1011420005C000F006C001F0000E06BEFF0E026EE2
:10115200036E0036009001360236033600360090E8
:10116200013602360336680E0024F66E450E012063
:10117200F76E000E0220F86E0900F5CF85F1090026
:10118200F5CF86F10900F5CF87F10900F5CF88F197
:10119200640E046E84C100F09CEC03F008C000F001
:1011A2000A0E046E9CEC03F0090E0024056E000E7C
:1011B20000BEFF0E066E000E062205C000F006C03D
:1011C20001F0000E06BEFF0E026E036E00360090A6
:1011D20001360236033600360090013602360336F7
:1011E200680E0024F66E450E0120F76E000E0220F6
:1011F200F86E0900F5CF00F00900F5CF01F0090003
:10120200F5CF02F00900F5CF03F085C104F086C1E5
:1012120005F087C106F088C107F017EC04F000C0A2
:1012220085F101C086F102C087F103C088F10A0E80
:10123200046E84C100F09CEC03F008C000F000C012
:1012420001F0000E00BEFF0E026E036E046E013648
:101252000190023603360436013601900236033617
:101262000436680E0124F66E450E0220F76E000E5B
:101272000320F86E0900F5CF00F00900F5CF01F068
:101282000900F5CF02F00900F5CF03F085C104F0A3
:1012920086C105F087C106F088C107F017EC04F09B
:1012A2009FD0800E0A0A006E800E8419005C71E2E3
:1012B2000A0E046E84C100F09CEC03F0090E0024B7
:1012C200056E000E00BEFF0E066E000E062205C061
:1012D20000F006C001F0000E06BEFF0E026E036EA5
:1012E2000036009001360236033600360090013691
:1012F20002360336680E0024F66E450E0120F76EA4
:10130200000E0220F86E0900F5CF85F10900F5CF35
:1013120086F10900F5CF87F10900F5CF88F10A0EB1
:10132200046E84C100F09CEC03F008C000F000C021
:1013320001F0000E00BEFF0E026E036E046E013657
:101342000190023603360436013601900236033626
:101352000436680E0124F66E450E0220F76E000E6A
:101362000320F86E0900F5CF00F00900F5CF01F077
:101372000900F5CF02F00900F5CF03F085C104F0B2
:1013820086C105F087C106F088C107F017EC04F0AA
:1013920027D084C100F0000E84BFFF0E016E026EE2
:1013A200036E003600900136023603360036009096
:1013B200013602360336680E0024F66E450E012011
:1013C200F76E000E0220F86E0900F5CF00F009005A
:1013D200F5CF01F00900F5CF02F00900F5CF03F0D7
:0213E2001200F7
:1013E4000050086E0150006E0250016E0350026EF0
:1013F400036A0B6A0C6A9E0E036E0A6A020E0C6E76
:061404006CEC00F0120088
:10140A006E0E0101845DD8A0CAD0640E046E84C138
:10141A0000F07FEC03F0120E0024056E066A000E3F
:10142A00062205C000F006C001F0000E06BEFF0E3F
:10143A00026E036E0036009001360236033600361D
:10144A000090013602360336340E0024F66E450E3D
:10145A000120F76E000E0220F86E0900F5CF00F0A9
:10146A000900F5CF01F00900F5CF02F00900F5CF28
:10147A0003F0000E046E000E056E000E066E7E0E60
:10148A00076E17EC04F000C085F101C086F102C0B6
:10149A0087F103C088F1640E046E84C100F07FEC0A
:1014AA0003F008C000F00A0E046E7FEC03F0090E88
:1014BA000024056E066A000E062205C000F006C06A
:1014CA0001F0000E06BEFF0E026E036E003600909B
:1014DA0001360236033600360090013602360336EC
:1014EA00340E0024F66E450E0120F76E000E02201F
:1014FA00F86E0900F5CF00F00900F5CF01F00900F8
:10150A00F5CF02F00900F5CF03F085C104F086C1DA
:10151A0005F087C106F088C107F017EC04F000C097
:10152A0085F101C086F102C087F103C088F10A0E75
:10153A00046E84C100F07FEC03F008C000F000C024
:10154A0001F0000E026E036E046E0136019002363F
:10155A000336043601360190023603360436340E59
:10156A000124F66E450E0220F76E000E0320F86E77
:10157A000900F5CF00F00900F5CF01F00900F5CF19
:10158A0002F00900F5CF03F085C104F086C105F029
:10159A0087C106F088C107F017EC04F0B1D0845176
:1015AA000A08D8B07ED00A0E046E84C100F07FEC1F
:1015BA0003F0090E0024056E066A000E062205C015
:1015CA0000F006C001F0000E06BEFF0E026E036EAA
:1015DA000036009001360236033600360090013696
:1015EA0002360336340E0024F66E450E0120F76EDD
:1015FA00000E0220F86E0900F5CF00F00900F5CFC1
:10160A0001F00900F5CF02F00900F5CF03F0000E52
:10161A00046E000E056E000E066E7E0E076E17EC47
:10162A0004F000C085F101C086F102C087F103C051
:10163A0088F10A0E046E84C100F07FEC03F008C042
:10164A0000F000C001F0000E026E036E046E013657
:10165A00019002360336043601360190023603360B
:10166A000436340E0124F66E450E0220F76E000E83
:10167A000320F86E0900F5CF00F00900F5CF01F05C
:10168A000900F5CF02F00900F5CF03F085C104F097
:10169A0086C105F087C106F088C107F017EC04F08F
:1016AA002FD084C100F0000E016E026E036E003668
:1016BA0000900136023603360036009001360236B3
:1016CA000336340E0024F66E450E0120F76E000E26
:1016DA000220F86E0900F5CF00F00900F5CF01F0FD
:1016EA000900F5CF02F00900F5CF03F0000E046EF1
:1016FA00000E056E000E066E7E0E076E17EC04F0E5
:02170A001200CB
:10170C000B6A0C6A086A0350D8B40AEF0CF002C0DA
:10171C000AF0028E9E0E035E03AEFAEF0BF0036C22
:10172C00080E035CD8A0C7EF0BF0036E083600C0A0
:10173C0008F001C000F002C001F0026A080E035C60
:10174C00D8A0C7EF0BF0036E083600C008F001C03C
:10175C0000F0016A080E035CD8A0C7EF0BF0036E13
:10176C00083600C008F0006A080E035CD8A0C7EF6A
:10177C000BF0036E0836086A0350D8A4D890D3EF48
:10178C000BF00350D8B4D3EF0BF0D89002320132E7
:10179C0000320832032ECBEF0BF00BBC08A0E4EFA9
:1017AC000BF0D8A0E4EF0BF0082AD8B4002AD8B478
:1017BC00012AD8B4022A02BE0EEF0CF00AAE0AEFD0
:1017CC000CF0021E011E001E081E082AD8B4002AA6
:1017DC00D8B4012AD8B4022A0AEF0CF0026A016AC2
:1017EC00006A086A0AEF0CF00B800BAE15EF0CF0D8
:1017FC00026A0AAE15EF0CF0026E016E006E086EF6
:10180C000A36023215EF0CF00C6A000E16EF0CF0D3
:10181C00010E0C6E000E8EEC03F016EF0CF0FF0EAA
:10182C000250036E0150026E0050016E0850006EA3
:02183C00120098
:10183E000450000A12E10550000A0FE10650000A9A
:10184E000CE10750000A09E1FF0E006EFF0E016E5B
:10185E007F0E026EFF0E036EA8D0086A096A07504B
:10186E00D8B4CAEF0CF00350D8B4CFEF0CF002503E
:10187E0006180A6E028E068E0E6A02C008F001C0AD
:10188E000CF000C00DF004500D5E0550D8A0053CC4
:10189E000C5E0650D8A0063C085E086A0C6A0D6AFB
:1018AE00D8A061EF0CF0D89002320132003208322B
:1018BE00010E0E6E0750035ED8A06EEF0CF07E0E7A
:1018CE000E240326D8B0D4EF0CF074EF0CF07E0E7D
:1018DE000E240326D8A0D9EF0CF0180E0B6E0D3681
:1018EE000C3608360036013602360E360450005ECF
:1018FE000550D8A0053C015E0650D8A0063C025EFD
:10190E0006340E120EA08FEF0CF00D809AEF0CF035
:10191E00045000260550D8B0053C01260650D8B01C
:10192E00062802260D900B2E76EF0CF0C0EF0CF071
:10193E00D8900036013602360E360450005E055041
:10194E00D8A0053C015E0650D8A0063C025E0634C7
:10195E000E10010B0D26D8B00C2AD8B4082AD8A424
:10196E00C0EF0CF008320C320D32032AD8B4D4EF8B
:10197E000CF00AAE089E0850026E0C50016E0D500F
:10198E00006EDCEF0CF0010E5DEC01F0DCEF0CF004
:10199E00020E54EC00F0DCEF0CF0040E48EC00F0FC
:0C19AE00DCEF0CF0080E5FEC00F0120003
:1019BA000A6A0350D8A40A800750D8A40A820A5097
:1019CA00D8B440EF0DF0030AD8B4F9EF0CF00AB01E
:1019DA00F4EF0CF006AE3EEF0DF03CEF0DF002AE68
:1019EA003CEF0DF03EEF0DF00250800B0A6E029EA6
:1019FA000650800B069E0A18D8B40AEF0DF00A505A
:101A0A00D8B43CEF0DF03EEF0DF00750035CD8B4AC
:101A1A0014EF0DF0D8A030EF0DF036EF0DF00650B0
:101A2A00025CD8B41EEF0DF0D8A030EF0DF036EFFF
:101A3A000DF00550015CD8B428EF0DF0D8A030EFB6
:101A4A000DF036EF0DF00450005CD8B440EF0DF005
:101A5A00D8B036EF0DF00A52D8B43EEF0DF03CEF95
:101A6A000DF00A52D8B43CEF0DF03EEF0DF0D880DD
:0E1A7A001200D8901200D880D88412001200FA
:101A88000B6A0C6A0A6A086A0350D8B4CCEF0DF0E6
:101A9800028E9E0E035E03BE57EF0DF0D8B457EFCB
:101AA8000DF0BCEF0DF0036C080E035CD8A089EFB5
:101AB8000DF0036E083600C008F001C000F002C047
:101AC80001F0026A080E035CD8A089EF0DF0036EDE
:101AD800083600C008F001C000F0016A080E035C77
:101AE800D8A089EF0DF0036E083600C008F0006A30
:101AF800080E035CD8A089EF0DF0036E0836086A5B
:101B08000350D8A4D89095EF0DF00350D8B495EFB2
:101B18000DF0D8900232013200320832032E8DEFD8
:101B28000DF00BBC08A0A6EF0DF0D8A0A6EF0DF0A5
:101B3800082AD8B4002AD8B4012AD8B4022A02BE86
:101B4800D0EF0DF00AAECCEF0DF0021E011E001E04
:101B5800081E082AD8B4002AD8B4012AD8B4022A00
:101B6800CCEF0DF0026A016A006A086ACCEF0DF04A
:101B78000B800BAED6EF0DF0026A0AAED6EF0DF071
:101B8800026E016E006E086E0A360232D6EF0DF054
:101B9800000E0C6AD7EF0DF0010E0C6E8EEC03F000
:101BA800D7EF0DF0FF0E0250036E0150026E005089
:081BB800016E0850006E1200DE
:101BC00001017C6B7D6B706B716B5EC100F05FC15E
:101BD00001F060C102F0010E5E27000E5F2360235A
:101BE00000C0F6FF01C0F7FF02C0F8FF0900F5CF03
:101BF00000F000C06DF10052D8B4EEEF1DF06D5151
:101C0000250A0BE05CC1E1FF5DC1E2FF6DC1E6FFAB
:101C10005C4B5D2B7C4B7D2BD8D76E6B6F6B706BE9
:101C2000716B23D07087010E5E27000E5F23602347
:101C300059D07081010E5E27000E5F23602352D0C1
:101C40007083010E5E27000E5F2360234BD07187E7
:101C5000010E5E27000E5F23602344D07085010EC5
:101C60005E27000E5F2360233DD05EC1F6FF5FC19B
:101C7000F7FF60C1F8FF0900F5CF01F001502D0A10
:101C8000D1E05EC1F6FF5FC1F7FF60C1F8FF090058
:101C9000F5CF01F00150200ACCE05EC1F6FF5FC134
:101CA000F7FF60C1F8FF0900F5CF01F001502B0AE2
:101CB000C7E05EC1F6FF5FC1F7FF60C1F8FF090032
:101CC000F5CF01F00150230AC2E05EC1F6FF5FC10B
:101CD000F7FF60C1F8FF0900F5CF01F00150300AAD
:101CE000BDE001D09ED770A301D0709170A701D044
:101CF00070955EC1F6FF5FC1F7FF60C1F8FF090094
:101D0000F5CF00F0000E016E00C084F17CEC05F010
:101D1000005236E06E6B6F6B6EC100F06FC101F068
:101D20000A0E046E000E056EAFEC04F05EC1F6FF05
:101D30005FC1F7FF60C1F8FF0900F5CF02F0025064
:101D400000246E6F000E01206F6F300E6E5F000E6C
:101D50006F5B010E5E27000E5F2360235EC1F6FFFE
:101D60005FC1F7FF60C1F8FF0900F5CF00F0000E7A
:101D7000016E00C084F17CEC05F00052CDE133D05F
:101D80005EC1F6FF5FC1F7FF60C1F8FF0900F5CF44
:101D900001F001502A0A27E161C1E9FF62C1EAFFAF
:101DA000EECF00F0EECF01F000C0E9FF01C0EAFF86
:101DB000EECF6EF1EECF6FF161C1E9FF62C1EAFFD4
:101DC000020EEE24006E000EEE20016E61C1E1FFF6
:101DD00062C1E2FF00C0E6FF01C0E6FF010E5E2720
:101DE000000E5F2360235EC1F6FF5FC1F7FF60C195
:101DF000F8FF0900F5CF01F001502E0A70E1010E45
:101E00005E27000E5F2360235EC1F6FF5FC1F7FF10
:101E100060C1F8FF0900F5CF01F001502A0A28E15E
:101E200061C1E9FF62C1EAFFEECF00F0EECF01F041
:101E300000C0E9FF01C0EAFFEECF6BF1EECF6CF11D
:101E400061C1E9FF62C1EAFF020EEE24006E000EDE
:101E5000EE20016E61C1E1FF62C1E2FF00C0E6FF5A
:101E600001C0E6FF010E5E27000E5F23602336D01F
:101E70006B6B6C6B5EC1F6FF5FC1F7FF60C1F8FF73
:101E80000900F5CF00F0000E016E00C084F17CEC7B
:101E900005F0005223E06BC100F06CC101F00A0EA6
:101EA000046E000E056EAFEC04F05EC1F6FF5FC17C
:101EB000F7FF60C1F8FF0900F5CF02F002500024DF
:101EC0006B6F000E01206C6F300E6B5F000E6C5B51
:101ED000010E5E27000E5F236023CCD703D06B6B0F
:101EE0006C6B71895EC100F05FC101F060C102F0EE
:101EF000010E5E27000E5F23602300C0F6FF01C0C5
:101F0000F7FF02C0F8FF0900F5CF6DF1F9D07CC1F1
:101F100000F07DC101F0F2EF1DF07089E3D771850B
:101F20002ED1708B71812BD1718329D1708D27D1E6
:101F300026D1708B708F23D161C1E9FF62C1EAFFA6
:101F4000EECF00F0EECF01F000C0E9FF01C0EAFFE4
:101F5000EECF78F1EECF79F161C1E9FF62C1EAFF1E
:101F6000020EEE24006E000EEE20016E61C1E1FF54
:101F700062C1E2FF00C0E6FF01C0E6FF000E791972
:101F800002E1000E781904E1BF0E786F000E796F40
:101F90007A6B7B6B7A517825E96E7B517921EA6EF9
:101FA000EE520BE0010E7A25006E000E7B21016ED1
:101FB00000C07AF101C07BF1EDD76B516C110AE0E2
:101FC0007B516C5D02E17A516B5D04E26BC17AF189
:101FD0006CC17BF16F517B5D02E16E517A5D05E270
:101FE0007A516E5F7B516F5B02D06E6B6F6B70B717
:101FF00016D06EC100F06FC101F0010E6E5F000ED1
:102000006F5B005001100BE05CC1E1FF5DC1E2FFBE
:10201000200EE66E5C4B5D2B7C4B7D2BEAD77AC1A4
:1020200002F07BC103F0010E7A5D006E000E7B5959
:10203000016E00C07AF101C07BF10250031019E07B
:1020400078C1E9FF79C1EAFF5CC1E1FF5DC1E2FF50
:10205000EECFE6FF5C4B5D2B010E7825006E000E87
:102060007921016E00C078F101C079F17C4B7D2BA4
:10207000D6D770A716D06EC100F06FC101F0010E67
:102080006E5F000E6F5B005001100BE05CC1E1FF62
:102090005DC1E2FF200EE66E5C4B5D2B7C4B7D2B21
:1020A000EAD793D561C1E9FF62C1EAFFEECF00F044
:1020B000EECF01F000C0E9FF01C0EAFFEECF6DF105
:1020C00061C1E9FF62C1EAFF020EEE24006E000E5C
:1020D000EE20016E61C1E1FF62C1E2FF00C0E6FFD8
:1020E00001C0E6FF6D0E786F010E796F010E7A6FF9
:1020F000000E7B6F62D7C00E7013000E71133FD0BD
:102100006D51000AD8B403D76D516C0AD8B405D705
:102110006D514C0AD8B401D76D51660AD8B4FFD6B8
:102120006D51450AD8B4FDD66D51650AD8B4FAD6BA
:102130006D51670AD8B4F8D66D516F0AD8B4F6D687
:102140006D51640AD8B4F4D66D51690AD8B4F0D68A
:102150006D51700AD8B4EDD66D51580AD8B4E9D68D
:102160006D51780AD8B4E6D66D51730AD8B4E4D666
:102170006D51630A97E06D51750ABDE0B3D7000E4B
:102180007015006E7151070B016E00500110D8B42C
:1021900095EF19F071A904D0060E6B6F000E6C6FED
:1021A00061C1E9FF62C1EAFFEECF00F0EECF01F0BE
:1021B00000C0E9FF01C0EAFFEECF72F1EECF73F18C
:1021C000EECF74F1EECF75F161C1E9FF62C1EAFFB4
:1021D000040EEE24006E000EEE20016E61C1E1FFE0
:1021E00062C1E2FF00C0E6FF01C0E6FF046A056AC3
:1021F000066A076A72C100F073C101F074C102F08F
:1022000075C103F0DDEC0CF0010ED8B0000E006ECD
:10221000005205E0747F030E7013000E7113766B8D
:10222000776B72C100F073C101F074C102F075C127
:1022300003F0046A056A066A076A88EC05F0000E76
:10224000D8A4010E006E0052D8B48AD075C100F037
:10225000016A026A036AFF0E0016000E01167E0E66
:10226000005E000E015A00C076F101C077F1010E48
:10227000005E000E015A00C076F101C077F1030E36
:10228000046E000E056EAFEC04F000C076F101C0E4
:1022900077F10A0E046E000E056E19EC05F000C011
:1022A00076F101C077F1800E0118026E800E025C9B
:1022B00002E1000E005C05E2010E0101765F000EF6
:1022C000775B010176510008846F19EC07F072C149
:1022D00004F073C105F074C106F075C107F017EC86
:1022E00004F000C078F101C079F102C07AF103C0B6
:1022F0007BF1000E046E000E056E000E066E7F0E62
:10230000076E78C100F079C101F07AC102F07BC19B
:1023100003F0DDEC0CF0010ED8B0000E006E0052A0
:1023200005E0010E765F000E775B1AD0000E046E9A
:10233000000E056E200E066E820E076E78C100F04C
:1023400079C101F07AC102F07BC103F0DDEC0CF041
:10235000000ED8B0010E006E005202E0764B772BD3
:10236000800E006E800E7719005C02E17651000845
:1023700003E3010E6D6F02D076C16DF171B118D01B
:1023800071A315D0800E7719006E7F0E005C02E1FC
:10239000FC0E765D0BE3800E7719006E800E6C19D3
:1023A000005C02E16B51765D01E201D001D0EFD318
:1023B0006B516C1106E071A304D0010E6B5F000E2F
:1023C0006C5B6C51000802E16B51080803E2080ED7
:1023D0006D6F02D06BC16DF172C100F073C101F07D
:1023E00074C102F075C103F0046A056A066A076ADF
:1023F00088EC05F0000ED8A4010E006E0052D8B48F
:102400004BD176C184F119EC07F000C004F001C093
:1024100005F002C006F003C007F072C100F073C1FE
:1024200001F074C102F075C103F01FEC0CF000C0A4
:1024300072F101C073F102C074F103C075F10101C2
:102440006D510008846F19EC07F000C004F001C062
:1024500005F002C006F003C007F072C100F073C1BE
:1024600001F074C102F075C103F01FEC0CF000C064
:102470007EF101C07FF102C080F103C081F17EC115
:1024800072F17FC173F180C174F181C175F17EC1B8
:1024900000F07FC101F080C102F081C103F044EC83
:1024A0000DF0F2EC09F000C004F001C005F002C02C
:1024B00006F003C007F07EC100F07FC101F080C1CB
:1024C00002F081C103F015EC07F0000E046E000E5F
:1024D000056E000E066E7E0E076EDDEC0CF0000E33
:1024E000D8B0010E006E00521AE072C100F073C144
:1024F00001F074C102F075C103F0000E046E000E0D
:10250000056E000E066E7E0E076E6FEC01F000C0C9
:1025100072F101C073F102C074F103C075F172C1B0
:1025200000F073C101F074C102F075C103F044EC16
:102530000DF001016D51010F096E0A6A000E0A22A9
:1025400009C004F00AC005F0000E0ABEFF0E066EB8
:10255000076E0436049005360636073604360490B6
:10256000053606360736CC0E0424F66E450E0520D9
:10257000F76E000E0620F86E0900F5CF05F0090091
:10258000F5CF06F00900F5CF07F00900F5CF08F008
:102590000850035C08E10750025C05E10650015C4D
:1025A00002E10550005C1EE3010172C100F073C13D
:1025B00001F074C102F075C103F0CD0E046ECC0EB3
:1025C000056E4C0E066E7B0E076E17EC04F000C015
:1025D00072F101C073F102C074F103C075F1764B62
:1025E000772B5AD072C100F073C101F074C102F0B0
:1025F00075C103F044EC0DF06DC104F0000E056EE2
:10260000066E076E04360490053606360736043625
:102610000490053606360736CC0E0424F66E450EB9
:102620000520F76E000E0620F86E0900F5CF05F0C4
:102630000900F5CF06F00900F5CF07F00900F5CF46
:1026400008F00850035C08E10750025C05E1065001
:10265000015C02E10550005C1FE2010172C100F063
:1026600073C101F074C102F075C103F0000E046E75
:10267000000E056E200E066E820E076E17EC04F03B
:1026800000C072F101C073F102C074F103C075F1B2
:10269000010E765F000E775B010171A393D071B7D5
:1026A00091D0800E000A006E800E6C19005C02E171
:1026B0006B510A0804E20A0E6B6F000E6C6F72C158
:1026C00000F073C101F074C102F075C103F044EC75
:1026D0000DF000C078F101C079F102C07AF103C0B9
:1026E0007BF1785179117A117B1142E00A0E046E68
:1026F000000E056E066E076E78C100F079C101F01C
:102700007AC102F07BC103F09FEC05F008C000F035
:1027100009C001F00AC002F00BC003F0000E046E05
:10272000031808E10450021805E10450011802E101
:102730000050000A1DE1010E6B5F000E6C5B0A0E7B
:10274000046E000E056E066E076E78C100F079C14A
:1027500001F07AC102F07BC103F09FEC05F000C0EC
:1027600078F101C079F102C07AF103C07BF1B9D7E9
:10277000800E6C19006E800E005C02E16D516B5D85
:1027800021E26B516D5D846F19EC07F000C004F01D
:1027900001C005F002C006F003C007F072C100F0EE
:1027A00073C101F074C102F075C103F01FEC0CF0AD
:1027B00000C072F101C073F102C074F103C075F181
:1027C0006BC16DF1050E01016B25006E000E6C21D1
:1027D000016E00506E5F01506F5B6B516C1103E135
:1027E00071B701D004D0010E6E5F000E6F5B030E57
:1027F0007015006E71C101F0000E0116005001103D
:1028000004E0010E6E5F000E6F5B70A539D070A3FF
:1028100012D070A103D02D0E636F02D02B0E636F08
:102820005CC1E1FF5DC1E2FF63C1E6FF5C4B5D2B74
:102830007C4B7D2B0CD070A10AD05CC1E1FF5DC147
:10284000E2FF200EE66E5C4B5D2B7C4B7D2B800EF9
:10285000006E800E6F19005C02E16E5100080FE2FD
:102860005CC1E1FF5DC1E2FF300EE66E5C4B5D2BAB
:102870007C4B7D2B010E6E5F000E6F5BE8D73AD06C
:1028800070B718D0800E006E800E6F19005C02E1E8
:102890006E5100080FE25CC1E1FF5DC1E2FF200E56
:1028A000E66E5C4B5D2B7C4B7D2B010E6E5F000E4C
:1028B0006F5BE8D770A312D070A103D02D0E646FA8
:1028C00002D02B0E646F5CC1E1FF5DC1E2FF64C109
:1028D000E6FF5C4B5D2B7C4B7D2B0CD070A10AD0AE
:1028E0005CC1E1FF5DC1E2FF200EE66E5C4B5D2B3B
:1028F0007C4B7D2B72C100F073C101F074C102F0FA
:1029000075C103F044EC0DF000C078F101C079F11D
:1029100002C07AF103C07BF16DC100F0000E016EC0
:10292000026E036E00360090013602360336003622
:102930000090013602360336CC0E0024F66E450EAA
:102940000120F76E000E0220F86E0900F5CF04F0AA
:102950000900F5CF05F00900F5CF06F00900F5CF25
:1029600007F078C100F079C101F07AC102F07BC1B3
:1029700003F09FEC05F0300E00265CC1E1FF5DC165
:10298000E2FF00C0E6FF5C4B5D2B7C4B7D2B6B5167
:102990006C1103E171B701D06FD05CC1E1FF5DC183
:1029A000E2FF2E0EE66E5C4B5D2B7C4B7D2B6D515A
:1029B0006B5F000E6C5B6D534DE06D076DC100F0F9
:1029C000000E016E026E036E003600900136023674
:1029D000033600360090013602360336CC0E002452
:1029E000F66E450E0120F76E000E0220F86E09000B
:1029F000F5CF04F00900F5CF05F00900F5CF06F09A
:102A00000900F5CF07F078C100F079C101F07AC173
:102A100002F07BC103F09FEC05F00A0E046E000E7D
:102A2000056E066E076E9FEC05F008C000F009C049
:102A300001F00AC002F00BC003F0300E00265CC1AA
:102A4000E1FF5DC1E2FF00C0E6FF5C4B5D2B7C4B0C
:102A50007D2BB1D76B516C110FE05CC1E1FF5DC103
:102A6000E2FF300EE66E5C4B5D2B7C4B7D2B010E46
:102A70006B5F000E6C5BEED770AB0BD05CC1E1FFFF
:102A80005DC1E2FF450EE66E5C4B5D2B7C4B7D2B02
:102A90000AD05CC1E1FF5DC1E2FF650EE66E5C4BF2
:102AA0005D2B7C4B7D2B800E7719006E800E005CB9
:102AB00002E1000E765D11E276510008766F7751E3
:102AC000000E77575CC1E1FF5DC1E2FF2D0EE66E9F
:102AD0005C4B5D2B7C4B7D2B0AD05CC1E1FF5DC163
:102AE000E2FF2B0EE66E5C4B5D2B7C4B7D2B0A0EC2
:102AF000046E000E056E76C100F077C101F019EC8E
:102B000005F0300E00265CC1E1FF5DC1E2FF00C0B0
:102B1000E6FF01015C4B5D2B7C4B7D2B0A0E046EA6
:102B2000000E056E76C100F077C101F019EC05F0DA
:102B300008C000F009C001F0300E00265CC1E1FFC2
:102B40005DC1E2FF00C0E6FF01015C4B5D2B7C4BE9
:102B50007D2B70A71AD0800E006E800E6F19005C5E
:102B600002E16E51000811E25CC1E1FF5DC1E2FFCC
:102B7000200EE66E5C4B5D2B7C4B7D2B010E6E5F59
:102B8000000E6F5B6E516F11EFE1E5EF0DF071A379
:102B9000F3D0800E7719006E800E005C02E1000E0B
:102BA000765D0AE2010E765D006E000E7759016EC9
:102BB00000506B5F01506C5B72C100F073C101F09B
:102BC00074C102F075C103F044EC0DF000C078F15F
:102BD00001C079F102C07AF103C07BF1010E6D6F83
:102BE0006D510A0A34E06DC100F0000E016E026EF4
:102BF000036E003600900136023603360036009030
:102C0000013602360336CC0E0024F66E450E012046
:102C1000F76E000E0220F86E0900F5CF01F00900F2
:102C2000F5CF02F00900F5CF03F00900F5CF04F06D
:102C300004507B5D08E103507A5D05E10250795D47
:102C400002E10150785D01E202D06D2BC9D76D51D0
:102C50006B5D826F000E6C59836F82C16BF183C113
:102C60006CF178C100F079C101F07AC102F07BC14A
:102C700003F0F2EC09F000C004F001C005F002C05E
:102C800006F003C007F072C100F073C101F074C117
:102C900002F075C103F015EC07F000C07EF101C031
:102CA0007FF102C080F103C081F182C184F119EC8F
:102CB00007F07EC104F07FC105F080C106F081C13C
:102CC00007F017EC04F0000E046E000E056E000E07
:102CD000066E7E0E076E6FEC01F044EC0DF000C046
:102CE00078F101C079F102C07AF103C07BF16B5138
:102CF0006C1142E00A0E046E000E056E066E076E41
:102D000078C100F079C101F07AC102F07BC103F013
:102D10009FEC05F008C000F009C001F00AC002F005
:102D20000BC003F0000E046E031808E104500218F3
:102D300005E10450011802E10050000A1DE10A0EED
:102D4000046E000E056E066E076E78C100F079C144
:102D500001F07AC102F07BC103F09FEC05F000C0E6
:102D600078F101C079F102C07AF103C07BF1010E64
:102D70006B5F000E6C5BBBD7800E006E800E6C1913
:102D8000005C02E16B510C0816E36BC184F105ECA9
:102D90000AF072C104F073C105F074C106F075C188
:102DA00007F06FEC01F000C072F101C073F102C0D6
:102DB00074F103C075F172C100F073C101F074C108
:102DC00002F075C103F0046A056A066A076A88ECB6
:102DD00005F0000ED8A4010E006E0052D8B477D0D2
:102DE00072C100F073C101F074C102F075C103F04B
:102DF00044EC0DF0000E046E031808E104500218B4
:102E000005E10450011802E10050000A60E1800E63
:102E1000006E800E7719005C02E17651010857E2DE
:102E200076C184F119EC07F000C004F001C005F090
:102E300002C006F003C007F072C100F073C101F0D8
:102E400074C102F075C103F01FEC0CF05F0E046E4C
:102E5000700E056E090E066E810E076EDDEC0CF02D
:102E6000010ED8B0000E006E005206E0090E0101FE
:102E7000765F000E775B05D00101080E765F000ECD
:102E8000775B76C184F119EC07F000C004F001C053
:102E900005F002C006F003C007F072C100F073C174
:102EA00001F074C102F075C103F01FEC0CF044ECAA
:102EB0000DF000C078F101C079F102C07AF103C0D1
:102EC0007BF10101726B736B746B756B38D072C1DF
:102ED00000F073C101F074C102F075C103F044EC5D
:102EE0000DF000C078F101C079F102C07AF103C0A1
:102EF0007BF178C100F079C101F07AC102F07BC1A9
:102F000003F0F2EC09F000C004F001C005F002C0CB
:102F100006F003C007F072C100F073C101F074C184
:102F200002F075C103F015EC07F000C072F101C0AA
:102F300073F102C074F103C075F1766B776B010E0B
:102F40006D6F6D510A0A34E06DC100F0000E016E24
:102F5000026E036E003600900136023603360036EC
:102F60000090013602360336CC0E0024F66E450E74
:102F70000120F76E000E0220F86E0900F5CF01F077
:102F80000900F5CF02F00900F5CF03F00900F5CFF5
:102F900004F004507B5D08E103507A5D05E10250C6
:102FA000795D02E10150785D01E202D06D2BC9D755
:102FB0006D516B25006E000E6C21016E765100265E
:102FC0007751012200506E5F01506F5B71B704D0E2
:102FD0006B516C1101E104D0010E6E5F000E6F5B4E
:102FE000030E7015006E71C101F0000E0116005045
:102FF000011004E0010E6E5F000E6F5B70A539D00A
:1030000070A312D070A103D02D0E656F02D02B0ECD
:10301000656F5CC1E1FF5DC1E2FF65C1E6FF5C4B2E
:103020005D2B7C4B7D2B0CD070A10AD05CC1E1FFE5
:103030005DC1E2FF200EE66E5C4B5D2B7C4B7D2B71
:10304000800E006E800E6F19005C02E16E51000868
:103050000FE25CC1E1FF5DC1E2FF300EE66E5C4B4A
:103060005D2B7C4B7D2B010E6E5F000E6F5BE8D7F6
:103070003AD070B718D0800E006E800E6F19005CC9
:1030800002E16E5100080FE25CC1E1FF5DC1E2FFA9
:10309000200EE66E5C4B5D2B7C4B7D2B010E6E5F34
:1030A000000E6F5BE8D770A312D070A103D02D0E75
:1030B000666F02D02B0E666F5CC1E1FF5DC1E2FF5F
:1030C00066C1E6FF5C4B5D2B7C4B7D2B0CD070A169
:1030D0000AD05CC1E1FF5DC1E2FF200EE66E5C4BF1
:1030E0005D2B7C4B7D2B6DC100F06D0700524CE0D9
:1030F0006DC100F0000E016E026E036E003600908E
:1031000001360236033600360090013602360336A9
:10311000CC0E0024F66E450E0120F76E000E022044
:10312000F86E0900F5CF04F00900F5CF05F00900AD
:10313000F5CF06F00900F5CF07F078C100F079C1AE
:1031400001F07AC102F07BC103F09FEC05F00A0E9A
:10315000046E000E056E066E076E9FEC05F008C04B
:1031600000F009C001F00AC002F00BC003F0300EFD
:1031700000265CC1E1FF5DC1E2FF00C0E6FF5C4BE1
:103180005D2B7C4B7D2BAFD7800E006E800E7719A8
:10319000005C02E1765100080FE25CC1E1FF5DC115
:1031A000E2FF300EE66E5C4B5D2B7C4B7D2B010EFF
:1031B000765F000E775BE8D7800E000A006E800E07
:1031C0006C19005C02E16B51080803E2080E6D6F98
:1031D00002D06BC16DF16D516B5F000E6C5B6D5376
:1031E00003E171B701D00AD05CC1E1FF5DC1E2FF2C
:1031F0002E0EE66E5C4B5D2B7C4B7D2B6DC184F1FE
:1032000019EC07F072C104F073C105F074C106F047
:1032100075C107F017EC04F086EC0BF000C078F1F4
:1032200001C079F102C07AF103C07BF16D534DE02A
:103230006D076DC100F0000E016E026E036E003668
:103240000090013602360336003600900136023611
:103250000336CC0E0024F66E450E0120F76E000EEC
:103260000220F86E0900F5CF04F00900F5CF05F053
:103270000900F5CF06F00900F5CF07F078C100F09E
:1032800079C101F07AC102F07BC103F09FEC05F037
:103290000A0E046E000E056E066E076E9FEC05F0BA
:1032A00008C000F009C001F00AC002F00BC003F032
:1032B000300E00265CC1E1FF5DC1E2FF00C0E6FF09
:1032C0005C4B5D2B7C4B7D2BB1D76B516C110FE0B0
:1032D0005CC1E1FF5DC1E2FF300EE66E5C4B5D2B31
:1032E0007C4B7D2B010E6B5F000E6C5BEED770A7E5
:1032F0001AD0800E006E800E6F19005C02E16E51D4
:10330000000811E25CC1E1FF5DC1E2FF200EE66E44
:103310005C4B5D2B7C4B7D2B010E6E5F000E6F5B5B
:103320006E516F11EFE1E5EF0DF0C00E7015016EFB
:1033300071C102F0000E0216000E021802E1000E2A
:103340000118D8A480D070A927D061C1E9FF62C15B
:10335000EAFFEECF00F0EECF01F000C0E9FF01C0C0
:10336000EAFFEECF78F1EECF79F1EECF7AF1EECF42
:103370007BF161C1E9FF62C1EAFF040EEE24006E39
:10338000000EEE20016E61C1E1FF62C1E2FF00C0EC
:10339000E6FF01C0E6FF2FD061C1E9FF62C1EAFF8D
:1033A000EECF00F0EECF01F000C0E9FF01C0EAFF70
:1033B000EECF00F0EECF01F0000E01BEFF0E026E68
:1033C000036E00C078F101C079F102C07AF103C048
:1033D0007BF161C1E9FF62C1EAFF020EEE24006EDB
:1033E000000EEE20016E61C1E1FF62C1E2FF00C08C
:1033F000E6FF01C0E6FF800E7B19006E800E005CC8
:1034000008E1000E7A5D05E1000E795D02E1000E33
:10341000785D18E2030E7013000E7113006A016AE2
:10342000026A036A7851005E7951015A7A51025A50
:103430007B51035A00C078F101C079F102C07AF1E2
:1034400003C07BF14ED070A927D061C1E9FF62C1F2
:10345000EAFFEECF00F0EECF01F000C0E9FF01C0BF
:10346000EAFFEECF78F1EECF79F1EECF7AF1EECF41
:103470007BF161C1E9FF62C1EAFF040EEE24006E38
:10348000000EEE20016E61C1E1FF62C1E2FF00C0EB
:10349000E6FF01C0E6FF25D061C1E9FF62C1EAFF96
:1034A000EECF00F0EECF01F000C0E9FF01C0EAFF6F
:1034B000EECF78F1EECF79F1000E7A6F7B6F61C1BC
:1034C000E9FF62C1EAFF020EEE24006E000EEE205C
:1034D000016E61C1E1FF62C1E2FF00C0E6FF01C011
:1034E000E6FF000E6C1902E1000E6B190FE1000EF1
:1034F000006E7B1908E100507A1905E10050791936
:1035000002E17851000A02E16B4B6C2BC00E701582
:10351000006E00C005F0AED0010E6D6F6D510A0A4D
:1035200034E06DC100F0000E016E026E036E0036D5
:10353000009001360236033600360090013602361E
:103540000336CC0E0024F66E450E0120F76E000EF9
:103550000220F86E0900F5CF01F00900F5CF02F066
:103560000900F5CF03F00900F5CF04F004507B5DAE
:1035700008E103507A5D05E10250795D02E10150F6
:10358000785D01E202D06D2BC9D782D0010E6D6F3C
:103590006D51080A34E06DC100F0000E016E026E3C
:1035A000036E003600900136023603360036009076
:1035B000013602360336F40E0024F66E450E012065
:1035C000F76E000E0220F86E0900F5CF01F0090039
:1035D000F5CF02F00900F5CF03F00900F5CF04F0B4
:1035E00004507B5D08E103507A5D05E10250795D8E
:1035F00002E10150785D01E202D06D2BC9D748D0BD
:10360000010E6D6F6D510C0A34E06DC100F0000EBB
:10361000016E026E036E00360090013602360336EC
:10362000003600900136023603369C0E0024F66EFA
:10363000450E0120F76E000E0220F86E0900F5CF4E
:1036400001F00900F5CF02F00900F5CF03F0090001
:10365000F5CF04F004507B5D08E103507A5D05E18D
:103660000250795D02E10150785D01E202D06D2BDC
:10367000C9D70ED00550000AD8B44ED70550C00A9D
:10368000D8B44AD70550800A81E00550400AB8E016
:10369000800E006E800E6C19005C02E16B516D5D56
:1036A00003E26BC16DF10DD0800E6C19006E800EBF
:1036B000005C02E16D516B5D04E26DC16BF1000EC7
:1036C0006C6F6E516F110EE0030E7015006E71C1BC
:1036D00001F0000E01160050011004E0010E6E5FB3
:1036E000000E6F5B800E6C19006E800E6F19005C0F
:1036F00002E16E516B5D05E26B516E5F6C516F5B69
:1037000002D06E6B6F6BC40E7015016E7151080B99
:10371000026E0250080A02E1400E011808E16E51E3
:103720006F1104E0010E6E5F000E6F5B1CD0C00EC7
:103730007015016E7151080B026E0250080A02E109
:10374000800E011810E1800E006E800E6F19005C73
:1037500002E16E51020805E2020E6E5F000E6F5B21
:1037600002D06E6B6F6B70A55DD070A312D070A18C
:1037700003D02D0E676F02D02B0E676F5CC1E1FF87
:103780005DC1E2FF67C1E6FF5C4B5D2B7C4B7D2B8F
:1037900034D070A10BD05CC1E1FF5DC1E2FF200E0F
:1037A000E66E5C4B5D2B7C4B7D2B27D0C00E7015DD
:1037B000016E7151080B026E0250080A02E1800E80
:1037C00001181BE15CC1E1FF5DC1E2FF300EE66E56
:1037D0005C4B5D2B7C4B7D2B70AB03D0580E686F20
:1037E00002D0780E686F5CC1E1FF5DC1E2FF68C185
:1037F000E6FF5C4B5D2B7C4B7D2B6E516F1111E016
:103800005CC1E1FF5DC1E2FF300EE66E5C4B5D2BFB
:103810007C4B7D2B010E6E5F000E6F5B6E516F1146
:10382000EFE174D06E516F1113E070B711D05CC12D
:10383000E1FF5DC1E2FF200EE66E5C4B5D2B7C4B31
:103840007D2B010E6E5F000E6F5B6E516F11EFE10D
:1038500070A312D070A103D02D0E696F02D02B0E71
:10386000696F5CC1E1FF5DC1E2FF69C1E6FF5C4BCE
:103870005D2B7C4B7D2B0CD070A10AD05CC1E1FF8D
:103880005DC1E2FF200EE66E5C4B5D2B7C4B7D2B19
:10389000C00E7015016E7151080B026E0250080ABD
:1038A00002E1400E01180BE15CC1E1FF5DC1E2FFE6
:1038B000300EE66E5C4B5D2B7C4B7D2B27D0C00E13
:1038C0007015016E7151080B026E0250080A02E178
:1038D000800E01181BE15CC1E1FF5DC1E2FF300E0B
:1038E000E66E5C4B5D2B7C4B7D2B70AB03D0580E92
:1038F0006A6F02D0780E6A6F5CC1E1FF5DC1E2FFC2
:103900006AC1E6FF5C4B5D2B7C4B7D2B800E006E0D
:10391000800E6C19005C02E16B516D5D0BE25CC1C5
:10392000E1FF5DC1E2FF300EE66E5C4B5D2B7C4B30
:103930007D2BECD76BC100F06CC101F0010E6B5F09
:10394000000E6C5B00500110D8B42AD1C00E701567
:10395000006E00C07EF10AD16BC100F06CC101F0B5
:10396000000E6CBFFF0E026E036E00360090013633
:103970000236033600360090013602360336CC0E8E
:103980000024F66E450E0120F76E000E0220F86E40
:103990000900F5CF04F00900F5CF05F00900F5CFD7
:1039A00006F00900F5CF07F078C100F079C101F009
:1039B0007AC102F07BC103F09FEC05F00A0E046EA1
:1039C000000E056E066E076E9FEC05F008C000F055
:1039D00009C001F00AC002F00BC003F0300E002451
:1039E0006D6FD3D070AB45D06BC100F06CC101F0EE
:1039F000000E6CBFFF0E026E036E003600900136A3
:103A00000236033600360090013602360336F40ED5
:103A10000024F66E450E0120F76E000E0220F86EAF
:103A20000900F5CF04F00900F5CF05F00900F5CF46
:103A300006F00900F5CF07F078C100F079C101F078
:103A40007AC102F07BC103F09FEC05F00F0E001667
:103A5000000E011602160316250E0024F66E460E01
:103A60000120F76E000E0220F86E0900F5CF6DF10F
:103A700044D06BC100F06CC101F0000E6CBFFF0EB2
:103A8000026E036E003600900136023603360036B1
:103A90000090013602360336F40E0024F66E450E11
:103AA0000120F76E000E0220F86E0900F5CF04F039
:103AB0000900F5CF05F00900F5CF06F00900F5CFB4
:103AC00007F078C100F079C101F07AC102F07BC142
:103AD00003F09FEC05F00F0E0016000E0116021603
:103AE0000316140E0024F66E460E0120F76E000E2B
:103AF0000220F86E0900F5CF6DF147D06BC100F0E0
:103B00006CC101F0000E6CBFFF0E026E036E00363A
:103B10000090013602360336003600900136023638
:103B200003369C0E0024F66E450E0120F76E000E43
:103B30000220F86E0900F5CF04F00900F5CF05F07A
:103B40000900F5CF06F00900F5CF07F078C100F0C5
:103B500079C101F07AC102F07BC103F09FEC05F05E
:103B6000070E00146D6F300E6D270FD07E51000AC6
:103B7000D8B4F2D67E51C00AD8B4EED67E51800AAF
:103B8000D8B430D77E51400AB9E05CC1E1FF5DC1D5
:103B9000E2FF6DC1E6FF5C4B5D2B7C4B7D2BCAD6F3
:103BA00070A71AD0800E006E800E6F19005C02E1C3
:103BB0006E51000811E25CC1E1FF5DC1E2FF200E21
:103BC000E66E5C4B5D2B7C4B7D2B010E6E5F000E19
:103BD0006F5B6E516F11EFE1E5EF0DF07CC100F00E
:063BE0007DC101F012009E
:0E3BE600ACB202D00000FCD75CC1ADFF1200F3
:103BF4000001CA935CC184F1D7EC04F0CA831200BB
:0A3C0400000EA4BA010E006E1200BB
:0A3C0E00000E72B2010E006E1200EB
:0A3C1800000EACB2010E006E1200A7
:103C2200AECF01F0ABA202D0AB98AB8801C000F0DE
:023C320012007E
:0A3C3400000E9EBA010E006E120091
:103C3E0074CF01F071A202D07198718801C000F0AA
:023C4E00120062
:0C3C50000E0E0D6E0D2EFED700001200AF
:103C5C00520E01015A6F010E5B6F4DC15CF14EC1EA
:103C6C005DF14FC15EF150C15FF151C160F15A0E6F
:103C7C00616F010E626FE0EC0DF000C058F101C0F5
:103C8C0059F100504D25E16E01504E21E26EE66A6D
:0A3C9C0058C100F059C101F01200F8
:103CA600020E0C6E490E0D6E0D2EFED70C2EFCD795
:063CB600000000001200F6
:103CBC0010D0800E01014D6F1AD0C00E4D6F17D071
:103CCC00940E4D6F14D0D40E4D6F11D0800E4D6FDD
:103CDC000ED001014D51010AECE04D51020AEDE00C
:103CEC004D51030AEDE04D51040AEDE0EFD74E05BE
:103CFC00006E4D51002600C04DF100C084F1D7EC90
:103D0C0004F0CA930101516B51514F25E96E000E1D
:103D1C005021EA6EEE520CE051514F25E96E000E27
:103D2C005021EA6EEECF5CF15FDF0101512BECD735
:063D3C000001CA83120021
:103D42000101506B4DC1E9FF4EC1EAFFEECF4FF1C9
:103D52004F51000A0EE04FC15CF144DF0101502BCC
:103D620050514D25E96E000E4E21EA6EEECF4FF115
:043D7200EFD7120075
:103D7600FF0E01011D6FFF0E1E6FFF0E1F6FFF0E60
:103D8600206FC26A0001B81D006E0050C1160F0EEA
:083D9600C012C08EC2801200B1
:103D9E00F250026EF29E0500FF6A0150FE6E005058
:083DAE00FD6E02BEF28E120050
:103DB600939A93989390939293949396819A8198D9
:103DC600819681948192819064EC01F064EC01F01B
:103DD60064EC01F081828180818A61EC01F0819A34
:103DE60064EC01F0818A61EC01F0819A64EC01F0E7
:103DF600818A61EC01F0819A64EC01F08190818AFC
:103E060061EC01F0819A64EC01F0818A61EC01F0C9
:103E1600819A81928186818A61EC01F0819A64ECB3
:103E260001F081968180818A61EC01F0819A81900E
:103E3600818A61EC01F0819A64EC01F0818A61EC7F
:103E460001F0819A8180818A61EC01F0819A64ECAB
:103E560001F08190818A61EC01F0819A81868184EA
:103E660081828180818A61EC01F0819A64EC01F0A3
:063E76000001CA831200E6
:103E7C00010E0101846FD7EC04F00C0E0101846F6C
:103E8C00D7EC04F0010E01014D6F010E4E6F4F0E79
:103E9C004F6F000E506F0CDF0B0E0B6E260E0C6E60
:103EAC005D0E0D6E0D2EFED70C2EFCD70B2EFAD7F9
:103EBC0000000000010E0101846FD7EC04F02E0EFF
:103ECC0001014D6F010E4E6F360E4F6F460E506F47
:103EDC00000E516FC8C052F1C9C053F1C6C054F1A5
:103EEC00C7C055F128C156F129C157F1B1DE010EF9
:103EFC004D6F010E4E6F2E0E4F6F010E506FD8DEB0
:103F0C00020E01014D6F010E4E6FBC0E4F6F000E75
:103F1C00506FCEDE020E01014D6F070E4E6FB90EC3
:0A3F2C004F6F000E506FC4DE12004C
:103F3600C26A0001B81D006E0050C1160F0EC012F5
:103F4600C08E46C100F0003600900036009000504A
:103F5600C212C2807ADEC282C2A201D0FDD7C4CF0D
:103F660001F0006A00C047F101C048F1C3500012D9
:103F7600000E011200C047F101C048F1C290000EC8
:103F86000014026E0150800B036E000E031802E14E
:103F9600000E021803E00101476B486B47C100F0B1
:063FA60048C101F0120009
:103FAC00370E01014D6F000E4E6FC5DE0A0E5C6FB1
:103FBC0014DE0D0E01015C6F10DE1A0E01014D6F47
:103FCC00000E4E6FB8DE0A0E5C6F07DE0D0E01019F
:103FDC005C6F03DE940E01014D6F000E4E6FABDE75
:103FEC000A0E5C6FFADD0D0E01015C6FF6DD610EE1
:103FFC0001014D6F000E4E6F9EDE0A0E5C6FEDDD03
:0A400C000D0E01015C6FE9DD1200EA
:1040160001014C6B48C101F0010E006E015004E035
:1040260000360090FF0FFBD700C04BF146C1E9FFF9
:1040360047C1EAFF0050EE14016E0152010ED8A4EA
:10404600000E006E4A51001A18E04951000804E2B9
:1040560027DE26DE4907F9D746C1E9FF47C1EAFF51
:104066004B51EE14016E0152010ED8A4000E006EE3
:104076004A51001A02E0FF0E4C6F4CC100F01200CC
:1040860046C104F047C105F001014A514B1124E035
:10409600010E4A5F000E4B5B04C002F005C003F040
:1040A600044A052A48C100F049C101F0484B492B92
:1040B60000C0E9FF01C0EAFF02C0E1FF03C0E2FF62
:1040C600EECFE6FF02C0E9FF03C0EAFFEECF00F045
:1040D600005201E101D0D8D74AC100F04BC101F02E
:1040E600010E4A5F000E4B5B0050011008E004C051
:1040F600E1FF05C0E2FFE66A044A052AEDD746C19C
:0841060000F047C101F01200B6
:10410E000B0E0B6E260E0C6E5D0E0D6E0D2EFED76B
:0E411E000C2EFCD70B2EFAD70000000012006A
:10412C00E60E0101426F3B0E436F5C0E446F010EB5
:10413C00456F220E3E6F3C0E3F6F000E406F000E1F
:10414C00416F340E2A6F3C0E2B6F000E2C6F000E3D
:10415C002D6F180E246F3C0E256F000E266F000E6F
:10416C00276FAC8A900EAB6E948E949C9EAA03D053
:08417C00AECF00F0FBD71200EA
:1041840028C11BF129C11CF10101466BD2DE00C01C
:1041940028F101C029F101011C51011802E100506C
:0A41A4001B1902E00001CA8112009D
:1041AE00820E0101466F0F0E476F486B010E496F6D
:1041BE004A6B2ADF005223E00A0E0001C825016E69
:1041CE00000EC921026E800E006E800E0218005C79
:1041DE0002E10150FF0813E30A0EC827000EC9239F
:1041EE00CA81040E0B6E0C0E0C6E330E0D6E0D2E60
:1041FE00FED70C2EFCD70B2EFAD700000000820E35
:10420E000101466F0F0E476F010E486F010E496F89
:10421E004A6BFADE005223E00A0E0001C85D016E01
:10422E00000EC959026E800E0218006E800E005CE0
:10423E0002E1000E015C13E30A0EC85F000EC95BBB
:10424E00CA81040E0B6E0C0E0C6E330E0D6E0D2EFF
:10425E00FED70C2EFCD70B2EFAD700000000820ED4
:10426E000101466F0F0E476F020E486F010E496F28
:10427E004A6BCADE005223E00A0E0001C625016E0B
:10428E00000EC721026E800E006E800E0218005CBA
:10429E0002E10150FF0813E30A0EC627000EC723E2
:1042AE00CA81040E0B6E0C0E0C6E330E0D6E0D2E9F
:1042BE00FED70C2EFCD70B2EFAD700000000820E74
:1042CE000101466F0F0E476F030E486F010E496FC7
:1042DE004A6B9ADE005223E00A0E0001C65D016EA3
:1042EE00000EC759026E800E0218006E800E005C22
:1042FE0002E1000E015C13E30A0EC65F000EC75BFF
:10430E00CA81040E0B6E0C0E0C6E330E0D6E0D2E3E
:10431E00FED70C2EFCD70B2EFAD700000000120091
:10432E000001CAA121D02E0E01014D6F010E4E6F5C
:10433E00450E4F6F460E506F000E516FC8C052F1B2
:10434E00C9C053F1C6C054F1C7C055F128C156F1CA
:10435E0029C157F17CDC010E4D6F010E4E6F2E0EF2
:10436E004F6F010E506FA3DCCAA52FD0CB0E0101EB
:10437E00466F000E476FF30E486F000E496F030E27
:10438E004A6F000E4B6F78DE00C04FF101C050F146
:10439E00020E4D6F030E4E6F8ADCCB0E0101466F7F
:1043AE00000E476FF70E486F000E496F030E4A6FEF
:1043BE00000E4B6F61DE00C04FF101C050F1020ED6
:0C43CE004D6F090E4E6F73DCCA95120093
:0C43DA003EC100F03FC101F0DDDC12002C
:1043E600010E0F01386F396B3B6B3A6B0001CA91B6
:1043F600CA95799E789E8F0E946E010E926EB8DCE9
:10440600B886B06A100EAF6EAC848DDECCDDD0DC23
:0E44160032DD7ADE9D8A9E9AF28CF28E1200C2
:104424000001CAA11BD0020E01015C6FF3EC1DF068
:104434002E0E01014D6F010E4E6F81DC030E5C6F79
:10444400F3EC1DF00A0E01015C6FF3EC1DF00D0E90
:0E44540001015C6FF3EC1DF00001CA91120033
:104462000900F5CFE6FF0006FBE10106F9E11200C3
:104472002AEC23F0B7DF85DE99DE58DFD2DFFBD7E7
:02448200FFD762
:1046540010EE1AF0B00E006E010E016E840EF66EAE
:0E466400440EF76E000EF86E31EC22F01200DC
:104484004269656E76656E756520E0206D6F6E20FD
:0D44940070726F6772616D6D652E2E2E00C7
:1044A100436F6E6E656374E9206175205049433135
:0844B100384634354B3232006D
:1044B900496E697469616C69736174696F6E2E2ED6
:0244C9002E00C3
:1044CB004FF92058206574205920736F6E74206447
:1044DB00657320656E746965727320636F6D70729E
:1044EB00697320656E7472652030206574203939CC
:0344FB00392E0057
:1044FE00466F726D61742064657320646F6E6EE931
:10450E00657320E020656E766F7965723A205B5890
:04451E003B595D00A8
:014522000F89
:03452300423A0019
:03452600413A0017
:07452900286E756C6C29007F
:02453000000089
:02453200000087
:104534000000007FCDCC4C7B0AD723786F12037523
:1045440017B75171ACC5276EBD37066B95BF56675B
:1045540077CC2B645F700961FFE65B5D08E53C3C4A
:044564006042221B74
:104568000000007F000020820000488500007A8853
:1045780000401C8C0050438F00247492809618963B
:1045880020BC3E99286B6E9CF90215A0EC782DC1D1
:04459800CAF249E238
:10459C0001000000080000004000000000020000C4
:1045AC00001000000080000000000400000020004B
:1045BC0000000001000000080000004000000000A6
:1045CC00010000000A00000064000000E803000085
:1045DC0010270000A086010040420F008096980032
:0845EC0000E1F50500CA9A3B4D
:1045F4000100000010000000000100000010000095
:104604000000010000001000000000010000001084
:104614003031323334353637383961626364656634
:014624000095
:1046250030313233343536373839414243444546E3
:014635000084
:0F4636002530337520253033752025303475003D
:0F4645002530337520253033752025303475002E
:020000040030CA
:0D000100231F3CFFBF81FF0FC00FE00F4029
:00000001FF
