:10000000CEEF29F00000000000EF00F0000000003B
:0A0010000000000000000000F3D71C
:08001C000AAE029E000E120064
:100024000B840BAE1DEF00F0010E036E026A016A31
:0A003400006A0A360232FF0E1200C5
:0E003E00026A016A006A086A036A000E120074
:10004C000B820BAE30EF00F00368026801680068A9
:08005C000A360232FF0E120009
:100064000CB074EF00F00CA21AEF01F00E6A000E4F
:1000740002648BEF00F0F00E0214D8A456EF00F0E7
:10008400023A01380F0B02260138F00B016E0038DA
:100094000F0B01260038F00B006E08380F0B0026FA
:1000A4000838F00B086E0E84D89002BE6FEF00F093
:1000B40008360036013602360E2A02BE6FEF00F013
:1000C40008360036013602360E2A02BE6FEF00F003
:1000D40008360036013602360E2A0E50036410EF3D
:1000E40001F0035E0BBC08AE15EF01F0D880800E62
:1000F40008640030000E002201220222D8A015EF6D
:1001040001F0023201320032034A1AEF01F015EF16
:1001140001F001C002F000C001F008C000F0086A5C
:10012400000E0E860264C2EF00F0F00E0214D8A492
:10013400AAEF00F0023A01380F0B02260138F00B47
:10014400016E00380F0B01260038F00B006E0E8490
:10015400D89002BE6FEF00F00036013602360E2A48
:1001640002BE6FEF00F00036013602360E2A02BEE0
:100174006FEF00F00036013602360E2A6FEF00F002
:1001840001C002F000C001F0006A000E0E960E8855
:100194000264EFEF00F0F00E0214D8A4DAEF00F0DE
:1001A400023A01380F0B02260138F00B016E0E845F
:1001B400D89002BE6FEF00F0013602360E2A02BE5E
:1001C4006FEF00F0013602360E2A02BE6FEF00F028
:1001D400013602360E2A6FEF00F001C002F0016A08
:1001E400000E0E8602641FEF01F0F00E0214D8A474
:1001F400FEEF00F0023A0E84D89002BE6FEF00F0DA
:1002040002360E2A02BE6FEF00F002360E2A02BE3C
:100214006FEF00F002360E2A6FEF00F0010E0C6E45
:10022400FFDE22EF01F0020E0C6EF6DE22EF01F08B
:10023400040E0C6E09DF22EF01F0080E0C6EFDDED9
:020244001200A6
:0A024600210E0D6E0D2EFED71200E2
:0602500000000000120096
:100256000F0E0C6E470E0D6E0D2EFED70C2EFCD714
:0602660000000000120080
:10026C00086A096A000E07620364BBEF01F00250D2
:10027C0006180A6E075003267E0ED8A04CEF01F02C
:10028C00035ED8B0BFEF01F050EF01F0035ED8A0D1
:10029C00C3EF01F0028E068E02C00EF001C00BF00F
:1002AC0000C00DF000500402F4CF0CF00150050218
:1002BC00F4CF00F0F3CF08F00402F3500C26F45006
:1002CC000822000E00220D500502F3500C26F450AB
:1002DC000822000E002202500402F3500826F450AB
:1002EC00002202500502016A000E0122F350002682
:1002FC00F45001220D500602F3500826F45000224F
:10030C00026A000E012202220B500602F350002654
:10031C00F4500122000E02220E500602F350012668
:10032C00F450022202BEA3EF01F00836003601366B
:10033C0002360306D8B4C3EF01F0B6EF01F0D88053
:10034C00800E08640030000E002201220222D8A088
:10035C00B6EF01F0023201320032034ABFEF01F076
:10036C000AAE029E000EC5EF01F0010E62DEC5EF73
:10037C0001F0020E65DEC5EF01F0040E4DDE120039
:08038C000B6A0B86FF0E120044
:100394000B800BAED6EF01F0026A0AAEFF0E026EBE
:0C03A400016E006E0A360232FF0E1200DD
:1003B000025006180E6E086A096A0B6A0350076439
:1003C000CBEF02F006500A6E068E028E03500B6EC3
:1003D0000750036E000E0B641BEF02F00B50075E1C
:1003E000D8B4BCEF02F0070E07648AEF02F0075E94
:1003F00000C008F001C000F002C001F0026A074E20
:10040000BCEF02F007645FEF02F0075E00C008F087
:1004100001C000F0016A074EBCEF02F007643DEF37
:1004200002F0075E00C008F0006A074EBCEF02F061
:10043000076424EF02F00AC002F005C001F004C016
:1004400000F0086AE5EF03F0030E07642FEF02F0F7
:10045000075E08380F0B086E074EBCEF02F0D8900D
:100460000832074EBCEF02F0D8900832074EBCEFBE
:1004700002F0D8900832BCEF02F0030E07644EEF92
:1004800002F0075E08380F0B086E0038F00B0826E4
:1004900000380F0B006E074EBCEF02F0D890003210
:1004A0000832074EBCEF02F0D89000320832074EF7
:1004B000BCEF02F0D89000320832BCEF02F0030E1D
:1004C000076476EF02F0075E08380F0B086E0038FD
:1004D000F00B082600380F0B006E0138F00B0026D9
:1004E00001380F0B016E074EBCEF02F0D8900132BD
:1004F00000320832074EBCEF02F0D89001320032D1
:100500000832074EBCEF02F0D890013200320832B8
:10051000BCEF02F0030E0764A7EF02F0075E083895
:100520000F0B086E0038F00B082600380F0B006E1A
:100530000138F00B002601380F0B016E0238F00B6A
:10054000012602380F0B026E074EBCEF02F0D89066
:100550000232013200320832074EBCEF02F0D8906E
:100560000232013200320832074EBCEF02F0D8905E
:100570000232013200320832096A000E0EAEB0EFCC
:1005800003F0081E001E011E021E082A002201227E
:100590000222B0EF03F00750D8A4D1EF02F0E5EF4C
:1005A00003F0096A02C00AF0028E068E0750035C4F
:1005B000076ED8B4A3EF03F0070E076471EF03F0E2
:1005C000075E0450096E0550046E0650056E066AFB
:1005D000074EA3EF03F0070E076446EF03F0075E34
:1005E0000450096E0550046E056A074EA3EF03F030
:1005F000070E076424EF03F0075E0450096E046AD7
:10060000074EA3EF03F0070E07640BEF03F00AC0D9
:1006100002F0E5EF03F0030E076416EF03F0075E48
:1006200009380F0B096E074EA3EF03F0D89009327B
:10063000074EA3EF03F0D8900932074EA3EF03F063
:10064000D8900932A3EF03F0030E076435EF03F0EF
:10065000075E09380F0B096E0438F00B09260438C1
:100660000F0B046E074EA3EF03F0D890043209324B
:10067000074EA3EF03F0D89004320932074EA3EFE0
:1006800003F0D89004320932A3EF03F0030E07649D
:100690005DEF03F0075E09380F0B096E0438F00BAD
:1006A000092604380F0B046E0538F00B04260538B4
:1006B0000F0B056E074EA3EF03F0D89005320432FE
:1006C0000932074EA3EF03F0D89005320432093205
:1006D000074EA3EF03F0D890053204320932A3EF9E
:1006E00003F0030E07648EEF03F0075E09380F0B6B
:1006F000096E0438F00B092604380F0B046E053818
:10070000F00B042605380F0B056E0638F00B052696
:1007100006380F0B066E074EA3EF03F0D890063293
:10072000053204320932074EA3EF03F0D8900632A7
:10073000053204320932074EA3EF03F0D890063297
:10074000053204320932086A000E0EAEB0EF03F033
:10075000091E041E051E061E092A04220522062261
:10076000095008260450002205500122065002229A
:100770000EBEC7EF03F0D8A0D6EF03F0023201326D
:1007800000320832033ED6EF03F0E0EF03F0D8B0BA
:10079000DBEF03F0000E081E001E011E021E082AD9
:1007A0000022012202220A7EDBEF03F0010E0C6E12
:1007B00059DCE7EF03F0020E0C6E54DCE7EF03F0B8
:1007C000040E0C6E43DCE7EF03F0000E0C6E12001B
:1007D0000D6A086A0050D8B4000C04180A6E0ABEEC
:1007E0000D1E0B6A04AE02D0041E042A00AE02D015
:1007F000001E002A005004100A6E0ABE1FD00450CA
:10080000085E003600340836045008260036060E0E
:100810000C6E00340836045000B0085E00A00826B4
:1008200000360C2EF6D700A008260BB015D00DAE62
:10083000000C001E002A081E082A000C04AE09D075
:1008400000BE04D00050086E006AF1D7006A002A8A
:10085000000C001E0B2AD3D7082A0450085CD8A429
:0E086000E6D7086A002A00AEE2D7FF0C1200AD
:10086E00086A080E0C6E003408360450085ED8B0C4
:0E087E0002D00826D89000360C2EF5D71200B6
:10088C0001016FBF02D0819601D081866FBD02D06D
:10089C00819401D081846FBB02D0819201D081827E
:1008AC006FB902D0819001D081800001E7B102D0F4
:1008BC00818801D08198818AC5DC819A01016FB74A
:1008CC0002D0819601D081866FB502D0819401D07F
:1008DC0081846FB302D0819201D081826FB102D03A
:1008EC00819001D081800001E7B102D0818801D0D4
:1008FC008198818AA7DC819AE7A102D0A6DC01D07D
:04090C009CDC12005D
:100910000134083609360450085E0550D8A0053C5D
:10092000095E003601360F0E0C6E013408360936AA
:10093000045000A006D0085E0550D8A0053C095E12
:1009400005D008260550D8B0053C092600360136EA
:100950000C2EEBD700B006D0045008260550D8B0B6
:08096000053C0926000012000D
:0E096800ACB202D00000FCD76AC1ADFF120095
:0E0976000001E7916AC16FF186DFE781120090
:100984000A6A0350D8A40A800750D8A40A820A50DD
:10099400D8B425EF05F0030AD8B4DEEF04F00AB0AA
:1009A400D9EF04F006AE23EF05F021EF05F002AE17
:1009B40021EF05F023EF05F00250800B0A6E029E32
:1009C4000650800B069E0A18D8B4EFEF04F00A50C4
:1009D400D8B421EF05F023EF05F00750035CD8B439
:1009E400F9EF04F0D8A015EF05F01BEF05F0065061
:1009F400025CD8B403EF05F0D8A015EF05F01BEFA7
:100A040005F00550015CD8B40DEF05F0D8A015EF42
:100A140005F01BEF05F00450005CD8B425EF05F099
:100A2400D8B01BEF05F00A52D8B423EF05F021EF3C
:100A340005F00A52D8B421EF05F023EF05F0D88071
:0E0A44001200D8901200D880D8841200120040
:100A52000B6A0A6A096A00500402F4CF09F0F3CF64
:100A620008F001500502F4CF0BF0F3CF0AF000506A
:100A72000502F3500926F4500A22E86A0B220150BB
:100A82000402F3500926F4500A22E86A0B2208C035
:100A920000F009C001F00AC002F00BC003F012001E
:100AA200800E01016A19006E800E000A005CD8B047
:100AB20067D16A510008016E01C06AF1800E011807
:100AC200006E800E6E0A005CD8A0BCD0640E046E6C
:100AD2006AC100F07CDE120E0024056E000E00BE1C
:100AE200FF0E066E000E062205C000F006C001F0E1
:100AF200000E06BEFF0E026E036E00360090013637
:100B02000236033600360090013602360336B00E46
:100B12000024F66E540E0120F76E000E0220F86ECD
:100B22000900F5CF6BF10900F5CF6CF10900F5CFA3
:100B32006DF10900F5CF6EF1640E046E6AC100F02A
:100B420046DE08C000F00A0E046E41DE090E0024E3
:100B5200056E000E00BEFF0E066E000E062205C0D8
:100B620000F006C001F0000E06BEFF0E026E036E1C
:100B72000036009001360236033600360090013608
:100B820002360336B00E0024F66E540E0120F76EC4
:100B9200000E0220F86E0900F5CF00F00900F5CF33
:100BA20001F00900F5CF02F00900F5CF03F06BC1A7
:100BB20004F06CC105F06DC106F06EC107F036ECB1
:100BC20001F000C06BF101C06CF102C06DF103C015
:100BD2006EF10A0E046E6AC100F0F9DD08C000F081
:100BE20000C001F0000E00BEFF0E026E036E046E26
:100BF2000136019002360336043601360190023680
:100C020003360436B00E0124F66E540E0220F76E3F
:100C1200000E0320F86E0900F5CF00F00900F5CFB1
:100C220001F00900F5CF02F00900F5CF03F06BC126
:100C320004F06CC105F06DC106F06EC107F036EC30
:100C420001F0FFD1800E0A0A006E800E6A19005C64
:100C52006FE20A0E046E6AC100F0B9DD090E0024CB
:100C6200056E000E00BEFF0E066E000E062205C0C7
:100C720000F006C001F0000E06BEFF0E026E036E0B
:100C820000360090013602360336003600900136F7
:100C920002360336B00E0024F66E540E0120F76EB3
:100CA200000E0220F86E0900F5CF6BF10900F5CFB6
:100CB2006CF10900F5CF6DF10900F5CF6EF10A0E66
:100CC200046E6AC100F083DD08C000F000C001F0CC
:100CD200000E00BEFF0E026E036E046E013601901E
:100CE20002360336043601360190023603360436E4
:100CF200B00E0124F66E540E0220F76E000E032091
:100D0200F86E0900F5CF00F00900F5CF01F00900F7
:100D1200F5CF02F00900F5CF03F06BC104F06CC10E
:100D220005F06DC106F06EC107F036EC01F089D115
:100D32006AC100F0000E6ABFFF0E016E026E036E02
:100D42000036009001360236033600360090013636
:100D520002360336B00E0024F66E540E0120F76EF2
:100D6200000E0220F86E0900F5CF00F00900F5CF61
:100D720001F00900F5CF02F00900F5CF03F061D1CF
:100D8200800E6A19006E800E6E0A005CD8A0BCD07C
:100D9200640E046E6AC100F01ADD120E0024056EA4
:100DA200000E00BEFF0E066E000E062205C000F009
:100DB20006C001F0000E06BEFF0E026E036E003684
:100DC20000900136023603360036009001360236B4
:100DD20003367C0E0024F66E540E0120F76E000ED0
:100DE2000220F86E0900F5CF6BF10900F5CF6CF126
:100DF2000900F5CF6DF10900F5CF6EF1640E046EB6
:100E02006AC100F0E4DC08C000F00A0E046EDFDC08
:100E1200090E0024056E000E00BEFF0E066E000EC7
:100E2200062205C000F006C001F0000E06BEFF0E4D
:100E3200026E036E0036009001360236033600362B
:100E420000900136023603367C0E0024F66E540EF4
:100E52000120F76E000E0220F86E0900F5CF00F0B7
:100E62000900F5CF01F00900F5CF02F00900F5CF36
:100E720003F06BC104F06CC105F06DC106F06EC1E8
:100E820007F036EC01F000C06BF101C06CF102C05A
:100E92006DF103C06EF10A0E046E6AC100F097DCB8
:100EA20008C000F000C001F0000E00BEFF0E026E8E
:100EB200036E046E013601900236033604360136A3
:100EC20001900236033604367C0E0124F66E540E6F
:100ED2000220F76E000E0320F86E0900F5CF00F035
:100EE2000900F5CF01F00900F5CF02F00900F5CFB6
:100EF20003F06BC104F06CC105F06DC106F06EC168
:100F020007F036EC01F09DD0800E0A0A006E800ECA
:100F12006A19005C6FE20A0E046E6AC100F057DCC7
:100F2200090E0024056E000E00BEFF0E066E000EB6
:100F3200062205C000F006C001F0000E06BEFF0E3C
:100F4200026E036E0036009001360236033600361A
:100F520000900136023603367C0E0024F66E540EE3
:100F62000120F76E000E0220F86E0900F5CF6BF13A
:100F72000900F5CF6CF10900F5CF6DF10900F5CF4D
:100F82006EF10A0E046E6AC100F021DC08C000F0A6
:100F920000C001F0000E00BEFF0E026E036E046E72
:100FA20001360190023603360436013601900236CC
:100FB200033604367C0E0124F66E540E0220F76EC0
:100FC200000E0320F86E0900F5CF00F00900F5CFFE
:100FD20001F00900F5CF02F00900F5CF03F06BC173
:100FE20004F06CC105F06DC106F06EC107F036EC7D
:100FF20001F027D06AC100F0000E6ABFFF0E016E39
:10100200026E036E00360090013602360336003659
:1010120000900136023603367C0E0024F66E540E22
:101022000120F76E000E0220F86E0900F5CF00F0E5
:101032000900F5CF01F00900F5CF02F00900F5CF64
:0410420003F01200A5
:1010460001016A51390806E3300E6A5D03E3010EB9
:08105600006E01D0006A1200D7
:10105E000B6A0C6A0A6A086A0350D8B4B7EF08F034
:10106E00028E9E0E035E03BE42EF08F0D8B442EF2E
:10107E0008F0A7EF08F0036C080E035CD8A074EF1D
:10108E0008F0036E083600C008F001C000F002C080
:10109E0001F0026A080E035CD8A074EF08F0036E2C
:1010AE00083600C008F001C000F0016A080E035CAB
:1010BE00D8A074EF08F0036E083600C008F0006A7E
:1010CE00080E035CD8A074EF08F0036E0836086AA9
:1010DE000350D8A4D89080EF08F00350D8B480EF16
:1010EE0008F0D8900232013200320832032E78EF27
:1010FE0008F00BBC08A091EF08F0D8A091EF08F013
:10110E00082AD8B4002AD8B4012AD8B4022A02BEBA
:10111E00BBEF08F00AAEB7EF08F0021E011E001E6C
:10112E00081E082AD8B4002AD8B4012AD8B4022A34
:10113E00B7EF08F0026A016A006A086AB7EF08F0B2
:10114E000B800BAEC1EF08F0026A0AAEC1EF08F0D9
:10115E00026E016E006E086E0A360232C1EF08F0A2
:10116E00000E0C6AC2EF08F0010E0C6ECAEC01F014
:10117E00C2EF08F0FF0E0250036E0150026E0050D7
:08118E00016E0850006E120012
:101196000450000A12E10550000A0FE10650000A49
:1011A6000CE10750000A09E1FF0E006EFF0E016E0A
:1011B6007F0E026EFF0E036EA8D0086A096A0750FA
:1011C600D8B476EF09F00350D8B47BEF09F002509B
:1011D60006180A6E028E068E0E6A02C008F001C05C
:1011E6000CF000C00DF004500D5E0550D8A0053C73
:1011F6000C5E0650D8A0063C085E086A0C6A0D6AAA
:10120600D8A00DEF09F0D890023201320032083230
:10121600010E0E6E0750035ED8A01AEF09F07E0E7F
:101226000E240326D8B080EF09F020EF09F07E0ED9
:101236000E240326D8A085EF09F0180E0B6E0D3686
:101246000C3608360036013602360E360450005E7D
:101256000550D8A0053C015E0650D8A0063C025EAB
:1012660006340E120EA03BEF09F00D8046EF09F092
:10127600045000260550D8B0053C01260650D8B0CB
:10128600062802260D900B2E22EF09F06CEF09F0CE
:10129600D8900036013602360E360450005E0550F0
:1012A600D8A0053C015E0650D8A0063C025E063476
:1012B6000E10010B0D26D8B00C2AD8B4082AD8A4D3
:1012C6006CEF09F008320C320D32032AD8B480EFE5
:1012D60009F00AAE089E0850026E0C50016E0D50C1
:1012E600006E88EF09F0010EC6EC01F088EF09F0F8
:1012F600020E1FEC00F088EF09F0040E26EC00F059
:0C13060088EF09F0080E12EC00F0120055
:101312000B6A0A6A096A086A0E6A033408360450BC
:10132200085E0550D8A0053C095E0650D8A0063CD0
:101332000A5E0750D8A0073C0B5EE86AD8A0010EEF
:101342000E5E0336070E0C6E0334083609360A3673
:101352000B360E36045003A012D0085E0550D8A0FA
:10136200053C095E0650D8A0063C0A5E0750D8A08C
:10137200073C0B5EE86AD8A0010E0E5E11D008266B
:101382000550D8B0053C09260650D8B0063C0A26BE
:101392000750D8B0073C0B26E86AD8B0010E0E26DB
:1013A20003360C2ED1D70234083609360A360B36EC
:1013B2000E36045003A012D0085E0550D8A0053C9A
:1013C200095E0650D8A0063C0A5E0750D8A0073C2A
:1013D2000B5EE86AD8A0010E0E5E11D008260550F9
:1013E200D8B0053C09260650D8B0063C0A2607505C
:1013F200D8B0073C0B26E86AD8B0010E0E2602369A
:10140200070E0C6E0234083609360A360B360E36D3
:10141200045002A012D0085E0550D8A0053C095E17
:101422000650D8A0063C0A5E0750D8A0073C0B5EC7
:10143200E86AD8A0010E0E5E11D008260550D8B079
:10144200053C09260650D8B0063C0A260750D8B0FB
:10145200073C0B26E86AD8B0010E0E2602360C2E87
:10146200D1D70134083609360A360B360E36045007
:1014720002A012D0085E0550D8A0053C095E0650B5
:10148200D8A0063C0A5E0750D8A0073C0B5EE86A6B
:10149200D8A0010E0E5E11D008260550D8B0053C2A
:1014A20009260650D8B0063C0A260750D8B0073C99
:1014B2000B26E86AD8B0010E0E260136070E0C6E16
:1014C2000134083609360A360B360E36045001A0AE
:1014D20012D0085E0550D8A0053C095E0650D8A07F
:1014E200063C0A5E0750D8A0073C0B5EE86AD8A00B
:1014F200010E0E5E11D008260550D8B0053C092613
:101502000650D8B0063C0A260750D8B0073C0B2636
:10151200E86AD8B0010E0E2601360C2ED1D700345F
:10152200083609360A360B360E36045001A012D0A0
:10153200085E0550D8A0053C095E0650D8A0063CBE
:101542000A5E0750D8A0073C0B5EE86AD8A0010EDD
:101552000E5E11D008260550D8B0053C092606506B
:10156200D8B0063C0A260750D8B0073C0B26E86ADA
:10157200D8B0010E0E260036070E0C6E0034083667
:1015820009360A360B360E36045000A012D0085E19
:101592000550D8A0053C095E0650D8A0063C0A5E5C
:1015A2000750D8A0073C0B5EE86AD8A0010E0E5E79
:1015B20011D008260550D8B0053C09260650D8B0EF
:1015C200063C0A260750D8B0073C0B26E86AD8B07A
:1015D200010E0E2600360C2ED1D700B00ED00450CC
:1015E20008260550D8B0053C09260650D8B0063C5E
:0C15F2000A260750D8B0073C0B26120058
:1015FE006E0E01016A5DD8A0CAD0640E046E6AC177
:10160E0000F037EC04F0120E0024056E066A000E90
:10161E00062205C000F006C001F0000E06BEFF0E49
:10162E00026E036E00360090013602360336003627
:10163E000090013602360336B00E0024F66E540EBC
:10164E000120F76E000E0220F86E0900F5CF00F0B3
:10165E000900F5CF01F00900F5CF02F00900F5CF32
:10166E0003F0000E046E000E056E000E066E7E0E6A
:10167E00076E36EC01F000C06BF101C06CF102C0D8
:10168E006DF103C06EF1640E046E6AC100F037ECAA
:10169E0004F008C000F00A0E046E37EC04F0090ED8
:1016AE000024056E066A000E062205C000F006C074
:1016BE0001F0000E06BEFF0E026E036E00360090A5
:1016CE0001360236033600360090013602360336F6
:1016DE00B00E0024F66E540E0120F76E000E02209E
:1016EE00F86E0900F5CF00F00900F5CF01F0090002
:1016FE00F5CF02F00900F5CF03F06BC104F06CC119
:10170E0005F06DC106F06EC107F036EC01F000C0B9
:10171E006BF101C06CF102C06DF103C06EF10A0EE7
:10172E00046E6AC100F037EC04F008C000F000C08F
:10173E0001F0000E026E036E046E01360190023649
:10174E000336043601360190023603360436B00EE7
:10175E000124F66E540E0220F76E000E0320F86E72
:10176E000900F5CF00F00900F5CF01F00900F5CF23
:10177E0002F00900F5CF03F06BC104F06CC105F067
:10178E006DC106F06EC107F036EC01F0B1D06A51B2
:10179E000A08D8B07ED00A0E046E6AC100F037EC8B
:1017AE0004F0090E0024056E066A000E062205C01E
:1017BE0000F006C001F0000E06BEFF0E026E036EB4
:1017CE0000360090013602360336003600900136A0
:1017DE0002360336B00E0024F66E540E0120F76E5C
:1017EE00000E0220F86E0900F5CF00F00900F5CFCB
:1017FE0001F00900F5CF02F00900F5CF03F0000E5D
:10180E00046E000E056E000E066E7E0E076E36EC32
:10181E0001F000C06BF101C06CF102C06DF103C0AC
:10182E006EF10A0E046E6AC100F037EC04F008C0C7
:10183E0000F000C001F0000E026E036E046E013661
:10184E000190023603360436013601900236033615
:10185E000436B00E0124F66E540E0220F76E000E02
:10186E000320F86E0900F5CF00F00900F5CF01F066
:10187E000900F5CF02F00900F5CF03F06BC104F0BB
:10188E006CC105F06DC106F06EC107F036EC01F0CB
:10189E002FD06AC100F0000E016E026E036E00368C
:1018AE0000900136023603360036009001360236BD
:1018BE000336B00E0024F66E540E0120F76E000EA5
:1018CE000220F86E0900F5CF00F00900F5CF01F007
:1018DE000900F5CF02F00900F5CF03F0000E046EFB
:1018EE00000E056E000E066E7E0E076E36EC01F0D3
:0218FE001200D6
:101900000050086E0150006E0250016E0350026ECE
:10191000036A0B6A0C6A9E0E036E0A6A020E0C6E54
:0619200032EC00F01200A1
:08192600067ED8EC01F012006E
:10192E000B6A0C6A086A0350D8B41BEF0DF002C0A4
:10193E000AF0028E9E0E035E03AE0BEF0DF0036CEB
:10194E00080E035CD8A0D8EF0CF0036E083600C06A
:10195E0008F001C000F002C001F0026A080E035C3C
:10196E00D8A0D8EF0CF0036E083600C008F001C006
:10197E0000F0016A080E035CD8A0D8EF0CF0036EDD
:10198E00083600C008F0006A080E035CD8A0D8EF35
:10199E000CF0036E0836086A0350D8A4D890E4EF12
:1019AE000CF00350D8B4E4EF0CF0D89002320132B0
:1019BE0000320832032EDCEF0CF00BBC08A0F5EF62
:1019CE000CF0D8A0F5EF0CF0082AD8B4002AD8B441
:1019DE00012AD8B4022A02BE1FEF0DF00AAE1BEF89
:1019EE000DF0021E011E001E081E082AD8B4002A81
:1019FE00D8B4012AD8B4022A1BEF0DF0026A016A8C
:101A0E00006A086A1BEF0DF00B800BAE26EF0DF08F
:101A1E00026A0AAE26EF0DF0026E016E006E086EBF
:101A2E000A36023226EF0DF00C6A000E27EF0DF08B
:101A3E00010E0C6E000ECAEC01F027EF0DF0FF0E3A
:101A4E000250036E0150026E0050016E0850006E7F
:021A5E00120074
:101A60000450000A08E10550000A05E1FF0E006E6F
:101A70007F0E016E58D00D6A096A086A0150001085
:101A8000D8B4000C015005180A6E0ABE0D1E0B6A70
:101A900005AE05D0041E051E042AD8B4052A01AEE1
:101AA00005D0001E011E002AD8B4012A01500510DD
:101AB0000A6E0ABE10D088EC04F00BB020D00DAE38
:101AC000000C001E011E002AD8B4012A081E091E9F
:101AD000082AD8B4092A000C05AE0DD001BE07D0E3
:101AE0000150096E0050086E016A006AE8D7016A69
:101AF000006A002A000C011E001E0B2ADDD7082AEE
:101B0000D8B4092A0450085CD8A4D9D70550095C78
:101B1000D8A4D5D7096A086A002AD8B4012A01AE28
:081B2000CED70000FF0C1200FB
:101B280003500718D8A4A8EF0DF002500618D8A43F
:101B3800A8EF0DF001500518D8A4A8EF0DF000503B
:0E1B48000418D8B4D8841200D89412001200E9
:101B560010D0800E0101426F1AD0C00E426F17D00E
:101B6600940E426F14D0D40E426F11D0800E426F85
:101B76000ED001014251010AECE04251020AEDE0A9
:101B86004251030AEDE04251040AEDE0EFD7430566
:101B9600006E4251002600C042F100C06FF146ECD3
:101BA60004F0E7910101466B46514425E96E000EAB
:101BB6004521EA6EEE520DE046514425E96E000ECF
:101BC6004521EA6EEECF6AF1BBEC04F00101462B2B
:081BD600EBD70001E7811200CA
:101BDE00020E0C6E490E0D6E0D2EFED70C2EFCD77E
:061BEE00000000001200DF
:0C1BF4000E0E0D6E0D2EFED7000012002C
:0A1C0000000E9EBA010E006E1200E5
:101C0A00AECF01F0ABA202D0AB98AB8801C000F016
:021C1A001200B6
:101C1C000101626B636B566B576B44C100F045C19D
:101C2C0001F046C102F0010E4427000E4523462365
:101C3C0000C0F6FF01C0F7FF02C0F8FF0900F5CFA6
:101C4C0000F000C053F10052D8B41BEF1EF05351FA
:101C5C00250A0BE042C1E1FF43C1E2FF53C1E6FF9D
:101C6C00424B432B624B632BD8D7546B556B566B43
:101C7C00576B23D05687010E4427000E452346236D
:101C8C0059D05681010E4427000E4523462352D0CD
:101C9C005683010E4427000E452346234BD057870D
:101CAC00010E4427000E4523462344D05685010ED1
:101CBC004427000E452346233DD044C1F6FF45C1C1
:101CCC00F7FF46C1F8FF0900F5CF01F001502D0ACE
:101CDC00D1E044C1F6FF45C1F7FF46C1F8FF09004A
:101CEC00F5CF01F00150200ACCE044C1F6FF45C10C
:101CFC00F7FF46C1F8FF0900F5CF01F001502B0AA0
:101D0C00C7E044C1F6FF45C1F7FF46C1F8FF090023
:101D1C00F5CF01F00150230AC2E044C1F6FF45C1E2
:101D2C00F7FF46C1F8FF0900F5CF01F00150300A6A
:101D3C00BDE001D09ED756A301D0569156A701D035
:101D4C00569544C1F6FF45C1F7FF46C1F8FF09009F
:101D5C00F5CF00F0000E016E00C06AF123EC08F024
:101D6C00005236E0546B556B54C100F055C101F074
:101D7C000A0E046E000E056E29EC05F044C1F6FF48
:101D8C0045C1F7FF46C1F8FF0900F5CF02F002503C
:101D9C000024546F000E0120556F300E545F000E5E
:101DAC00555B010E4427000E4523462344C1F6FF24
:101DBC0045C1F7FF46C1F8FF0900F5CF00F0000E52
:101DCC00016E00C06AF123EC08F00052CDE133D073
:101DDC0044C1F6FF45C1F7FF46C1F8FF0900F5CF36
:101DEC0001F001502A0A27E147C1E9FF48C1EAFF87
:101DFC00EECF00F0EECF01F000C0E9FF01C0EAFF2A
:101E0C00EECF54F1EECF55F147C1E9FF48C1EAFFDF
:101E1C00020EEE24006E000EEE20016E47C1E1FFB3
:101E2C0048C1E2FF00C0E6FF01C0E6FF010E4427F7
:101E3C00000E4523462344C1F6FF45C1F7FF46C1BA
:101E4C00F8FF0900F5CF01F001502E0A70E1010EE8
:101E5C004427000E4523462344C1F6FF45C1F7FF36
:101E6C0046C1F8FF0900F5CF01F001502A0A28E11C
:101E7C0047C1E9FF48C1EAFFEECF00F0EECF01F019
:101E8C0000C0E9FF01C0EAFFEECF51F1EECF52F1F5
:101E9C0047C1E9FF48C1EAFF020EEE24006E000EB6
:101EAC00EE20016E47C1E1FF48C1E2FF00C0E6FF32
:101EBC0001C0E6FF010E4427000E4523462336D011
:101ECC00516B526B44C1F6FF45C1F7FF46C1F8FF99
:101EDC000900F5CF00F0000E016E00C06AF123EC92
:101EEC0008F0005223E051C100F052C101F00A0E7B
:101EFC00046E000E056E29EC05F044C1F6FF45C1D9
:101F0C00F7FF46C1F8FF0900F5CF02F0025000249C
:101F1C00516F000E0120526F300E515F000E525B5C
:101F2C00010E4427000E45234623CCD703D0516B1A
:101F3C00526B578944C100F045C101F046C102F013
:101F4C00010E4427000E4523462300C0F6FF01C0B6
:101F5C00F7FF02C0F8FF0900F5CF53F1F9D062C1C9
:101F6C0000F063C101F01FEF1EF05689E3D75785CF
:101F7C002ED1568B57812BD1578329D1568D27D1F2
:101F8C0026D1568B568F23D147C1E9FF48C1EAFFB2
:101F9C00EECF00F0EECF01F000C0E9FF01C0EAFF88
:101FAC00EECF5EF1EECF5FF147C1E9FF48C1EAFF2A
:101FBC00020EEE24006E000EEE20016E47C1E1FF12
:101FCC0048C1E2FF00C0E6FF01C0E6FF000E5F194A
:101FDC0002E1000E5E1904E1D40E5E6F000E5F6F1D
:101FEC00606B616B60515E25E96E61515F21EA6E39
:101FFC00EE520BE0010E6025006E000E6121016EA9
:10200C0000C060F101C061F1EDD7515152110AE0ED
:10201C006151525D02E16051515D04E251C160F1C8
:10202C0052C161F15551615D02E15451605D05E2AF
:10203C006051545F6151555B02D0546B556B56B770
:10204C0016D054C100F055C101F0010E545F000EC2
:10205C00555B005001100BE042C1E1FF43C1E2FFB0
:10206C00200EE66E424B432B624B632BEAD760C1CA
:10207C0002F061C103F0010E605D006E000E61594B
:10208C00016E00C060F101C061F10250031019E053
:10209C005EC1E9FF5FC1EAFF42C1E1FF43C1E2FF5C
:1020AC00EECFE6FF424B432B010E5E25006E000E79
:1020BC005F21016E00C05EF101C05FF1624B632BCA
:1020CC00D6D756A716D054C100F055C101F0010E59
:1020DC00545F000E555B005001100BE042C1E1FF54
:1020EC0043C1E2FF200EE66E424B432B624B632B47
:1020FC00EAD793D547C1E9FF48C1EAFFEECF00F01C
:10210C00EECF01F000C0E9FF01C0EAFFEECF53F1C2
:10211C0047C1E9FF48C1EAFF020EEE24006E000E33
:10212C00EE20016E47C1E1FF48C1E2FF00C0E6FFAF
:10213C0001C0E6FF530E5E6F010E5F6F010E606F04
:10214C00000E616F62D7C00E5613000E57133FD0AE
:10215C005351000AD8B403D753516C0AD8B405D7DD
:10216C0053514C0AD8B401D75351660AD8B4FFD690
:10217C005351450AD8B4FDD65351650AD8B4FAD692
:10218C005351670AD8B4F8D653516F0AD8B4F6D65F
:10219C005351640AD8B4F4D65351690AD8B4F0D662
:1021AC005351700AD8B4EDD65351580AD8B4E9D665
:1021BC005351780AD8B4E6D65351730AD8B4E4D63E
:1021CC005351630A97E05351750ABDE0B3D7000E23
:1021DC005615006E5751070B016E00500110D8B404
:1021EC00C2EF19F057A904D0060E516F000E526FB2
:1021FC0047C1E9FF48C1EAFFEECF00F0EECF01F096
:10220C0000C0E9FF01C0EAFFEECF58F1EECF59F163
:10221C00EECF5AF1EECF5BF147C1E9FF48C1EAFFBF
:10222C00040EEE24006E000EEE20016E47C1E1FF9D
:10223C0048C1E2FF00C0E6FF01C0E6FF046A056A80
:10224C00066A076A58C100F059C101F05AC102F080
:10225C005BC103F0C2EC04F0010ED8B0000E006EAE
:10226C00005205E05A7F030E5613000E57135C6B99
:10227C005D6B58C100F059C101F05AC102F05BC14D
:10228C0003F0046A056A066A076A48DC000ED8A4E3
:10229C00010E006E0052D8B48AD05BC100F0016A06
:1022AC00026A036AFF0E0016000E01167E0E005E17
:1022BC00000E015A00C05CF101C05DF1010E005E20
:1022CC00000E015A00C05CF101C05DF1030E046EFA
:1022DC00000E056E29EC05F000C05CF101C05DF14B
:1022EC000A0E046E000E056E30EC0DF000C05CF1B1
:1022FC0001C05DF1800E0118026E800E025C02E1DD
:10230C00000E005C05E2010E01015C5F000E5D5BDE
:10231C0001015C5100086A6F51EC05F058C104F0E2
:10232C0059C105F05AC106F05BC107F036EC01F05B
:10233C0000C05EF101C05FF102C060F103C061F149
:10234C00000E046E000E056E000E066E7F0E076EFC
:10235C005EC100F05FC101F060C102F061C103F029
:10236C00C2EC04F0010ED8B0000E006E005205E075
:10237C00010E5C5F000E5D5B1AD0000E046E000E49
:10238C00056E200E066E820E076E5EC100F05FC1F8
:10239C0001F060C102F061C103F0C2EC04F0000E68
:1023AC00D8B0010E006E005202E05C4B5D2B800E2B
:1023BC00006E800E5D19005C02E15C51000803E3C5
:1023CC00010E536F02D05CC153F157B118D057A313
:1023DC0015D0800E5D19006E7F0E005C02E1FC0EC4
:1023EC005C5D0BE3800E5D19006E800E5219005C73
:1023FC0002E151515C5D01E201D001D0EFD35151AA
:10240C00521106E057A304D0010E515F000E525B2F
:10241C005251000802E15151080803E2080E536FB3
:10242C0002D051C153F158C100F059C101F05AC149
:10243C0002F05BC103F0046A056A066A076A94EC51
:10244C000DF0000ED8A4010E006E0052D8B44BD182
:10245C005CC16AF151EC05F000C004F001C005F05C
:10246C0002C006F003C007F058C100F059C101F0DA
:10247C005AC102F05BC103F0CBEC08F000C058F17C
:10248C0001C059F102C05AF103C05BF10101535173
:10249C0000086A6F51EC05F000C004F001C005F0B3
:1024AC0002C006F003C007F058C100F059C101F09A
:1024BC005AC102F05BC103F0CBEC08F000C064F130
:1024CC0001C065F102C066F103C067F164C158F147
:1024DC0065C159F166C15AF167C15BF164C100F085
:1024EC0065C101F066C102F067C103F02FEC08F082
:1024FC0080EC0CF000C004F001C005F002C006F046
:10250C0003C007F064C100F065C101F066C102F0C0
:10251C0067C103F093EC0CF0000E046E000E056E18
:10252C00000E066E7E0E076EC2EC04F0000ED8B0E4
:10253C00010E006E00521AE058C100F059C101F0B2
:10254C005AC102F05BC103F0000E046E000E056E62
:10255C00000E066E7E0E076ED8EC01F000C058F12E
:10256C0001C059F102C05AF103C05BF158C100F02F
:10257C0059C101F05AC102F05BC103F02FEC08F015
:10258C0001015351010F096E0A6A000E0A2209C09B
:10259C0004F00AC005F0000E0ABEFF0E066E076EB0
:1025AC000436049005360636073604360490053694
:1025BC00063607366C0E0424F66E550E0520F76EA3
:1025CC00000E0620F86E0900F5CF05F00900F5CFD6
:1025DC0006F00900F5CF07F00900F5CF08F0085018
:1025EC00035C08E10750025C05E10650015C02E166
:1025FC000550005C1EE3010158C100F059C101F007
:10260C005AC102F05BC103F0CD0E046ECC0E056E08
:10261C004C0E066E7B0E076E36EC01F000C058F1C6
:10262C0001C059F102C05AF103C05BF15C4B5D2B48
:10263C005AD058C100F059C101F05AC102F05BC127
:10264C0003F02FEC08F053C104F0000E056E066E7B
:10265C00076E0436049005360636073604360490A9
:10266C000536063607366C0E0424F66E550E05201C
:10267C00F76E000E0620F86E0900F5CF05F0090084
:10268C00F5CF06F00900F5CF07F00900F5CF08F0FB
:10269C000850035C08E10750025C05E10650015C40
:1026AC0002E10550005C1FE2010158C100F059C164
:1026BC0001F05AC102F05BC103F0000E046E000E73
:1026CC00056E200E066E820E076E36EC01F000C011
:1026DC0058F101C059F102C05AF103C05BF1010E6F
:1026EC005C5F000E5D5B010157A393D057B791D08F
:1026FC00800E000A006E800E5219005C02E15151EE
:10270C000A0804E20A0E516F000E526F58C100F015
:10271C0059C101F05AC102F05BC103F02FEC08F073
:10272C0000C05EF101C05FF102C060F103C061F155
:10273C005E515F116011611142E00A0E046E000ED1
:10274C00056E066E076E5EC100F05FC101F060C1E0
:10275C0002F061C103F089EC09F008C000F009C077
:10276C0001F00AC002F00BC003F0000E046E031857
:10277C0008E10450021805E10450011802E1005070
:10278C00000A1DE1010E515F000E525B0A0E046E31
:10279C00000E056E066E076E5EC100F05FC101F0A3
:1027AC0060C102F061C103F089EC09F000C05EF178
:1027BC0001C05FF102C060F103C061F1B9D7800EB6
:1027CC005219006E800E005C02E15351515D21E202
:1027DC005151535D6A6F51EC05F000C004F001C01B
:1027EC0005F002C006F003C007F058C100F059C153
:1027FC0001F05AC102F05BC103F0CBEC08F000C051
:10280C0058F101C059F102C05AF103C05BF151C13A
:10281C0053F1050E01015125006E000E5221016E7F
:10282C000050545F0150555B5151521103E157B7A1
:10283C0001D004D0010E545F000E555B030E5615EB
:10284C00006E57C101F0000E01160050011004E09B
:10285C00010E545F000E555B56A539D056A312D00D
:10286C0056A103D02D0E496F02D02B0E496F42C1D9
:10287C00E1FF43C1E2FF49C1E6FF424B432B624BF0
:10288C00632B0CD056A10AD042C1E1FF43C1E2FF39
:10289C00200EE66E424B432B624B632B800E006E78
:1028AC00800E5519005C02E1545100080FE242C140
:1028BC00E1FF43C1E2FF300EE66E424B432B624B0D
:1028CC00632B010E545F000E555BE8D73AD056B718
:1028DC0018D0800E006E800E5519005C02E1545128
:1028EC0000080FE242C1E1FF43C1E2FF200EE66E99
:1028FC00424B432B624B632B010E545F000E555B16
:10290C00E8D756A312D056A103D02D0E4A6F02D091
:10291C002B0E4A6F42C1E1FF43C1E2FF4AC1E6FF01
:10292C00424B432B624B632B0CD056A10AD042C1B5
:10293C00E1FF43C1E2FF200EE66E424B432B624B9C
:10294C00632B58C100F059C101F05AC102F05BC1B0
:10295C0003F02FEC08F000C05EF101C05FF102C083
:10296C0060F103C061F153C100F0000E016E026E04
:10297C00036E0036009001360236033600360090A6
:10298C000136023603366C0E0024F66E550E01200D
:10299C00F76E000E0220F86E0900F5CF04F0090066
:1029AC00F5CF05F00900F5CF06F00900F5CF07F0DB
:1029BC005EC100F05FC101F060C102F061C103F0C3
:1029CC0089EC09F0300E002642C1E1FF43C1E2FF61
:1029DC0000C0E6FF424B432B624B632B515152110B
:1029EC0003E157B701D06FD042C1E1FF43C1E2FF11
:1029FC002E0EE66E424B432B624B632B5351515FB1
:102A0C00000E525B53534DE0530753C100F0000EC0
:102A1C00016E026E036E00360090013602360336EC
:102A2C00003600900136023603366C0E0024F66E2A
:102A3C00550E0120F76E000E0220F86E0900F5CF3E
:102A4C0004F00900F5CF05F00900F5CF06F00900F8
:102A5C00F5CF07F05EC100F05FC101F060C102F07C
:102A6C0061C103F089EC09F00A0E046E000E056ECC
:102A7C00066E076E89EC09F008C000F009C001F081
:102A8C000AC002F00BC003F0300E002642C1E1FF79
:102A9C0043C1E2FF00C0E6FF424B432B624B632B6A
:102AAC00B1D7515152110FE042C1E1FF43C1E2FFD6
:102ABC00300EE66E424B432B624B632B010E515F83
:102ACC00000E525BEED756AB0BD042C1E1FF43C1B7
:102ADC00E2FF450EE66E424B432B624B632B0AD052
:102AEC0042C1E1FF43C1E2FF650EE66E424B432B50
:102AFC00624B632B800E5D19006E800E005C02E150
:102B0C00000E5C5D11E25C5100085C6F5D51000EC3
:102B1C005D5742C1E1FF43C1E2FF2D0EE66E424B11
:102B2C00432B624B632B0AD042C1E1FF43C1E2FF4E
:102B3C002B0EE66E424B432B624B632B0A0E046E3C
:102B4C00000E056E5CC100F05DC101F030EC0DF0C3
:102B5C00300E002642C1E1FF43C1E2FF00C0E6FF98
:102B6C000101424B432B624B632B0A0E046E000E89
:102B7C00056E5CC100F05DC101F030EC0DF008C0D9
:102B8C0000F009C001F0300E002642C1E1FF43C144
:102B9C00E2FF00C0E6FF0101424B432B624B632B6B
:102BAC0056A71AD0800E006E800E5519005C02E1FB
:102BBC005451000811E242C1E1FF43C1E2FF200E73
:102BCC00E66E424B432B624B632B010E545F000E9F
:102BDC00555B54515511EFE113EF0EF057A3F3D0A1
:102BEC00800E5D19006E800E005C02E1000E5C5DD3
:102BFC000AE2010E5C5D006E000E5D59016E005024
:102C0C00515F0150525B58C100F059C101F05AC1DB
:102C1C0002F05BC103F02FEC08F000C05EF101C0C4
:102C2C005FF102C060F103C061F1010E536F5351AB
:102C3C000A0A34E053C100F0000E016E026E036EFE
:102C4C00003600900136023603360036009001360D
:102C5C00023603366C0E0024F66E550E0120F76E0C
:102C6C00000E0220F86E0900F5CF01F00900F5CF37
:102C7C0002F00900F5CF03F00900F5CF04F0045081
:102C8C00615D08E10350605D05E102505F5D02E1AA
:102C9C0001505E5D01E202D0532BC9D75351515DF7
:102CAC00686F000E5259696F68C151F169C152F1D8
:102CBC005EC100F05FC101F060C102F061C103F0C0
:102CCC0080EC0CF000C004F001C005F002C006F06E
:102CDC0003C007F058C100F059C101F05AC102F00D
:102CEC005BC103F093EC0CF000C064F101C065F122
:102CFC0002C066F103C067F168C16AF151EC05F0DE
:102D0C0064C104F065C105F066C106F067C107F047
:102D1C0036EC01F0000E046E000E056E000E066E11
:102D2C007E0E076ED8EC01F02FEC08F000C05EF1BF
:102D3C0001C05FF102C060F103C061F15151521149
:102D4C0042E00A0E046E000E056E066E076E5EC142
:102D5C0000F05FC101F060C102F061C103F089ECC9
:102D6C0009F008C000F009C001F00AC002F00BC065
:102D7C0003F0000E046E031808E10450021805E17C
:102D8C000450011802E10050000A1DE10A0E046E05
:102D9C00000E056E066E076E5EC100F05FC101F09D
:102DAC0060C102F061C103F089EC09F000C05EF172
:102DBC0001C05FF102C060F103C061F1010E515F0F
:102DCC00000E525BBBD7800E006E800E5219005C59
:102DDC0002E151510C0816E351C16AF1FFEC0AF003
:102DEC0058C104F059C105F05AC106F05BC107F097
:102DFC00D8EC01F000C058F101C059F102C05AF1F1
:102E0C0003C05BF158C100F059C101F05AC102F086
:102E1C005BC103F0046A056A066A076A94EC0DF05C
:102E2C00000ED8A4010E006E0052D8B477D058C151
:102E3C0000F059C101F05AC102F05BC103F02FEC54
:102E4C0008F0000E046E031808E10450021805E1A6
:102E5C000450011802E10050000A60E1800E006E7F
:102E6C00800E5D19005C02E15C51010857E25CC107
:102E7C006AF151EC05F000C004F001C005F002C08D
:102E8C0006F003C007F058C100F059C101F05AC157
:102E9C0002F05BC103F0CBEC08F05F0E046E700E19
:102EAC00056E090E066E810E076EC2EC04F0010E63
:102EBC00D8B0000E006E005206E0090E01015C5FF6
:102ECC00000E5D5B05D00101080E5C5F000E5D5BC2
:102EDC005CC16AF151EC05F000C004F001C005F0D2
:102EEC0002C006F003C007F058C100F059C101F050
:102EFC005AC102F05BC103F0CBEC08F02FEC08F0E8
:102F0C0000C05EF101C05FF102C060F103C061F16D
:102F1C000101586B596B5A6B5B6B38D058C100F080
:102F2C0059C101F05AC102F05BC103F02FEC08F05B
:102F3C0000C05EF101C05FF102C060F103C061F13D
:102F4C005EC100F05FC101F060C102F061C103F02D
:102F5C0080EC0CF000C004F001C005F002C006F0DB
:102F6C0003C007F058C100F059C101F05AC102F07A
:102F7C005BC103F093EC0CF000C058F101C059F1A7
:102F8C0002C05AF103C05BF15C6B5D6B010E536FB9
:102F9C0053510A0A34E053C100F0000E016E026E68
:102FAC00036E003600900136023603360036009070
:102FBC000136023603366C0E0024F66E550E0120D7
:102FCC00F76E000E0220F86E0900F5CF01F0090033
:102FDC00F5CF02F00900F5CF03F00900F5CF04F0AE
:102FEC000450615D08E10350605D05E102505F5DD6
:102FFC0002E101505E5D01E202D0532BC9D753515F
:10300C005125006E000E5221016E5C5100265D515F
:10301C0001220050545F0150555B57B704D05151F9
:10302C00521101E104D0010E545F000E555B030EEA
:10303C005615006E57C101F0000E0116005001101C
:10304C0004E0010E545F000E555B56A539D056A313
:10305C0012D056A103D02D0E4B6F02D02B0E4B6FFE
:10306C0042C1E1FF43C1E2FF4BC1E6FF424B432BA0
:10307C00624B632B0CD056A10AD042C1E1FF43C175
:10308C00E2FF200EE66E424B432B624B632B800E0D
:10309C00006E800E5519005C02E1545100080FE2DD
:1030AC0042C1E1FF43C1E2FF300EE66E424B432BBF
:1030BC00624B632B010E545F000E555BE8D73AD080
:1030CC0056B718D0800E006E800E5519005C02E1C8
:1030DC00545100080FE242C1E1FF43C1E2FF200E50
:1030EC00E66E424B432B624B632B010E545F000E7A
:1030FC00555BE8D756A312D056A103D02D0E4C6FBA
:10310C0002D02B0E4C6F42C1E1FF43C1E2FF4CC118
:10311C00E6FF424B432B624B632B0CD056A10AD0DB
:10312C0042C1E1FF43C1E2FF200EE66E424B432B4E
:10313C00624B632B53C100F0530700524CE053C158
:10314C0000F0000E016E026E036E00360090013628
:10315C0002360336003600900136023603366C0E0A
:10316C000024F66E550E0120F76E000E0220F86E4C
:10317C000900F5CF04F00900F5CF05F00900F5CFF3
:10318C0006F00900F5CF07F05EC100F05FC101F059
:10319C0060C102F061C103F089EC09F00A0E046E03
:1031AC00000E056E066E076E89EC09F008C000F083
:1031BC0009C001F00AC002F00BC003F0300E00266B
:1031CC0042C1E1FF43C1E2FF00C0E6FF424B432B8B
:1031DC00624B632BAFD7800E006E800E5D19005CC6
:1031EC0002E15C5100080FE242C1E1FF43C1E2FF82
:1031FC00300EE66E424B432B624B632B010E5C5F31
:10320C00000E5D5BE8D7800E000A006E800E52192E
:10321C00005C02E15151080803E2080E536F02D022
:10322C0051C153F15351515F000E525B535303E1A3
:10323C0057B701D00AD042C1E1FF43C1E2FF2E0EC5
:10324C00E66E424B432B624B632B53C16AF151EC3C
:10325C0005F058C104F059C105F05AC106F05BC124
:10326C0007F036EC01F097EC0CF000C05EF101C0F9
:10327C005FF102C060F103C061F153534DE053079D
:10328C0053C100F0000E016E026E036E003600900A
:10329C00013602360336003600900136023603360C
:1032AC006C0E0024F66E550E0120F76E000E0220F7
:1032BC00F86E0900F5CF04F00900F5CF05F0090010
:1032CC00F5CF06F00900F5CF07F05EC100F05FC145
:1032DC0001F060C102F061C103F089EC09F00A0E43
:1032EC00046E000E056E066E076E89EC09F008C0C0
:1032FC0000F009C001F00AC002F00BC003F0300E60
:10330C00002642C1E1FF43C1E2FF00C0E6FF424B91
:10331C00432B624B632BB1D7515152110FE042C179
:10332C00E1FF43C1E2FF300EE66E424B432B624B92
:10333C00632B010E515F000E525BEED756A71AD0CD
:10334C00800E006E800E5519005C02E1545100088D
:10335C0011E242C1E1FF43C1E2FF200EE66E424B97
:10336C00432B624B632B010E545F000E555B545183
:10337C005511EFE113EF0EF0C00E5615016E57C14B
:10338C0002F0000E0216000E021802E1000E0118E7
:10339C00D8A480D056A927D047C1E9FF48C1EAFF7D
:1033AC00EECF00F0EECF01F000C0E9FF01C0EAFF64
:1033BC00EECF5EF1EECF5FF1EECF60F1EECF61F1CB
:1033CC0047C1E9FF48C1EAFF040EEE24006E000E6F
:1033DC00EE20016E47C1E1FF48C1E2FF00C0E6FFED
:1033EC0001C0E6FF2FD047C1E9FF48C1EAFFEECF8D
:1033FC0000F0EECF01F000C0E9FF01C0EAFFEECF14
:10340C0000F0EECF01F0000E01BEFF0E026E036E57
:10341C0000C05EF101C05FF102C060F103C061F158
:10342C0047C1E9FF48C1EAFF020EEE24006E000E10
:10343C00EE20016E47C1E1FF48C1E2FF00C0E6FF8C
:10344C0001C0E6FF800E6119006E800E005C08E181
:10345C00000E605D05E1000E5F5D02E1000E5E5D39
:10346C0018E2030E5613000E5713006A016A026A23
:10347C00036A5E51005E5F51015A6051025A6151FC
:10348C00035A00C05EF101C05FF102C060F103C0DD
:10349C0061F14ED056A927D047C1E9FF48C1EAFFD8
:1034AC00EECF00F0EECF01F000C0E9FF01C0EAFF63
:1034BC00EECF5EF1EECF5FF1EECF60F1EECF61F1CA
:1034CC0047C1E9FF48C1EAFF040EEE24006E000E6E
:1034DC00EE20016E47C1E1FF48C1E2FF00C0E6FFEC
:1034EC0001C0E6FF25D047C1E9FF48C1EAFFEECF96
:1034FC0000F0EECF01F000C0E9FF01C0EAFFEECF13
:10350C005EF1EECF5FF1000E606F616F47C1E9FFB6
:10351C0048C1EAFF020EEE24006E000EEE20016E92
:10352C0047C1E1FF48C1E2FF00C0E6FF01C0E6FF72
:10353C00000E521902E1000E51190FE1000E006E3F
:10354C00611908E10050601905E100505F1902E1B2
:10355C005E51000A02E1514B522BC00E5615006E03
:10356C0000C005F0AED0010E536F53510A0A34E07F
:10357C0053C100F0000E016E026E036E0036009017
:10358C000136023603360036009001360236033619
:10359C006C0E0024F66E550E0120F76E000E022004
:1035AC00F86E0900F5CF01F00900F5CF02F0090023
:1035BC00F5CF03F00900F5CF04F00450615D08E18C
:1035CC000350605D05E102505F5D02E101505E5DFC
:1035DC0001E202D0532BC9D782D0010E536F535145
:1035EC00080A34E053C100F0000E016E026E036E47
:1035FC000036009001360236033600360090013654
:10360C0002360336B40E0024F66E550E0120F76E0A
:10361C00000E0220F86E0900F5CF01F00900F5CF7D
:10362C0002F00900F5CF03F00900F5CF04F00450C7
:10363C00615D08E10350605D05E102505F5D02E1F0
:10364C0001505E5D01E202D0532BC9D748D0010E68
:10365C00536F53510C0A34E053C100F0000E016E4D
:10366C00026E036E003600900136023603360036C9
:10367C000090013602360336E40E0024F66E540E2A
:10368C000120F76E000E0220F86E0900F5CF01F054
:10369C000900F5CF02F00900F5CF03F00900F5CFD2
:1036AC0004F00450615D08E10350605D05E10250D7
:1036BC005F5D02E101505E5D01E202D0532BC9D780
:1036CC000ED00550000AD8B44ED70550C00AD8B455
:1036DC004AD70550800A81E00550400AB8E0800EB8
:1036EC00006E800E5219005C02E15151535D03E2F1
:1036FC0051C153F10DD0800E5219006E800E005C3A
:10370C0002E15351515D04E253C151F1000E526F6D
:10371C00545155110EE0030E5615006E57C101F0B1
:10372C00000E01160050011004E0010E545F000E53
:10373C00555B800E5219006E800E5519005C02E12B
:10374C005451515D05E25151545F5251555B02D0B9
:10375C00546B556BC40E5615016E5751080B026E07
:10376C000250080A02E1400E011808E154515511AB
:10377C0004E0010E545F000E555B1CD0C00E5615B4
:10378C00016E5751080B026E0250080A02E1800EBE
:10379C00011810E1800E006E800E5519005C02E1DC
:1037AC005451020805E2020E545F000E555B02D024
:1037BC00546B556B56A55DD056A312D056A103D0B1
:1037CC002D0E4D6F02D02B0E4D6F42C1E1FF43C148
:1037DC00E2FF4DC1E6FF424B432B624B632B34D0CF
:1037EC0056A10BD042C1E1FF43C1E2FF200EE66EB1
:1037FC00424B432B624B632B27D0C00E5615016EE8
:10380C005751080B026E0250080A02E1800E011893
:10381C001BE142C1E1FF43C1E2FF300EE66E424BB9
:10382C00432B624B632B56AB03D0580E4E6F02D01A
:10383C00780E4E6F42C1E1FF43C1E2FF4EC1E6FF7D
:10384C00424B432B624B632B5451551111E042C137
:10385C00E1FF43C1E2FF300EE66E424B432B624B5D
:10386C00632B010E545F000E555B54515511EFE163
:10387C0074D05451551113E056B711D042C1E1FF29
:10388C0043C1E2FF200EE66E424B432B624B632B8F
:10389C00010E545F000E555B54515511EFE156A3C8
:1038AC0012D056A103D02D0E4F6F02D02B0E4F6F9E
:1038BC0042C1E1FF43C1E2FF4FC1E6FF424B432B44
:1038CC00624B632B0CD056A10AD042C1E1FF43C11D
:1038DC00E2FF200EE66E424B432B624B632BC00E75
:1038EC005615016E5751080B026E0250080A02E180
:1038FC00400E01180BE142C1E1FF43C1E2FF300E63
:10390C00E66E424B432B624B632B27D0C00E5615F1
:10391C00016E5751080B026E0250080A02E1800E2C
:10392C0001181BE142C1E1FF43C1E2FF300EE66E1C
:10393C00424B432B624B632B56AB03D0580E506F4C
:10394C0002D0780E506F42C1E1FF43C1E2FF50C17B
:10395C00E6FF424B432B624B632B800E006E800EB6
:10396C005219005C02E15151535D0BE242C1E1FF7F
:10397C0043C1E2FF300EE66E424B432B624B632B8E
:10398C00ECD751C100F052C101F0010E515F000E95
:10399C00525B00500110D8B42AD1C00E5615006EDF
:1039AC0000C064F10AD151C100F052C101F0000E07
:1039BC0052BFFF0E026E036E0036009001360236C7
:1039CC000336003600900136023603366C0E0024A6
:1039DC00F66E550E0120F76E000E0220F86E0900EF
:1039EC00F5CF04F00900F5CF05F00900F5CF06F08E
:1039FC000900F5CF07F05EC100F05FC101F060C1B6
:103A0C0002F061C103F089EC09F00A0E046E000E9D
:103A1C00056E066E076E89EC09F008C000F009C04F
:103A2C0001F00AC002F00BC003F0300E0024536FFB
:103A3C00D3D056AB45D051C100F052C101F0000EAD
:103A4C0052BFFF0E026E036E003600900136023636
:103A5C00033600360090013602360336B40E0024CD
:103A6C00F66E550E0120F76E000E0220F86E09005E
:103A7C00F5CF04F00900F5CF05F00900F5CF06F0FD
:103A8C000900F5CF07F05EC100F05FC101F060C125
:103A9C0002F061C103F089EC09F00F0E0016000E64
:103AAC00011602160316F60E0024F66E550E0120B2
:103ABC00F76E000E0220F86E0900F5CF53F144D0DA
:103ACC0051C100F052C101F0000E52BFFF0E026E48
:103ADC00036E003600900136023603360036009035
:103AEC00013602360336B40E0024F66E550E012054
:103AFC00F76E000E0220F86E0900F5CF04F00900F5
:103B0C00F5CF05F00900F5CF06F00900F5CF07F069
:103B1C005EC100F05FC101F060C102F061C103F051
:103B2C0089EC09F00F0E0016000E01160216031692
:103B3C00070E0024F66E560E0120F76E000E0220C2
:103B4C00F86E0900F5CF53F147D051C100F052C1C6
:103B5C0001F0000E52BFFF0E026E036E0036009095
:103B6C000136023603360036009001360236033633
:103B7C00E40E0024F66E540E0120F76E000E0220A7
:103B8C00F86E0900F5CF04F00900F5CF05F0090037
:103B9C00F5CF06F00900F5CF07F05EC100F05FC16C
:103BAC0001F060C102F061C103F089EC09F0070E6D
:103BBC000014536F300E53270FD06451000AD8B441
:103BCC00F2D66451C00AD8B4EED66451800AD8B487
:103BDC0030D76451400AB9E042C1E1FF43C1E2FF72
:103BEC0053C1E6FF424B432B624B632BCAD656A7FD
:103BFC001AD0800E006E800E5519005C02E15451F3
:103C0C00000811E242C1E1FF43C1E2FF200EE66E63
:103C1C00424B432B624B632B010E545F000E555BE2
:103C2C0054515511EFE113EF0EF062C100F063C176
:043C3C0001F0120081
:103C40000101586B596B526B536B44C100F045C175
:103C500001F046C102F0010E4427000E4523462321
:103C600000C0F6FF01C0F7FF02C0F8FF0900F5CF62
:103C700000F000C04FF10052D8B457EF25F04F517B
:103C8000250A0BE042C1E1FF43C1E2FF4FC1E6FF5D
:103C9000424B432B584B592BD8D7506B516B526B1F
:103CA000536B23D05287010E4427000E4523462331
:103CB00059D05281010E4427000E4523462352D08D
:103CC0005283010E4427000E452346234BD05387D1
:103CD000010E4427000E4523462344D05285010E91
:103CE0004427000E452346233DD044C1F6FF45C17D
:103CF000F7FF46C1F8FF0900F5CF01F001502D0A8A
:103D0000D1E044C1F6FF45C1F7FF46C1F8FF090005
:103D1000F5CF01F00150200ACCE044C1F6FF45C1C7
:103D2000F7FF46C1F8FF0900F5CF01F001502B0A5B
:103D3000C7E044C1F6FF45C1F7FF46C1F8FF0900DF
:103D4000F5CF01F00150230AC2E044C1F6FF45C19E
:103D5000F7FF46C1F8FF0900F5CF01F00150300A26
:103D6000BDE001D09ED752A301D0529152A701D0FD
:103D7000529544C1F6FF45C1F7FF46C1F8FF09005F
:103D8000F5CF00F0000E016E00C06AF123EC08F0E0
:103D9000005236E0506B516B50C100F051C101F040
:103DA0000A0E046E000E056E29EC05F044C1F6FF04
:103DB00045C1F7FF46C1F8FF0900F5CF02F00250F8
:103DC0000024506F000E0120516F300E505F000E26
:103DD000515B010E4427000E4523462344C1F6FFE4
:103DE00045C1F7FF46C1F8FF0900F5CF00F0000E0E
:103DF000016E00C06AF123EC08F00052CDE133D02F
:103E000044C1F6FF45C1F7FF46C1F8FF0900F5CFF1
:103E100001F001502A0A27E147C1E9FF48C1EAFF42
:103E2000EECF00F0EECF01F000C0E9FF01C0EAFFE5
:103E3000EECF50F1EECF51F147C1E9FF48C1EAFFA3
:103E4000020EEE24006E000EEE20016E47C1E1FF6F
:103E500048C1E2FF00C0E6FF01C0E6FF010E4427B3
:103E6000000E4523462344C1F6FF45C1F7FF46C176
:103E7000F8FF0900F5CF01F001502E0A70E1010EA4
:103E80004427000E4523462344C1F6FF45C1F7FFF2
:103E900046C1F8FF0900F5CF01F001502A0A28E1D8
:103EA00047C1E9FF48C1EAFFEECF00F0EECF01F0D5
:103EB00000C0E9FF01C0EAFFEECF4DF1EECF4EF1B9
:103EC00047C1E9FF48C1EAFF020EEE24006E000E72
:103ED000EE20016E47C1E1FF48C1E2FF00C0E6FFEE
:103EE00001C0E6FF010E4427000E4523462336D0CD
:103EF0004D6B4E6B44C1F6FF45C1F7FF46C1F8FF5D
:103F00000900F5CF00F0000E016E00C06AF123EC4D
:103F100008F0005223E04DC100F04EC101F00A0E3E
:103F2000046E000E056E29EC05F044C1F6FF45C194
:103F3000F7FF46C1F8FF0900F5CF02F00250002458
:103F40004D6F000E01204E6F300E4D5F000E4E5B28
:103F5000010E4427000E45234623CCD702D04D6BDB
:103F60004E6B44C100F045C101F046C102F0010EA4
:103F70004427000E4523462300C0F6FF01C0F7FF8B
:103F800002C0F8FF0900F5CF4FF1F9D058C100F099
:103F900059C101F05BEF25F05289E3D7C30E546F8E
:103FA000000E556F4D6B4E6B28D0528D27D126D108
:103FB000528B528F23D147C1E9FF48C1EAFFEECFB0
:103FC00000F0EECF01F000C0E9FF01C0EAFFEECF44
:103FD00054F1EECF55F147C1E9FF48C1EAFF020EA7
:103FE000EE24006E000EEE20016E47C1E1FF48C1D5
:103FF000E2FF00C0E6FF01C0E6FF000E551902E136
:10400000000E541904E1BC0E546F000E556F566B30
:10401000576B56515425E96E57515521EA6EEE52B1
:104020000BE0010E5625006E000E5721016E00C0F8
:1040300056F101C057F1EDD74D514E110AE05751DD
:104040004E5D02E156514D5D04E24DC156F14EC147
:1040500057F15151575D02E15051565D05E25651FD
:10406000505F5751515B02D0506B516B52B716D015
:1040700050C100F051C101F0010E505F000E515BC4
:10408000005001100BE042C1E1FF43C1E2FF200EEE
:10409000E66E424B432B584B592BEAD756C102F0E0
:1040A00057C103F0010E565D006E000E5759016EA8
:1040B00000C056F101C057F10250031019E054C17D
:1040C000E9FF55C1EAFF42C1E1FF43C1E2FFEECF84
:1040D000E6FF424B432B010E5425006E000E552186
:1040E000016E00C054F101C055F1584B592BD6D781
:1040F00052A716D050C100F051C101F0010E505F1F
:10410000000E515B005001100BE042C1E1FF43C1C2
:10411000E2FF200EE66E424B432B584B592BEAD759
:1041200094D547C1E9FF48C1EAFFEECF00F0EECFDA
:1041300001F000C0E9FF01C0EAFFEECF4FF147C137
:10414000E9FF48C1EAFF020EEE24006E000EEE20E9
:10415000016E47C1E1FF48C1E2FF00C0E6FF01C0B8
:10416000E6FF4F0E546F010E556F010E566F000E95
:10417000576F62D7C00E5213000E53133FD04F51EA
:10418000000AD8B403D74F516C0AD8B405D74F51A1
:104190004C0AD8B401D74F51450AD8B4FFD64F5175
:1041A000660AD8B4FBD64F51650AD8B4F7D64F513A
:1041B000670AD8B4F3D64F516F0AD8B4F6D64F5128
:1041C000640AD8B4F4D64F51690AD8B4F0D64F5126
:1041D000700AD8B4EDD64F51580AD8B4E9D64F5129
:1041E000780AD8B4E6D64F51730AD8B4E4D64F5102
:1041F000630A97E04F51750ABDE0B3D7C00E521560
:10420000016E53C102F0000E0216000E021802E108
:10421000000E0118D8A480D052A927D047C1E9FFC9
:1042200048C1EAFFEECF00F0EECF01F000C0E9FF99
:1042300001C0EAFFEECF54F1EECF55F1EECF56F1CB
:10424000EECF57F147C1E9FF48C1EAFF040EEE2463
:10425000006E000EEE20016E47C1E1FF48C1E2FF93
:1042600000C0E6FF01C0E6FF2FD047C1E9FF48C10B
:10427000EAFFEECF00F0EECF01F000C0E9FF01C091
:10428000EAFFEECF00F0EECF01F0000E01BEFF0E10
:10429000026E036E00C054F101C055F102C056F128
:1042A00003C057F147C1E9FF48C1EAFF020EEE24FF
:1042B000006E000EEE20016E47C1E1FF48C1E2FF33
:1042C00000C0E6FF01C0E6FF800E5719006E800EA9
:1042D000005C08E1000E565D05E1000E555D02E14F
:1042E000000E545D18E2030E5213000E5313006AC1
:1042F000016A026A036A5451005E5551015A5651CF
:10430000025A5751035A00C054F101C055F102C07E
:1043100056F103C057F14ED052A927D047C1E9FF4B
:1043200048C1EAFFEECF00F0EECF01F000C0E9FF98
:1043300001C0EAFFEECF54F1EECF55F1EECF56F1CA
:10434000EECF57F147C1E9FF48C1EAFF040EEE2462
:10435000006E000EEE20016E47C1E1FF48C1E2FF92
:1043600000C0E6FF01C0E6FF25D047C1E9FF48C114
:10437000EAFFEECF00F0EECF01F000C0E9FF01C090
:10438000EAFFEECF54F1EECF55F1000E566F576FA6
:1043900047C1E9FF48C1EAFF020EEE24006E000E9D
:1043A000EE20016E47C1E1FF48C1E2FF00C0E6FF19
:1043B00001C0E6FF000E4E1902E1000E4D190FE19B
:1043C000000E006E571908E10050561905E1005023
:1043D000551902E15451000A02E14D4B4E2BC00E1B
:1043E0005215006E00C005F0AED0010E4F6F4F5158
:1043F0000A0A34E04FC100F0000E016E026E036E37
:104400000036009001360236033600360090013641
:1044100002360336440E0024F66E550E0120F76E68
:10442000000E0220F86E0900F5CF01F00900F5CF6B
:1044300002F00900F5CF03F00900F5CF04F00450B5
:10444000575D08E10350565D05E10250555D02E1FC
:104450000150545D01E202D04F2BC9D782D0010E2A
:104460004F6F4F51080A34E04FC100F0000E016E4B
:10447000026E036E003600900136023603360036B7
:104480000090013602360336940E0024F66E550E67
:104490000120F76E000E0220F86E0900F5CF01F042
:1044A0000900F5CF02F00900F5CF03F00900F5CFC0
:1044B00004F00450575D08E10350565D05E10250D9
:1044C000555D02E10150545D01E202D04F2BC9D786
:1044D00048D0010E4F6F4F510C0A34E04FC100F02D
:1044E000000E016E026E036E003600900136023639
:1044F000033600360090013602360336140E0024CF
:10450000F66E550E0120F76E000E0220F86E0900BF
:10451000F5CF01F00900F5CF02F00900F5CF03F067
:104520000900F5CF04F00450575D08E10350565DD3
:1045300005E10250555D02E10150545D01E202D0F7
:104540004F2BC9D70ED00550000AD8B44ED705500E
:10455000C00AD8B44AD70550800A81E00550400A05
:10456000B8E0800E006E800E4E19005C02E14D51E5
:104570004F5D03E24DC14FF10DD0800E4E19006E1C
:10458000800E005C02E14F514D5D04E24FC14DF1E0
:10459000000E4E6F505151110EE0030E5215006E79
:1045A00053C101F0000E01160050011004E0010E8D
:1045B000505F000E515B800E4E19006E800E511937
:1045C000005C02E150514D5D05E24D51505F4E518E
:1045D000515B02D0506B516BC40E5215016E53519A
:1045E000080B026E0250080A02E1400E011808E1B1
:1045F0005051511104E0010E505F000E515B1CD070
:10460000C00E5215016E5351080B026E0250080A7B
:1046100002E1800E011810E1800E006E800E51192B
:10462000005C02E15051020805E2020E505F000EEC
:10463000515B02D0506B516B52A55DD052A312D08A
:1046400052A103D02D0E496F02D02B0E496F42C1EB
:10465000E1FF43C1E2FF49C1E6FF424B432B584B08
:10466000592B34D052A10BD042C1E1FF43C1E2FF2C
:10467000200EE66E424B432B584B592B27D0C00ED1
:104680005215016E5351080B026E0250080A02E1E6
:10469000800E01181BE142C1E1FF43C1E2FF300E71
:1046A000E66E424B432B584B592B52AB03D0580E5E
:1046B0004A6F02D0780E4A6F42C1E1FF43C1E2FF68
:1046C0004AC1E6FF424B432B584B592B50515111D5
:1046D00011E042C1E1FF43C1E2FF300EE66E424B02
:1046E000432B584B592B010E505F000E515B50511C
:1046F0005111EFE174D05051511113E052B711D064
:1047000042C1E1FF43C1E2FF200EE66E424B432B64
:10471000584B592B010E505F000E515B50515111F7
:10472000EFE152A312D052A103D02D0E4B6F02D055
:104730002B0E4B6F42C1E1FF43C1E2FF4BC1E6FFCD
:10474000424B432B584B592B0CD052A10AD042C19B
:10475000E1FF43C1E2FF200EE66E424B432B584B74
:10476000592BC00E5215016E5351080B026E0250A8
:10477000080A02E1400E01180BE142C1E1FF43C10A
:10478000E2FF300EE66E424B432B584B592B27D09D
:10479000C00E5215016E5351080B026E0250080AEA
:1047A00002E1800E01181BE142C1E1FF43C1E2FFBB
:1047B000300EE66E424B432B584B592B52AB03D075
:1047C000580E4C6F02D0780E4C6F42C1E1FF43C1CE
:1047D000E2FF4CC1E6FF424B432B584B592B800E56
:1047E000006E800E4E19005C02E14D514F5D0BE2F0
:1047F00042C1E1FF43C1E2FF300EE66E424B432B64
:10480000584B592BECD74DC100F04EC101F0010EB1
:104810004D5F000E4E5B00500110D8B42AD1C00E7F
:104820005215006E00C05AF10AD14DC100F04EC1C0
:1048300001F0000E4EBFFF0E026E036E00360090B8
:104840000136023603360036009001360236033652
:10485000440E0024F66E550E0120F76E000E022065
:10486000F86E0900F5CF04F00900F5CF05F0090056
:10487000F5CF06F00900F5CF07F054C100F055C19F
:1048800001F056C102F057C103F089EC09F00A0E9D
:10489000046E000E056E066E076E89EC09F008C006
:1048A00000F009C001F00AC002F00BC003F0300EA6
:1048B00000244F6FD3D052AB45D04DC100F04EC154
:1048C00001F0000E4EBFFF0E026E036E0036009028
:1048D00001360236033600360090013602360336C2
:1048E000940E0024F66E550E0120F76E000E022085
:1048F000F86E0900F5CF04F00900F5CF05F00900C6
:10490000F5CF06F00900F5CF07F054C100F055C10E
:1049100001F056C102F057C103F089EC09F00F0E07
:104920000016000E011602160316E50E0024F66EA0
:10493000550E0120F76E000E0220F86E0900F5CF2B
:104940004FF144D04DC100F04EC101F0000E4EBFFA
:10495000FF0E026E036E00360090013602360336FB
:1049600000360090013602360336940E0024F66EAF
:10497000550E0120F76E000E0220F86E0900F5CFEB
:1049800004F00900F5CF05F00900F5CF06F00900A5
:10499000F5CF07F054C100F055C101F056C102F047
:1049A00057C103F089EC09F00F0E0016000E011636
:1049B00002160316D40E0024F66E550E0120F76E73
:1049C000000E0220F86E0900F5CF4FF147D04DC11F
:1049D00000F04EC101F0000E4EBFFF0E026E036EDE
:1049E000003600900136023603360036009001365C
:1049F00002360336140E0024F66E550E0120F76EB3
:104A0000000E0220F86E0900F5CF04F00900F5CF82
:104A100005F00900F5CF06F00900F5CF07F054C105
:104A200000F055C101F056C102F057C103F089EC06
:104A300009F0070E00144F6F300E4F270FD05A5158
:104A4000000AD8B4F2D65A51C00AD8B4EED65A5198
:104A5000800AD8B430D75A51400AB9E042C1E1FFC8
:104A600043C1E2FF4FC1E6FF424B432B584B592B4A
:104A7000CAD652A71AD0800E006E800E5119005C63
:104A800002E15051000811E242C1E1FF43C1E2FFDF
:104A9000200EE66E424B432B584B592B010E505FB4
:104AA000000E515B50515111EFE125EF1EF058C13E
:084AB00000F059C101F01200F1
:104AB8000101456B42C1E9FF43C1EAFFEECF44F172
:104AC8004451000A0FE044C16AF1B4EC04F001015A
:104AD800452B45514225E96E000E4321EA6EEECF83
:064AE80044F1EED71200BC
:104AEE000001FF6B0101006B39534FE03951FF0A92
:104AFE00D8A4390700EC0EF00050000A01E1FAD7F5
:104B0E0005EC0EF000C0FEF00001FF51010135254D
:104B1E00E16E000E3621E26E00C0E6FF0001FF2BB3
:104B2E00010100513725E96E000E3821EA6EEE5074
:104B3E000001FE1903E10101002B0CD00101006BF5
:104B4E0037C1E9FF38C1EAFFEE500001FE1902E15C
:104B5E000101002B010100513725E96E000E3821AD
:104B6E00EA6EEE50000A10E100510001FF5D006E8A
:104B7E00016A000E015A005001013525E16E015007
:104B8E003621E26EE66A06D0AFD735C1E1FF36C1F7
:064B9E00E2FFE66A1200CE
:104BA40035C102F036C103F038C100F039C101F05B
:104BB400010E0101385F000E395B0050011009E05D
:104BC40002C0E1FF03C0E2FF37C1E6FF024A032A45
:0C4BD400EBD735C100F036C101F0120033
:104BE000010E01016F6F46EC04F00C0E01016F6FB6
:104BF00046EC04F0010E0101426F010E436F890E75
:104C0000446F000E456FABEC0DF00B0E0B6E260ED5
:104C10000C6E5D0E0D6E0D2EFED70C2EFCD70B2EDE
:104C2000FAD700000000010E01016F6F46EC04F09E
:024C3000120070
:104C3200939A93989390939293949396819A81984E
:104C420081968194819281902BEC01F02BEC01F002
:104C52002BEC01F081828180818A28EC01F0819A1B
:104C62002BEC01F0818A28EC01F0819A2BEC01F007
:104C7200818A28EC01F0819A2BEC01F08190818AE3
:104C820028EC01F0819A2BEC01F0818A28EC01F0EA
:104C9200819A81928186818A28EC01F0819A2BEC9B
:104CA20001F081968180818A28EC01F0819A8190BD
:104CB200818A28EC01F0819A2BEC01F0818A28ECA0
:104CC20001F0819A8180818A28EC01F0819A2BEC93
:104CD20001F08190818A28EC01F0819A8186818499
:104CE20081828180818A28EC01F0819A2BEC01F08B
:064CF2000001E781120041
:104CF80035C104F036C105F0010139513A1124E0FB
:104D0800010E395F000E3A5B04C002F005C003F0E3
:104D1800044A052A37C100F038C101F0374B382B57
:104D280000C0E9FF01C0EAFF02C0E1FF03C0E2FFE3
:104D3800EECFE6FF02C0E9FF03C0EAFFEECF00F0C6
:104D4800005201E101D0D8D739C100F03AC101F0D1
:104D5800010E395F000E3A5B0050011008E004C0F4
:104D6800E1FF05C0E2FFE66A044A052AEDD735C12E
:084D780000F036C101F0120049
:104D80000001FF6B37C101F0010E006E015004E01D
:104D900000360090FF0FFBD700C0FEF035C1E9FFE1
:104DA00036C1EAFF0050EE14016E0152010ED8A484
:104DB000000E006E01013951001A1DE03851000843
:104DC00006E2EFEC0DF0EFEC0DF03807F7D735C148
:104DD000E9FF36C1EAFF0001FE51EE14016E0152F7
:104DE000010ED8A4000E006E01013951001A03E033
:0C4DF000FF0E0001FF6FFFC000F012007A
:104DFC003A0E0101406F010E416F35C142F136C1CF
:104E0C0043F137C144F138C145F139C146F1400E87
:104E1C00476F010E486F0EEC0EF000C0FEF001C0A3
:104E2C00FFF000503525E16E01503621E26EE66A46
:0A4E3C00FEC000F0FFC001F01200FC
:104E46003A0E01013B6F010E3C6F35C142F136C18E
:104E560043F137C144F138C145F139C146F13B0E42
:104E6600476F010E486F20EC1EF000C0FEF001C037
:104E7600FFF000503525E16E01503621E26EE66AFC
:0A4E8600FEC000F0FFC001F01200B2
:104E9000FF0E0001E16FFF0EE26FFF0EE36FFF0EEA
:104EA000E46FC26A151C006E0050C1160F0EC012CE
:064EB000C08EC28012005A
:104EB600680E0001FA6F090EFB6F6A0EFC6F010E99
:104EC600FD6F0A0E0101096F1C0E0A6F000E0B6FB3
:104ED600000E0C6F000E056F1C0E066F000E076F9E
:104EE600000E086FFF0E016FFF0E026F000E036FBC
:104EF600000E046FAC8A900EAB6E948E949C9EAAA4
:0A4F060003D0AECF00F0FBD712007D
:104F1000710E0101426F000E436FCEDD0A0E6A6F03
:104F2000B4EC04F00D0E01016A6FB4EC04F09B0EBA
:104F30000101426F000E436FBFDD0A0E6A6FB4ECD1
:104F400004F00D0E01016A6FB4EC04F04D0E010186
:104F5000426F000E436FB0DD0A0E6A6FB4EC04F0CE
:104F60000D0E01016A6FB4EC04F0160E0101426FE0
:104F7000000E436FA1DD0A0E6A6FB4EC04F00D0E53
:0A4F800001016A6FB4EC04F01200A6
:104F8A00C26A151C006E0050C1160F0EC012C08EE8
:104F9A00FEC000F000360090003600900050C212A9
:104FAA00C280FAEC0DF0C282C2A201D0FDD7C4CFF2
:104FBA0001F0006A00C035F101C036F1C350001299
:104FCA00000E011200C035F101C036F1C290000E88
:104FDA000014026E0150800B036E000E031802E1EA
:104FEA00000E021803E00101356B366B35C100F083
:064FFA0036C101F01200B7
:105000000900F5CFE6FF0006FBE10106F9E1120019
:10501000010E0F01386F396B3B6B3A6B0001E79360
:10502000799E789E8F0E946E010E926E31DFB88657
:10503000B06ACF0EAF6EAC843EDF6ADFFADDD0DD42
:0250400012005C
:10504200190E0101356F010E366F180E376F560EAD
:10505200386F000E396FB8C03AF1B9C03BF1BAC02F
:105062003CF1BBC03DF1F8C03EF1F9C03FF1C5DEF5
:10507200E80E356F000E366F270E376F560E386FFB
:10508200000E396FDFDE010E426F010E436F190E03
:10509200446F010E456FABEC0DF0020E0101426F41
:1050A200010E436FE80E446F000E456FABEC0DF03E
:0250B2001200EA
:1050B4000001E7A31BD0020E01016A6FB4EC04F0F7
:1050C400190E0101426F010E436FF4DC030E6A6F87
:1050D400B4EC04F00A0E01016A6FB4EC04F00D0E96
:0E50E40001016A6FB4EC04F00001E7931200C2
:1050F200820E0101356F0F0E366F376B010E386F5E
:10510200396B3DDE005223E00A0E0001B825016E24
:10511200000EB921026E800E006E800E0218005C35
:1051220002E10150FF0813E30A0EB827000EB9236B
:10513200E783040E0B6E0C0E0C6E330E0D6E0D2EED
:10514200FED70C2EFCD70B2EFAD700000000820EE1
:105152000101356F0F0E366F010E376F010E386F7A
:10516200396B0DDE005223E00A0E0001B85D016EBC
:10517200000EB959026E800E0218006E800E005C9D
:1051820002E1000E015C13E30A0EB85F000EB95B88
:10519200E783040E0B6E0C0E0C6E330E0D6E0D2E8D
:1051A200FED70C2EFCD70B2EFAD700000000820E81
:1051B2000101356F0F0E366F020E376F010E386F19
:1051C200396BDDDD005223E00A0E0001BA25016EC3
:1051D200000EBB21026E800E006E800E0218005C73
:1051E20002E10150FF0813E30A0EBA27000EBB23A7
:1051F200E783040E0B6E0C0E0C6E330E0D6E0D2E2D
:10520200FED70C2EFCD70B2EFAD700000000820E20
:105212000101356F0F0E366F030E376F010E386FB7
:10522200396BADDD005223E00A0E0001BA5D016E5A
:10523200000EBB59026E800E0218006E800E005CDA
:1052420002E1000E015C13E30A0EBA5F000EBB5BC3
:10525200E783040E0B6E0C0E0C6E330E0D6E0D2ECC
:10526200FED70C2EFCD70B2EFAD70000000012003E
:1052720000EC0EF00052D8B47BD00D0E0101356F58
:10528200010E366FDF0E376F000E386F0A0E396F60
:105292002DDC290E356F010E366F0F0E376F010EA2
:1052A200386F010E396F000E3A6F25DD0D51150A68
:1052B20019E1010E426F0E0E436FDB0E446F000EBA
:1052C200456FABEC0DF0060E0B6E130E0C6EAD0EB1
:1052D2000D6E0D2EFED70C2EFCD70B2EFAD700002A
:1052E20000003BD0290E0101356F010E366F0F0E03
:1052F200376F010E386F030E396F000E3A6FFBDC09
:10530200020E426F030E436F290E446F010E456F6A
:10531200ABEC0DF0290E0101356F010E366F120E46
:10532200376F010E386F030E396F000E3A6FE3DCF0
:10533200020E426F090E436F290E446F010E456F34
:10534200ABEC0DF0010E0101426F0E0E436F490EE0
:10535200446F000E456FABEC0DF0290E0101356F65
:10536200010E366F376B0C0E386F000E396F19DC79
:02537200120027
:10537400F8C0E5F0F9C0E6F00001FE6B04DE00C001
:10538400F8F001C0F9F00001E651011802E1005003
:08539400E519D8A4E78312001B
:10539C0018EC2BF037DEE8DFA6DE4DDE85DE63DFB2
:0453AC00FAD7FFD756
:1056300010EE15F0CC0E006E010E016EB00EF66E7F
:0E564000530EF76E000EF86E00EC28F012000C
:0153B0000FED
:1053B1004FF92058206574205920736F6E74206452
:1053C100657320656E746965727320636F6D7072A9
:1053D100697320656E7472652030206574203939D7
:0353E100392E0062
:0453E400204F4B000B
:1053E800466F726D61742064657320646F6E6EE938
:1053F800657320E020656E766F7965723A205B5898
:045408003B595D00AF
:10540C00436F6E6E656374E92061752050494331BA
:08541C00384634354B323200F2
:10542400496E697469616C69736174696F6E2E2E5B
:025434002E0048
:105436004269656E76656E756520E0206D6F6E203B
:0D54460070726F6772616D6D652E2E2E0005
:02545300000057
:02545500000055
:07545700286E756C6C290042
:10545E006E6F6E2D666C6F6174207072696E7466FD
:01546E00003D
:07546F00286E756C6C29002A
:045476004E4F4B004A
:02547A005D00D3
:10547C000000007F000020820000488500007A8830
:10548C0000401C8C0050438F002474928096189618
:10549C0020BC3E99286B6E9CF90215A0EC782DC1AE
:0454AC00CAF249E215
:1054B0000000007FCDCC4C7B0AD723786F12037598
:1054C00017B75171ACC5276EBD37066B95BF5667D0
:1054D00077CC2B645F700961FFE65B5D08E53C3CBF
:0454E0006042221BE9
:1054E400010000000800000040000000000200006D
:1054F40000100000008000000000040000002000F4
:10550400000000010000000800000040000000004E
:10551400010000000800000040000000000200003C
:1055240000100000008000000000040000002000C3
:10553400000000010000000800000040000000001E
:10554400010000000A00000064000000E8030000FD
:1055540010270000A086010040420F0080969800AA
:0855640000E1F50500CA9A3BC5
:10556C00010000000A00000064000000E8030000D5
:10557C0010270000A086010040420F008096980082
:08558C0000E1F50500CA9A3B9D
:1055940001000000100000000001000000100000E5
:1055A40000000100000010000000000100000010D5
:1055B40001000000100000000001000000100000C5
:1055C40000000100000010000000000100000010B5
:1055D4003031323334353637383961626364656665
:0155E40000C6
:1055E5003031323334353637383941424344454614
:0155F50000B5
:1055F6003031323334353637383941424344454603
:0156060000A3
:105607003031323334353637383961626364656631
:015617000092
:0F5618002530337520253033752025303475004B
:09562700413A20202020423A0003
:020000040030CA
:0D000100231F3CFFBF81FF0FC00FE00F4029
:00000001FF
